:020000040000FA
:0600000038EF16F01200BB
:0608000038EF16F01200B3
:0608080060EF0FF012008A
:020818001200CC
:0108400003B4
:0E0842001E0E716E0401400E096F300E0A6F1B
:10085000040E0B6F880E086F700E0E6F040E0F6F74
:10086000400E0C6F1E0E726E400E116FB00E126FA6
:10087000040E136F880E106FF00E166F040E176FB4
:10088000400E146F1E0E736E400E196F300E1A6FED
:10089000050E1B6F800E186F700E1E6F050E1F6FFA
:0608A000400E1C6F120067
:100A40001201000200000008D8040C00000001029E
:100A5000030109023C0001010080FA0904000006BC
:100A600000000000070501024000FF070581024069
:100A700000FF070502024000FF070582024000FF59
:100A80000705030140000607058301400006040333
:100A900009043203410067007500690072007200AA
:100AA000650020004600650072006E0061006E0067
:100AB000640065007A002000470072006F00730038
:100AC000730079002A03550053004200340061008E
:100AD0006C006C0020002800430029003200300028
:100AE000300037002000460049004E004700120346
:100AF0003000300030003000300030003000320074
:040C4000520A520AF8
:080C80008E0A920AC40AEE0A72
:100D00000500C22C0000A101000002000000A42C7C
:100D10000000280100001E0000009E2C00007A0147
:100D20000000060000009D2C0000A401000001004E
:0E0D300000009C2C0000A30100000100000048
:020D3E000101B1
:100D4000826B6C0EE66E0D0EE66E82C1E6FF67ECFE
:100D500012F0E552E552E55282C1E6FFE4EC14F0F0
:100D6000E552F3CF80F1F4CF81F11200D9CFE6FF45
:100D7000E1CFD9FF160EE126DE52110EDD6E110E07
:100D8000F36E020EF3CFDBFF030EDB6A040EDB6AA9
:100D9000DF6AFD0EDBCFE9FFFE0EDBCFEAFFEF508F
:100DA000FF0A01E160D1F70A01E138D10E0A01E141
:100DB000E4D0030A01E1CAD0010A01E1C4D0070A64
:100DC00001E1BED0010A01E1B8D0050A01E1AAD0D3
:100DD000060A01E182D0010A01E056D1FD0EDBCF07
:100DE000E9FFFE0EDBCFEAFF030EE926000EEA2242
:100DF000E9CF0BF0EACF0CF00BC0E6FF0CC0E6FF2A
:100E0000DFEC08F0E552E5520D0EF3CFDBFF0E0EDE
:100E1000F4CFDBFF0D0EDBCFE6FF0E0EDBCFE6FFE0
:100E2000C0EC09F0E552E5520F0EF3CFDBFF100ED8
:100E3000F4CFDBFF0F0EDB50FF0841E0FD0EDBCFF0
:100E4000E9FFFE0EDBCFEAFFEE52010EEFCFDBFF34
:100E50000D0EDBCFE6FF0E0EDBCFE6FF010EDBCF84
:100E6000E6FF9BEC13F0E552E552E552E76E130EF8
:100E7000E7CFDBFF0F0EDBCF06F0100EDBCF07F066
:100E8000110E06C0DBFF120E07C0DBFF110EDBCF19
:100E90000BF0120EDBCF0CF0130EDBCFE6FF04D00D
:100EA0000CC0FAFF0B50F96EFBDFE55280C1E9FF81
:100EB00081C1EAFFEE52130EDBCFEFFF06D080C1F7
:100EC000E9FF81C1EAFFEE52EF6880C1E9FF81C10D
:100ED000EAFFEF6A020EDF6ED8D0FD0EDBCFE9FF2E
:100EE000FE0EDBCFEAFFEE52130EEFCFDBFF130E49
:100EF000DBCFE6FFF5EC13F0E552E76E140EE7CF1B
:100F0000DBFF80C1E9FF81C1EAFFEE52140EDBCFA7
:100F1000EFFF80C1E9FF81C1EAFF010EEF6E020E13
:100F2000DF6EB3D086EC14F080C1E9FF81C1EAFF27
:100F3000070EEF6E010EDF6EA8D0020EDF6EA5D099
:100F4000010EDF6EA2D0030EDF6E9FD050EC09F0D1
:100F5000E76E030EE7CFDBFF80C1E9FF81C1EAFF47
:100F6000050EEF6E80C1E9FF81C1EAFFEE52030E6C
:100F7000DBCFEFFF020EDF6E88D080C1E9FF81C1B9
:100F8000EAFF060EEF6EFD0EDBCFE9FFFE0EDBCFB4
:100F9000EAFFEE52040EEFCFDBFFD950050FE66EED
:100FA000000EDA20E66E040EDBCFE6FF6CEC09F0F3
:100FB000E552E552E552150EDB6A080EF36E150E8A
:100FC000DBCFF4FFF350F45C26E2D950050F0D6E31
:100FD000DACF0EF0150EDB500F010D24E96E000E76
:100FE0000E20EA6EEF50E66E80C1E9FF81C1EAFF94
:100FF000EE52E9CF0BF0EACF0CF0150EDB500F01EB
:101000000B24E96E000E0C20EA6EE552E750EF6EFD
:10101000150EDB2AD2D7090EDF6E37D0FD0EDBCFDF
:10102000E9FFFE0EDBCFEAFFEE52130EEFCFDBFF40
:10103000130EDBCFE6FF4CEC14F0E552E76E140E16
:10104000E7CFDBFF80C1E9FF81C1EAFFEE52140E5A
:10105000DBCFEFFF80C1E9FF81C1EAFF080EEF6E31
:10106000020EDF6E12D06D960101836B846B01015D
:101070008307000E845B01018351841101E0F7D7DF
:10108000FF00010EDF6E01D000D0DF500BE0040145
:101090000CBF08D0DFCFE6FF82C1E6FF31EC13F0D2
:1010A000E552E552160EE15C02E2E16AE552E16EBC
:1010B000E552E7CFD9FF1200D9CFE6FFE1CFD9FF44
:1010C000020EE12680C1E9FF81C1EAFFEF6E010E49
:1010D000DB6AFC0EDB50F36E010EDBCFF4FFF35046
:1010E000F45C25E2010EDB50E76EFD0EDBCFE9FF7D
:1010F000FE0EDBCFEAFFE750E926000EEA22EF50B2
:10110000E66E80C1E9FF81C1EAFFEE52E9CF0BF044
:10111000EACF0CF0010EDB50E924E96E000EEA2064
:10112000EA6EE552E750EF6E010EDB2AD2D7FC0ED5
:10113000DB28DF6E04010CBF08D0DFCFE6FF82C1E1
:10114000E6FF31EC13F0E552E552020EE15C02E2FB
:10115000E16AE552E16EE552E7CFD9FF1200D9CF3F
:10116000E6FF4CD165D9DF6ADE52010EDD6E020E5C
:10117000DB6ADF6A080EDF5C17E2020EDB5014E167
:101180006BD9EF5002E05FD905E1010EF36E020E5C
:10119000F3CFDBFF61D9EFCF0BF055D90B5C02E049
:1011A000010EDB6ADF2AE6D7010EDB500B6E030E61
:1011B000E15C02E2E16AE552E16E0B501FD154D9C5
:1011C0000D0EE126DE6A300EDD6E0C0EDB6A27D9CD
:1011D0000BBE0C6800010B1C01E10C1C58E0D9CFC0
:1011E000E9FFDACFEAFF020EEECFDBFF030EEDCF11
:1011F000DBFF0C0EDB6A080EF36E0C0EDBCFF4FF88
:10120000F350F45C26E2020EDBCFF6FF030E14D996
:10121000F6CF0DF0F7CF0EF00C0EDB500D24F66E6E
:10122000000E0E20F76E0800F550E66ED950040F40
:101230000B6EDACF0CF00C0EDB500F010B24E96EB5
:10124000000EDA20EA6EE552E750EF6E0C0EDB2A54
:10125000D2D7FD0EDBCFE6FFFE0EDBCFE6FFD95087
:10126000040FE66E000EDA20E66E7CDFE552E552F2
:10127000E552E552000909E0DECF0BF0DDCF0CF0BE
:101280000BC0F3FF0CC0F4FF04D0BCD8A0D7F368A8
:10129000F46A0D0EE15C02E2E16AE552E16EAED065
:1012A000C7D8DE6A300EDD6E020EDB6AB8D80BBE20
:1012B0000C680B1C01E10C1C04E0A4D8020EDB2A14
:1012C000F5D7020EDB500B6E030EE15C02E2E16A21
:1012D000E552E16E0B5092D0C7D8050EE126010E03
:1012E000DB6A300EF36E020EF3CFDBFFFE0EDB5037
:1012F0000E0DF350E76E010EDBCF0BF0020EDBCFCD
:101300000CF0E7500B26000E0C22010E0BC0DBFF89
:10131000020E0CC0DBFF010EDBCF06F0020EDBCFAE
:1013200007F0030E06C0DBFF040E07C0DBFFDF6A19
:10133000080EDF5C1EE2030EDBCFF6FF040E7CD846
:10134000F6CF0BF0F7CF0CF0DF500B24F66E000E4B
:101350000C20F76E0800F550E66EDF50E76EFC0ECD
:10136000DBCFE9FFFD0E43D8E552E750EF6EDF2AF1
:10137000DFD7050EE15C02E2E16AE552E16E3ED0A4
:101380001CD828D802E2E16AE552E16E37D015D8C0
:10139000020EF626000EF7221DD802E2E16AE5529F
:1013A000E16E2CD00AD8040EF626000EF72212D8D1
:1013B00002E2E16AE552E16E21D056D8020EE12642
:1013C000FD0EDBCFDEFFDBCFDDFFDECFF6FFDDCFB7
:1013D000F7FF12000900F5CF0BF00800F5CF0CF075
:1013E0000BC0F3FF0CC0F4FF020EE15C1200DBCF78
:1013F000EAFFE750E926000EEA221200E552E7CFA5
:10140000D9FF1200DECF0BF0DDCF0CF00E0E0B2655
:10141000000E0C220BC0DEFF0CC0DDFF1200DECF81
:10142000F6FFDDCFF7FF0800F5CF0BF00C6A1200D6
:101430001BD8030EE1261200DBCFF7FF060EF626BF
:10144000000EF7221200DF50E76EFB0EDBCFE9FF44
:10145000FC0ECDDFEF501200DF50E76EFD0EDBCF4C
:10146000E9FFFE0EF7EF09F0D9CFE6FFE1CFD9FF94
:10147000120092D8050EDF5C05E276D8EE6AED6ABE
:10148000DF2AF8D7E55284D079D8050EDF5C13E265
:10149000010EDB5010E168D8EE50ED100AE1DE528B
:1014A000010EDD6E61D8FD0EDBCFEEFFFE0EDBCF51
:1014B000EDFFDF2AEAD7010EDB5002E1000E01D07A
:1014C000010E0B6E020EE15C02E2E16AE552E16E92
:1014D0000B505ED053D8050EDF5C18E2010EDB50D6
:1014E00015E142D8EECF0BF0EFCF0CF0FD0EDB5044
:1014F0000B180AE1FE0EDB500C1806E1DE52010E5D
:10150000DD6E32D8EE6AED6ADF2AE5D7010EDB50D8
:1015100002E1000E01D0010E0B6E020EE15C02E250
:10152000E16AE552E16E0B5033D036D8050EDF5C30
:1015300019E21AD8EE50ED1013E0EA6ADF34FE0B20
:10154000EA36E96E5E0EE926010EEA22EECF0BF0D6
:10155000EFCF0CF004D00CC0FAFF0B50F96EFBDF9C
:10156000DF2AE4D7E55214D0EA6ADF34FE0BEA360C
:10157000E96E5E0EE926010EEA221200D9CFE6FFDF
:10158000E1CFD9FF020EE126DF6A010EDB6A12000D
:10159000E552E7CFD9FF1200D9CFE6FFE1CFD9FF5F
:1015A000E652DF6A1200D9CFE6FFE1CFD9FF020E83
:1015B000E126DF80DF92DF94DF96DF98DF9ADECFCF
:1015C0000BF0DDCF0CF00BC0F3FF0CC0F4FFE15CBF
:1015D00002E2E16AE552E16EE552E7CFD9FF12007F
:1015E00006D81AD895EC0AF073EC12F0FAD70F0E61
:1015F000C112140E6F6E0101856B0101866B010132
:10160000876B92689368946895689668F9EC0EF019
:1016100039EC0AF0F2EF13F0E1EC0BF06FBE02D000
:10162000FDEC0BF01200BDD8E652DF6A050EDF5C60
:1016300005E2ADD8EE6AED6ADF2AF8D70101506BFA
:10164000E552B4D0B7D8050EDF5C13E2010EDB50D3
:1016500010E19DD8EE50ED100AE1DE52010EDD6E74
:1016600096D8FD0EDBCFEEFFFE0EDBCFEDFFDF2ABF
:10167000EAD7010EDB5002E1000E15D001015051F6
:10168000502B00090FE13E0EE66E170EE66E09ECD8
:101690000FF0E552E552F294F28A52C1D6FF51C1E1
:1016A000D7FFD58E010E0B6E020EE15C02E2E16AFD
:1016B000E552E16E0B507AD07DD8050EDF5C18E262
:1016C000010EDB5015E163D8EECF0BF0EFCF0CF03D
:1016D000FD0EDB500B180AE1FE0EDB500C1806E184
:1016E000DE52010EDD6E53D8EE6AED6ADF2AE5D7D1
:1016F000010EDB5002E1000E0FD0010150070BE19B
:10170000D59EF294F29A3E0EE66E170EE66E33EC1C
:101710000FF0E552E552010E0B6E020EE15C02E2A3
:10172000E16AE552E16E0B5041D03BD8020ED56E16
:10173000FE0EDBCF52F1FD0EDBCF51F137D031D8A9
:10174000E652DF6AF2A421D0F29452C1D6FF51C111
:10175000D7FF050EDF5C19E21AD8EE50ED1013E04A
:10176000EA6ADF34FE0BEA36E96E460EE926010E20
:10177000EA22EECF0BF0EFCF0CF004D00CC0FAFF52
:101780000B50F96EFBDFDF2AE4D7E5520FD0EA6A8F
:10179000DF34FE0BEA36E96E460EE926010EEA2238
:1017A0001200D9CFE6FFE1CFD9FF1200E552E7CF13
:1017B000D9FF1200F6DF020EE126DF6A010EDB6AB6
:1017C00012006DA60CD80101850508E16DBA06D09E
:1017D000686A696A69806988020E856F12006D6A9D
:1017E000696A6D860101010E856F12006D6A696A72
:1017F0000101856B1200F6EF0BF00101855101E14B
:1018000012006850040B04E06950040B01E038D862
:101810006DB212006850010B04E06950010B01E049
:1018200050D86850100B04E06950100B01E024D828
:101830006850400B04E06950400B01E037D8685015
:10184000200B04E06950200B01E032D86850020BF5
:1018500004E06950020B01E032D8030E0101855DFE
:1018600001E212006850080B06E06950080B03E023
:1018700098EC0CF068961200698468986D821200EA
:101880006D92699468941200010186A10ED0F8DF70
:101890006D840001080EFE6F070EFF6FFE07000E3D
:1018A000FF5BFE51FF11FAE16D941200689C12007B
:1018B00070A003D089EC0DF07090689A12006892C5
:1018C00012006A6A686A9F0E6B6E7B0E696E6E6AA2
:1018D0000F0EE66E710EE66E0F0EE66E14D8E55230
:1018E000E552E552160E706E68A602D06896FCD7D7
:1018F0006D9889EC0DF0010186910101876B010162
:10190000030E856F1200D9CFE6FFE1CFD9FFFD0EA0
:10191000DBCFE9FFFE0EDBCFEAFFFC0EDB5004E07D
:10192000EE6AFC0EDB06F9D7E552E7CFD9FF1200CD
:101930006C500BE1040100513C0BE842E8420D08F9
:1019400002E1AAEF0CF0B9EF0CF0040E6C5C01E1BF
:101950001FD81200D9CFE6FFE1CFD9FFE65201012F
:10196000726B736B786B796BBBEC0DF099D8E552A9
:10197000F6D0020E0101725D09E168D8040100BDD4
:1019800002D0C80E01D0880E006F120089EF0DF052
:10199000040E0101855D09E122C46EFF6E5000084E
:1019A00002E2050E01D0030E856F0101720509E107
:1019B0000AD8040104BD02D0C80E01D0880E046FFD
:1019C000120089EF0DF0C4D80101080E785D000EF9
:1019D000795905E278C1DEFF79C1DDFF03D0080E39
:1019E000DE6EDD6A040104930491010EDB500413E2
:1019F000DFCF05F4000EDB500101785F010EDB50F4
:101A0000795B280E766F040E776F010186A30CD0E8
:101A100098D815E074C1F6FF75C1F7FF0800F550BE
:101A200080D8F6E2DB06F4D78CD809E074C1E9FF70
:101A300075C1EAFFEF5075D8F7E2DB06F5D7020E65
:101A4000E15C02E2E16AE552E16E89D081D8030EE1
:101A500004010015E76E010EE7CFDBFF01C4DFFFD5
:101A6000DE5001017827DD507923280E746F040EB3
:101A7000756F67D80EE074C1E9FF75C1EAFFEF50DA
:101A800076C1E9FF77C1EAFFEF6E6DD8F2E2DB06BF
:101A9000F0D7020EE15C02E2E16AE552E16E5FD04E
:101AA0000101735105E145D8840E006F04011DD07A
:101AB000040120AF1CD0010178510401265D010111
:101AC00079510401275904E226C478F127C479F139
:101AD0007ADF0101010E726F2CD8800E006F0401B5
:101AE000280E066F040E076FC80E046F10D0010198
:101AF000020E726F0401056BC80E046F0401080E1C
:101B0000016F280E026F040E036FC80E006F6D98F0
:101B100012000101726B0DD8880E006F0401046B76
:101B2000120076C1E9FF77C1EAFFEF6E0101B3EF62
:101B30000DF00401080E016F200E026F040E036FFA
:101B40001200D9CFE9FFDACFEAFFEE50ED10120014
:101B5000D9CFE6FFE1CFD9FF020EE1261200E55210
:101B6000E7CFD9FF1200762B000E7723742B752355
:101B7000DF06010E120004012051600BE842E8422A
:101B8000E842E842E842000901E012002151070A58
:101B900040E00B0A3EE0070A33E0010A23E00B0AAB
:101BA0001FE0020A1DE0030A19E0080A10E0010A1A
:101BB0000CE00F0A08E0030A01E0120012D901014B
:101BC000040E856F12000AEF0EF041EF0EF009D9F6
:101BD0000101870E746F010E756F0CD05CEF0EF073
:101BE0008EEF0EF002D90101746F756B880E7427A9
:101BF000010E7523010186930101010E786F120019
:101C0000F4D8EA6A880FE96E010EEA2222C4EFFFD7
:101C100012001200800E0401205D32E12351030AFC
:101C20001FE0010A0AE0030A29E1DBD80101400EA6
:101C3000746F0A0E756F120E1ED0ADD8400EF626C8
:101C40000C0EBBD8020E0101F76A7425F66E7551B1
:101C5000F7220900F5CF78F10A00F5CF79F10ED01F
:101C60009AD8800EF6260C0EA8D874C1F6FF75C15E
:101C7000F7FF0800F5500101786F796B0101868349
:101C80001200AFD80F0EE66E710EE66E0F0E9DD8E5
:101C9000010EE66E880EE66E010E97D822C487F11B
:101CA0000401225104E10101050E856F12000101BA
:101CB000060E856F21EF04F00401286B296B0401E7
:101CC00020511F0B020A0FE0030A0BE0010A18E182
:101CD00088D804012881010186A112D0040128833B
:101CE0000FD07FD80DD04BD801E0010E5DD876C162
:101CF000E9FFEA6EEF50040B03E00401010E286FC8
:101D0000010173050AE10101280E746F040E756F5D
:101D1000010186930101020E786F12000401220571
:101D20000EE120511F0B00090AE15BD8030E0401EC
:101D3000215D03E10101868102D001018691040148
:101D400022511CE120511F0B020818E124510F0BF6
:101D5000000914E014D801E0010E26D8030E040196
:101D6000215D04E1840E38D8EF6E120024AF03D059
:101D700033D8EF6A1200880E2FD8EF6E120035D8D4
:101D80000F0B080DF3500C6A000F0B6E040E0C22A3
:101D90002451800B120025D804012251F66EF76AF7
:101DA000D890F636F7361200040DF35001010B24DB
:101DB000766F000E0C20776F1200F7220900F5CF26
:101DC00074F10A00F5CF75F11200E66E83EC0CF0A9
:101DD000E552E552E552120076C1E9FF77C1EAFF0C
:101DE00012000101010E736F1200FBDF0401245188
:101DF0001200E4D8050EDF5C05E2CCD8EE6AED6A8D
:101E0000DF2AF8D701015D6BE552E552E7CFD9FF34
:101E10001200CAD8050EDF5C13E2010EDB5010E1A0
:101E2000B9D8EE50ED100AE1DE52010EDD6EB2D8E7
:101E3000FD0EDBCFEEFFFE0EDBCFEDFFDF2AEAD794
:101E4000010EDB5002E1000E07D001015D515D2B58
:101E5000000901E1F28E010E0B6E020EE15C02E25E
:101E6000E16AE552B2D0A0D8050EDF5C18E2010E9F
:101E7000DB5015E18FD8EECF0BF0EFCF0CF0FD0E5D
:101E8000DB500B180AE1FE0EDB500C1806E1DE52A7
:101E9000010EDD6E7FD8EE6AED6ADF2AE5D7010E0E
:101EA000DB5002E1000E05D001015D0701E1F29E69
:101EB000010E0B6E020EE15C02E2E16AE55285D092
:101EC000DACFE4FFE2CFDAFFE9CFE4FFEACFE4FFC5
:101ED000F6CFE4FFF7CFE4FFF5CFE4FFF3CFE4FF65
:101EE000F4CFE4FFFACFE4FF00EE00F00B0EE804BD
:101EF00003E3EECFE4FFFBD700EE0BF0060EE804A1
:101F000003E3EECFE4FFFBD7E65258D8050EDF5CC3
:101F100019E240D8EE50ED1013E0EA6ADF34FE0B10
:101F2000EA36E96E530EE926010EEA22EECF11F0F1
:101F3000EFCF12F004D012C0FAFF1150F96EFBDFA0
:101F4000DF2AE4D7E552E552E7CFD9FFE55200EEAC
:101F500010F0060EE80403E3E5CFEDFFFBD700EE3B
:101F60000AF00B0EE80403E3E5CFEDFFFBD7E5CF66
:101F7000FAFFE5CFF4FFE5CFF3FFE5CFF5FFE5CFBF
:101F8000F7FFE5CFF6FFE5CFEAFFE5CFE9FFE5CFC5
:101F9000DAFF1100EA6ADF34FE0BEA36E96E530E0F
:101FA000E926010EEA221200D9CFE6FFE1CFD9FFE0
:101FB000020EE126DF6A010EDB6A1200D9CFE6FFCE
:101FC000E1CFD9FFE652DF6A1200E16E0B50E55215
:101FD000E7CFD9FF1200CAD9FE0EDB2ADB500A0870
:101FE00002E1FE0EDB6AFE0EDB50C5D1BFD9FE0E4C
:101FF000DB5005E10A0EF36EFE0EF3CFDBFFFE0EA3
:10200000DB06DB50B8D10101A251A15D01E0000C5B
:10201000010CF9DF000903E0F36AF46A1200010120
:10202000A151CED90BC0F3FF0CC0F4FF1200A1C127
:10203000E6FFD1DFE5520101A16F120097D9030E2F
:10204000E126A2C1E6FFC7DFE552DF6E0101A25122
:10205000B7D9010E0BC0DBFF020E0CC0DBFFA15194
:10206000DF5C03E1F36AF46A0CD0DFCFA2F1010E6A
:10207000DBCF0BF0020EDBCF0CF00BC0F3FF0CC07C
:10208000F4FF030EE15C02E2E16AE552E16E73D116
:102090006DD9E652DF6A0A0EDF5C09E2DF501ED915
:1020A000EE6AED6ADF501AD995D9DF2AF4D7070E08
:1020B000D56E360EE66E220EE66E09EC0FF0E55296
:1020C000E552E55258D152D90C0EE126D59E9BDF40
:1020D000000928E1D750106E0F6AD6500F100D6E10
:1020E00010C00EF0FF0ED8800D560E560101A15102
:1020F000F5D80D50EE5C0B6E0E50EE580C6E020EC5
:102100000BC0DBFF030E0CC0DBFF47D90C6E1FD9E1
:102110000EE2040EA1C1DBFFDB500101A25D02E073
:102120009CD9FAD7FD0EDBCFDEFFDBCFDDFFE0D899
:1021300002E1000E23D0FDD8040EDB500101A15DA9
:1021400004E082D902E261D9F7D7040EDB50A15D29
:1021500013E1F294F28AA7D9FF0ED8800B560C56E1
:102160000BC0DEFF0CC0DDFF9ED90CC00BF00C6A6B
:102170000B50D76EDF50D66ED58E010E0B6E0C0E47
:10218000E15C02E2E16AE552E16E0B50F4D0EED878
:102190000C0EE1260101A151A1D820D9FED8D7D833
:1021A0000EE2040EA1C1DBFFDB500101A25D02E0E3
:1021B00054D9FAD7FD0EDBCFDEFFDBCFDDFF98D899
:1021C00002E1000E0FD0B5D8050EDB500101A15D74
:1021D00008E0040EDB50A15D04E036D902E215D917
:1021E000F3D7010E0B6E0C0EE15C02E2E16AE552E0
:1021F000E16E0B50C0D0BAD8E652A1C1DFFF010199
:10220000A251DF5C15E0DF5069D839D9F4D8FD0E52
:10221000DB500B1807E1FE0EDB500C1803E1DF501A
:102220005DD8D8D8DFCFE6FFD6DEE552DF6EE7D740
:10223000010EE552A0D09AD8080EE126F2A447D0AC
:10224000D59EF294D2D8DCD81AD9060EEECFDBFF99
:10225000070EEDCFDBFF18D90CE0060EDBCF0BF03D
:10226000070EDBCF0CF004D00CC0FAFF0B50F96E58
:10227000FBDFC6D8B3D8DBDEB8D8D9CFE9FFDACFD9
:10228000EAFFEE50ED1023E0BBD895D8020EDB50EC
:102290000D5C0B6E030EDB500E580C6EFF0ED880DB
:1022A0000B560C56040E0BC0DBFF050E0CC0DBFFFB
:1022B000040EDBCF0BF0050EDBCF0CF00CC00BF0E7
:1022C0000C50D76E040EDB50D66EF294D58E080EED
:1022D000E15C02E2E16AE552E16E4DD0040DF3CF1C
:1022E000E9FFF4CFEAFF000EE926010EEA22120010
:1022F000040EA2C1DBFFBAD8A1DE060EF3CFDBFFCE
:10230000070EF4CFDBFF44EF12F0080EDBCFEEFF39
:10231000090EDBCFEEFF0A0EDBCFEEFF0B0EDBCF9D
:10232000EEFF050EDB50E76E040EE7CFDBFF36EF66
:1023300012F0B2D8DECFEEFFDDCFEDFFADD89FD8E3
:10234000FB0EDBCFEEFFFC0EDBCFEDFF12000BC070
:10235000DEFFDD6EA8D8020EDBCF0DF0030EDBCF63
:102360000EF00D500B5C0E500C581200D9CFE6FF4A
:10237000E1CFD9FF1200E552E7CFD9FF12000B5091
:10238000EE5E0C50ED5A040EDBCFE6FF24DEE55284
:10239000E76E040EE7CFDBFF1200FD0EDBCF0DF082
:1023A000FE0EDBCF0EF0020EDB500D240B6E030E83
:1023B000DB500E201200EECF0DF0EFCF0EF012002A
:1023C000040DF3CF0BF0F4CF0CF0000E0B26010E32
:1023D0000C22120054D8EE6AED6A1200020EEECF03
:1023E000DBFF030EEDCFDBFF120013DEF3CFDEFFCA
:1023F000F4CFDDFF1200EECF0BF0EFCF0CF01200A8
:10240000DECFE9FFDDCFEAFF120056D8080EEECF8F
:10241000DBFF090EEECFDBFF0A0EEECFDBFF0B0E6C
:10242000EECFDBFF45D8EECF0BF0EECF0CF0C3DFE5
:1024300043D80BC0EEFF0CC0EEFF0DC0EEFF0EC088
:10244000EEFF36D885EF11F033D8D5DF35D8B3DFBE
:102450000D500B5C0E500C581200020EDBCF0BF02F
:10246000030EDBCF0CF024D8BFEF11F0DBCFE6FF7B
:10247000BDDDE552E76E050EE7CFDBFF1200020E71
:10248000E926000EEA221200D950060FE96EDACFD3
:10249000EAFFEE50ED101200060EDBCFE9FF070E4B
:1024A000DBCFEAFF1200DECF0BF0DDCF0CF0120025
:1024B000040EDB506EEF11F0050EDB506EEF11F0E5
:1024C00038DBFBDAD3D235DBEE6AED6ACFD237DB0D
:1024D000F4DACCD234DBEE6AED6AC8D2D9CFE6FFAB
:1024E000E652E552C3D218DB090EE126DF6A060E7A
:1024F0000101855D01E2AED06D50020B01E0AAD072
:10250000010EDB68F36E060EF3CFDBFFDBCF0BF0C3
:1025100000016051D8800B5401E29CD0F8DAEF50F2
:10252000800B01E094D0010EDBCF0BF0F0DAEE521D
:10253000EF50D8800B5405E2EADAEE52010EEFCFED
:10254000DBFF060EDB50E824040DF3CFE9FFF4CFE8
:10255000EAFF000EE926040EEA22020EE926000E2A
:10256000EA22070EEECFDBFF080EEDCFDBFF070EF2
:10257000DBCFE9FF080EDBCFEAFFEF50F80BE842B4
:10258000E842E842E96EEA6AD890E936EA36C40ED3
:10259000E926000EEA22EECF0BF0EFCF0CF0010E91
:1025A000DB50FD0FE66E060EDB50E824040DF3CF82
:1025B000E9FFF4CFEAFF000EE926040EEA22020E3C
:1025C000E926000EEA22EECF0DF0EFCF0EF0030E5B
:1025D0000D26000E0E220DC0E6FF0EC0E6FF04D051
:1025E0000CC0FAFF0B50F96EFBDFE552E552E552E5
:1025F000060EDBCFE6FF1EDAE552E66E060EDB5076
:10260000E824040DF3CFE9FFF4CFEAFF000EE9263A
:10261000040EEA22EE52E552E750EF6E030EF36E1F
:10262000060EDBCFF4FFF350F45C0BE296DA6FDAC0
:10263000EF50400B400A01E0010E0B6E68DA27DA1A
:1026400001D08BDA880E0B6E62DA0B50EF12060E99
:10265000DB2A5CD7090EE15C02E2E16AE552E16E39
:1026600005D25ADA060EE126FE0EDB50F5D92CDA39
:10267000040EEECFDBFFD950010FE96EDACFEAFF8F
:10268000EF500F0BE76E050EE7CFDBFFFD0EDBCF44
:102690000BF00BC0E6FF22DAE552E7CF0BF0FD0F9F
:1026A000D8800B5406E21ADAFD0FE76EFD0EE7CF75
:1026B000DBFFFE0EDB5000011F0BF36EF346F3460B
:1026C000F346070EE415F310E46FE491E493E49508
:1026D00018DA3BDAE4C0EFFF46DA37DA010EE92612
:1026E000000EEA22E552E750EF6E0BDA2EDACAD975
:1026F000EF6A39DAEE52E552E750EF6E030EF36EF1
:10270000050E26DA0BE235DAFCD9EF50400B400A11
:1027100001E0010E0B6EF5D9BAD901D02ADA880E84
:102720000B6EEFD90B50EF12060EE15C02E2E16A8C
:10273000E552E16E9BD1D8D9100EDF5C10E21FDAB2
:10274000EF50200B0AE01BDAFE0EDBCFEFFF17DAAB
:10275000EF9AE7D9B2D9DF5003D0DF2AEDD7FF0EC9
:10276000E55284D1C1D9100EDF5C11E2DAD9EECF87
:102770000BF0EFCF0CF0FD0EDB500B1806E1FE0E58
:10278000DB500C1802E1010E03D0DF2AECD7000E5B
:10279000E5526CD1ADD9D3EC0AF0DE52F3CFDEFFB7
:1027A000F4CFDDFFDD52DF6A100EDF5C07E2E7D910
:1027B000EF8AB7D9EE6AED6ADF2AF6D7010EDBCFD2
:1027C00061F0020EDBCF62F0400EF66E080EF76E7F
:1027D0000800F5CF60F0030EE15C02E2E16AE55229
:1027E000E16E44D1D7DF9FEF06F05FD94BE2FE0EDA
:1027F0009BD948E1FE0EDB50040DF3CFE9FFF4CF87
:10280000EAFF610EE926000EEA22EF8AFE0EDB5097
:10281000040DF3CFE9FFF4CFEAFF610EE926000EC5
:10282000EA22020EE926000EEA22EECFE6FFEFCF03
:10283000E6FFC7EC09F0E552E552F3CFDEFFF4CF37
:10284000DDFFDECF0BF0DDCF0CF0FE0EDBCFE6FFC1
:1028500004D00CC0FAFF0B50F96EFBDFE552FE0E00
:10286000DB50040DF3CFE9FFF4CFEAFF610EE92658
:10287000000EEA22020EE926000EEA22EE6AED6A56
:10288000010E01D0000E0B6E020EE15C02E2E16A65
:10289000E552E16E0B50EAD008D92EE2FE0E44D983
:1028A0002BE1FE0EDB50040DF3CFE9FFF4CFEAFF7E
:1028B000610EE926000EEA22020EE926000EEA2247
:1028C000EECFE6FFEFCFE6FFD2EC09F0E552E5529E
:1028D000F3CFDEFFF4CFDDFFDECF0BF0DDCF0CF06A
:1028E000FE0EDBCFE6FF04D00CC0FAFF0B50F96EF2
:1028F000FBDFE552010E01D0000E0B6E020EE15C13
:1029000002E2E16AE552E16E0B50B0D0F1D8010E5F
:10291000F36E020EF3CFDBFF100EF36E020E18D92A
:102920004CE2020E01D946E1020EDB50040DF3CF5A
:10293000E9FFF4CFEAFF610EE926000EEA22EF8AF2
:10294000020EDB50040DF3CFE9FFF4CFEAFF610E76
:10295000E926000EEA22020EE926000EEA22EECF58
:10296000E6FFEFCFE6FFC7EC09F0E552E552F3CF03
:10297000DEFFF4CFDDFFDECF0BF0DDCF0CF0020E7B
:10298000DBCFE6FF04D00CC0FAFF0B50F96EFBDF83
:10299000E552020EDB50040DF3CFE9FFF4CFEAFF5E
:1029A000610EE926000EEA22020EE926000EEA2256
:1029B000EE6AED6A020EDB2AAFD7030EE15C02E29B
:1029C000E16AE552E16E52D0A7D8050EE126FE0E6F
:1029D000DB5042D8EECFDFFF77D8D9CFE9FFDACF8F
:1029E000EAFFEF500F0BE76E040EE7CFDBFFFE0EA2
:1029F000DB5007E1730E0B6E040E0BC0F3FFF46E99
:102A000012D0040EDB50E824010F1CD83BD8EECFC7
:102A10000BF0EFCF0CF0030E0B26000E0C220BC0B8
:102A2000F3FF0CC0F4FF050EE15C02E2E16AE5523F
:102A3000E16E1CD0D9CFE6FF400E18D0D9CFE6FF0B
:102A4000400E14D0040DF3CFE9FFF4CFEAFF000EDF
:102A5000E926040EEA221200040DF3CFE9FFF4CFB9
:102A6000EAFF610EE926000EEA221200E552E7CFE6
:102A7000D9FF120051D8FE0EEA6ADB34FE0BEA36AB
:102A8000E96E1200020EE926000EEA2212000B5037
:102A9000010BF36EF346F346F346F346F346F34673
:102AA000BF0EEF14F310EF6E120036D8020EE126BF
:102AB000100EF36EFE0EA8EF15F0FC0EDBCFEEFF4E
:102AC000FD0EDBCFEDFF1200010EEECFDBFF020E9D
:102AD000EECFDBFF030EEECFDBFF1200050EDBCFE8
:102AE000E6FFACDFE552120017D8E652DF6A1200AB
:102AF00013D8030EE1261200EE50EFCFEAFFE96E85
:102B00001200050EDB50E824010F22EF15F0060E2F
:102B1000DB50E82422EF15F0D9CFE6FFE1CFD9FF53
:102B200012002DD842EF15F0DB5096DFEF50200B4E
:102B30001200A0DFA40EE926000EEA2212009ADF9E
:102B4000C40EE926000EEA2212009CDF7CEF15F08D
:102B5000DBCFF4FFF350F45C1200400E0B6ED7DFB6
:102B60000B50EF161200FD0EDB50030FE66E81EFE7
:102B700015F0400E0B6EC5DF0B50EF161200DF5044
:042B80002CEF15F031
:0C2B8400000EF66E0D0EF76E000EF86EDF
:102B900001010900F5506D6F0900F5506E6F03E1FA
:102BA0006D6701D03DD00900F550686F0900F55000
:102BB000696F0900F5506A6F09000900F550E96E68
:102BC0000900F550EA6E090009000900F5506B6F25
:102BD0000900F5506C6F09000900F6CF6FF1F7CFCF
:102BE00070F1F8CF71F168C1F6FF69C1F7FF6AC1F2
:102BF000F8FF01016B5302E16C5307E00900F55047
:102C0000EE6E6B07F8E26C07F9D76FC1F6FF70C183
:102C1000F7FF71C1F8FF01016D07000E6E5BBFD7B2
:022C20001200A0
:0E2C2200FF0EE350146EEF0E01D0F30EE76EBE
:102C3000E72E18EF16F00C0E136EE76AE72E1EEF64
:102C400016F0132E1DEF16F0142E16EF16F01200CC
:102C5000FF0EE350146E480E01D04C0EE76EE72EC7
:102C6000FED7E76AE72EFED7142EF7D70000120032
:102C700013EE00F023EE00F0F86A0A9CC2EC15F0A7
:0C2C80004DEC16F0F0EC0AF0FBD712004F
:042C8C0000EE00F066
:0A2C90000F0EEE6AEA62FDD7120093
:022C9A00120026
:012C9C000A2D
:012C9D000036
:022C9E004040B4
:042CA0004040404030
:0C2CA40008080202040401010A0A0606E6
:102CB00005050909080A0206040501091027A00FE5
:022CC0006400AE
:022CC200000010
:103000008231D431CA316C6261636B001111CC32F0
:103010001033063362757A7A657200005236A6362E
:103020009C366C65644100010101223A723A683AAB
:103030006C65645200010101423D923D883D6C6522
:103040006456000101016240B240A840707565728B
:1030500074610000D4433C453245646973706C610F
:1030600079003A4D9A4D904D73656E736F72000002
:10307000984FBE51DA516D6F746F72546D002259C2
:0C3080005E596A59746573745430530033
:0E3182009BD8E652FE0EDBCF9EF1000EE66EED
:10319000320EE66E9EC1E6FF67EC12F0E552E55294
:1031A000E552CC0EE66E310EE66E44EC0AF0E552C6
:1031B000E552DF6E9EC1E6FFE4EC14F0E552F3CF7A
:1031C0009FF1F4CFA0F1E5527DD01200060E01016F
:1031D000855D120072D8FE0EDBCFE6FF63EC12F0C5
:1031E000E552FE0EDBCFE6FF6AEC12F0E552CC0EA4
:1031F000E66E310EE66E6AEC0AF0E552E55262D0F8
:103200005CD80B0EE126D950010FE96EDACFEAFF48
:103210004C0EEE6E420EEE6E410EEE6E430EEE6EF4
:103220004B0EEE6E200EEE6E3A0EEE6E290EEE6E28
:10323000EE6A0A0EDB6ADB6AFC0EDB50F36E0A0EE6
:10324000DBCFF4FFF350F45C1DE20A0EDB50E76EB7
:10325000FD0EDBCFE9FFFE0EDBCFEAFFE750E926EC
:10326000000EEA22EF50E66E0A0EDB500101EA6A18
:103270009F25E96EA051EA22E552E750EF6E0A0E53
:10328000DB2ADAD7FC0EDB50E76E0A0EE7CFDBFF56
:10329000DB500CE004010CBF09D00A0EDBCFE6FFC7
:1032A0009EC1E6FF31EC13F0E552E5520B0EE15CF6
:1032B00002E2E16AE552E16E05D0D9CFE6FFE1CF47
:1032C000D9FF1200E552E7CFD9FF1200B9D9E65273
:1032D000FE0EDBCF9BF1D80EE66E330EE66E9BC181
:1032E000E6FF67EC12F0E552E552E5529BC1E6FFBE
:1032F000E4EC14F0E552F3CF9CF1F4CF9DF1939AF6
:103300008A9AE552A2D11200060E0101855D1200D3
:1033100097D9FE0EDBCFE6FF63EC12F0E552FE0E0E
:10332000DBCFE6FF6AEC12F0E552080EE66E330ED4
:10333000E66E6AEC0AF0E552E55287D181D9020EB9
:10334000E126FE0EDB50090A29E0010A22E00F0AFD
:103350001BE0010A14E0030A10E0010A0CE0070A6E
:1033600008E0010A04E0030A1FE1320E1ED0640ED9
:103370001CD0960E1AD0C80E18D0FA0E16D0FA0E1F
:10338000DF6EDE52320E0ED0FA0EDF6EDE52640EAB
:1033900009D0FA0EDF6EDE52960E04D0FA0EDF6E02
:1033A000DE52C80EDD6E04D0320EDF6E010EDB6A17
:1033B0008A8ADFCFE6FF11EC16F0E552010EDBCF73
:1033C000E6FF11EC16F0E5528A9A020EE15C02E289
:1033D000E16AE552E16E39D1D9CFE6FFE1CFD9FFFD
:1033E0000C0EE126D950010FE96EDACFEAFF420E4A
:1033F000EE6E550EEE6E5A0EEE6E5A0EEE6E450ED7
:10340000EE6E520EEE6EEE6AEE6AEE6A0A0EDB6A3F
:10341000FD0EDBCFE9FFFE0EDBCFEAFFEF50050A22
:1034200001E1E6D0FA0A01E1E1D0FC0A01E1A0D015
:10343000010A71E0030A42E0010A01E0E7D0FD0E53
:10344000DBCFE9FFFE0EDBCFEAFFEF50E66E9CC15B
:10345000E9FF9DC1EAFFE552E750EF6EFD0EDBCFBD
:10346000E9FFFE0EDBCFEAFF010EE926000EEA229D
:10347000EF50E66E9CC1E9FF9DC1EAFF010EE9260F
:10348000000EEA22E552E750EF6E9CC1E9FF9DC1B4
:10349000EAFF020EE926000EEA22020EEF6E9CC140
:1034A000E9FF9DC1EAFF030EE926000EEA22EF6A5A
:1034B000040EF36E0A0EF3CFDBFFA9D0FD0EDBCFB7
:1034C000E9FFFE0EDBCFEAFFEF50E66E9CC1E9FF9D
:1034D0009DC1EAFFE552E750EF6EFD0EDBCFE9FF3D
:1034E000FE0EDBCFEAFF010EE926000EEA22EF50C6
:1034F000E66E9CC1E9FF9DC1EAFF010EE926000EC0
:10350000EA22E552E750EF6E8A8A020EF36E0A0E47
:10351000F3CFDBFF7CD0FD0EDBCFE9FFFE0EDBCF70
:10352000EAFFEF50E66E9CC1E9FF9DC1EAFFE5525C
:10353000E750EF6EFD0EDBCFE9FFFE0EDBCFEAFFBB
:10354000010EE926000EEA22EF50E66E9CC1E9FF6B
:103550009DC1EAFF010EE926000EEA22E552E7507E
:10356000EF6E8A9A020EF36E0A0EF3CFDBFF4FD096
:10357000FD0EDBCFE9FFFE0EDBCFEAFFEF50E66E7C
:103580009CC1E9FF9DC1EAFFE552E750EF6EFD0ED9
:10359000DBCFE9FFFE0EDBCFEAFF010EE926000ECE
:1035A000EA22EF50E66E9CC1E9FF9DC1EAFF010EE1
:1035B000E926000EEA22E552E750EF6EFD0EDBCF62
:1035C000E9FFFE0EDBCFEAFF020EE926000EEA223B
:1035D0000B0EEFCFDBFF0B0EDBCFE6FFAFDEE552CE
:1035E000020EF36E0A0EF3CFDBFF11D0FF000FD0F7
:1035F000090EE66ED950010FE66E000EDA20E66E77
:103600005CEC08F0E552E552E55201D000D00A0E1C
:10361000DB500CE004010CBF09D00A0EDBCFE6FF43
:103620009BC1E6FF31EC13F0E552E5520C0EE15C74
:1036300002E2E16AE552E16EE552E7CFD9FF1200FE
:10364000D9CFE6FFE1CFD9FF1200E552E7CFD9FF8E
:103650001200D9CFE6FFE1CFD9FFE652FE0EDBCF55
:1036600095F1FE0EE66E360EE66E95C1E6FF67EC4E
:1036700012F0E552E552E55295C1E6FFE4EC14F094
:10368000E552F3CF96F1F4CF97F1939C8A9C48ECE6
:1036900010F0E552E552E7CFD9FF12001200060EF6
:1036A0000101855D1200D9CFE6FFE1CFD9FFFE0E03
:1036B000DBCFE6FF63EC12F0E552FE0EDBCFE6FF58
:1036C0006AEC12F0E5529E0EE66E360EE66E6AEC7D
:1036D0000AF0E552E552E552E7CFD9FF12008A7CA5
:1036E000DE0EE66E360EE66ED00EE66E070EE66E67
:1036F000C7EC10F0E552E552E552E5521200D9CF81
:10370000E6FFE1CFD9FF0B0EE126D950010FE96E9C
:10371000DACFEAFF550EEE6E730EEE6E650EEE6EAC
:10372000720EEE6E200EEE6E530EEE6E6B0EEE6EA1
:10373000650EEE6E6C0EEE6E0A0EDB6AFD0EDBCFD2
:10374000E9FFFE0EDBCFEAFFEF50050A01E116D1DB
:10375000FA0A01E1E6D0FD0A01E1AED0030A01E177
:103760007ED0020A42E0030A01E041D1FD0EDBCF28
:10377000E9FFFE0EDBCFEAFFEF50E66E96C1E9FFF0
:1037800097C1EAFFE552E750EF6EFD0EDBCFE9FF90
:10379000FE0EDBCFEAFF010EE926000EEA22EF5013
:1037A000E66E96C1E9FF97C1EAFF010EE926000E19
:1037B000EA22E552E750EF6E96C1E9FF97C1EAFFB2
:1037C000020EE926000EEA22020EEF6E96C1E9FF14
:1037D00097C1EAFF030EE926000EEA22EF6A040E03
:1037E000F36E0A0EF3CFDBFF03D1FD0EDBCFE9FF53
:1037F000FE0EDBCFEAFFEF50E66E96C1E9FF97C100
:10380000EAFFE552E750EF6EFD0EDBCFE9FFFE0E5B
:10381000DBCFEAFF010EE926000EEA22EF50E66E4A
:1038200096C1E9FF97C1EAFF010EE926000EEA22E0
:10383000E552E750EF6EDE0EE66E360EE66ED00E07
:10384000E66E070EE66E63EC10F0E552E552E552C7
:10385000E552020EF36E0A0EF3CFDBFFC9D0FD0E68
:10386000DBCFE9FFFE0EDBCFEAFFEF50E66E96C13D
:10387000E9FF97C1EAFFE552E750EF6EFD0EDBCF9F
:10388000E9FFFE0EDBCFEAFF010EE926000EEA2279
:10389000EF50E66E96C1E9FF97C1EAFF010EE926F7
:1038A000000EEA22E552E750EF6E8A8C020EF36EAC
:1038B0000A0EF3CFDBFF9CD0FD0EDBCFE9FFFE0E3F
:1038C000DBCFEAFFEF50E66E96C1E9FF97C1EAFF52
:1038D000E552E750EF6EFD0EDBCFE9FFFE0EDBCFCA
:1038E000EAFF010EE926000EEA22EF50E66E96C1CD
:1038F000E9FF97C1EAFF010EE926000EEA22E55230
:10390000E750EF6E8A9CDE0EE66E360EE66EFBEC3E
:1039100010F0E552E552020EF36E0A0EF3CFDBFF14
:1039200067D0FD0EDBCFE9FFFE0EDBCFEAFFEF50E5
:10393000E66E96C1E9FF97C1EAFFE552E750EF6EE8
:10394000FD0EDBCFE9FFFE0EDBCFEAFF010EE9261D
:10395000000EEA22EF50E66E96C1E9FF97C1EAFF3A
:10396000010EE926000EEA22E552E750EF6EFF0055
:10397000020EF36E0A0EF3CFDBFF3AD0FD0EDBCF63
:10398000E9FFFE0EDBCFEAFFEF50E66E96C1E9FFDE
:1039900097C1EAFFE552E750EF6EFD0EDBCFE9FF7E
:1039A000FE0EDBCFEAFF010EE926000EEA22EF5001
:1039B000E66E96C1E9FF97C1EAFF010EE926000E07
:1039C000EA22E552E750EF6E090EE66ED950010F7C
:1039D000E66E000EDA20E66E5CEC08F0E552E55289
:1039E000E552020EF36E0A0EF3CFDBFF01D000D0DA
:1039F0000A0EDB500CE004010CBF09D00A0EDBCF2D
:103A0000E6FF95C1E6FF31EC13F0E552E5520B0EEF
:103A1000E15C02E2E16AE552E16EE552E7CFD9FFEF
:103A20001200D9CFE6FFE1CFD9FFE652FE0EDBCF81
:103A300092F1AA0EE66E3A0EE66E92C1E6FF67ECD0
:103A400012F0E552E552E55292C1E6FFE4EC14F0C3
:103A5000E552F3CF93F1F4CF94F193908A90E5522D
:103A6000E552E7CFD9FF12001200060E0101855D75
:103A70001200D9CFE6FFE1CFD9FFFE0EDBCFE6FF84
:103A800063EC12F0E552FE0EDBCFE6FF6AEC12F0BB
:103A9000E5526A0EE66E3A0EE66E6AEC0AF0E55200
:103AA000E552E552E7CFD9FF1200D9CFE6FFE1CFCB
:103AB000D9FF0B0EE126D950010FE96EDACFEAFFEC
:103AC000550EEE6E730EEE6E650EEE6E720EEE6EAF
:103AD000200EEE6E530EEE6E6B0EEE6E650EEE6EFB
:103AE0006C0EEE6E0A0EDB6AFD0EDBCFE9FFFE0EFA
:103AF000DBCFEAFFEF50050A01E1D0D0FA0A01E17D
:103B0000A0D0FD0A71E0030A42E0010A01E0FFD003
:103B1000FD0EDBCFE9FFFE0EDBCFEAFFEF50E66ED6
:103B200093C1E9FF94C1EAFFE552E750EF6EFD0E45
:103B3000DBCFE9FFFE0EDBCFEAFF010EE926000E28
:103B4000EA22EF50E66E93C1E9FF94C1EAFF010E4D
:103B5000E926000EEA22E552E750EF6E93C1E9FF35
:103B600094C1EAFF020EE926000EEA22020EEF6E71
:103B700093C1E9FF94C1EAFF030EE926000EEA2291
:103B8000EF6A040EF36E0A0EF3CFDBFFC1D0FD0E19
:103B9000DBCFE9FFFE0EDBCFEAFFEF50E66E93C10D
:103BA000E9FF94C1EAFFE552E750EF6EFD0EDBCF6F
:103BB000E9FFFE0EDBCFEAFF010EE926000EEA2246
:103BC000EF50E66E93C1E9FF94C1EAFF010EE926CA
:103BD000000EEA22E552E750EF6E8A80020EF36E85
:103BE0000A0EF3CFDBFF94D0FD0EDBCFE9FFFE0E14
:103BF000DBCFEAFFEF50E66E93C1E9FF94C1EAFF25
:103C0000E552E750EF6EFD0EDBCFE9FFFE0EDBCF96
:103C1000EAFF010EE926000EEA22EF50E66E93C19C
:103C2000E9FF94C1EAFF010EE926000EEA22E552FF
:103C3000E750EF6E8A90020EF36E0A0EF3CFDBFFB1
:103C400067D0FD0EDBCFE9FFFE0EDBCFEAFFEF50C2
:103C5000E66E93C1E9FF94C1EAFFE552E750EF6ECB
:103C6000FD0EDBCFE9FFFE0EDBCFEAFF010EE926FA
:103C7000000EEA22EF50E66E93C1E9FF94C1EAFF1D
:103C8000010EE926000EEA22E552E750EF6EFF0032
:103C9000020EF36E0A0EF3CFDBFF3AD0FD0EDBCF40
:103CA000E9FFFE0EDBCFEAFFEF50E66E93C1E9FFBE
:103CB00094C1EAFFE552E750EF6EFD0EDBCFE9FF5E
:103CC000FE0EDBCFEAFF010EE926000EEA22EF50DE
:103CD000E66E93C1E9FF94C1EAFF010EE926000EEA
:103CE000EA22E552E750EF6E090EE66ED950010F59
:103CF000E66E000EDA20E66E5CEC08F0E552E55266
:103D0000E552020EF36E0A0EF3CFDBFF01D000D0B6
:103D10000A0EDB500CE004010CBF09D00A0EDBCF09
:103D2000E6FF92C1E6FF31EC13F0E552E5520B0ECF
:103D3000E15C02E2E16AE552E16EE552E7CFD9FFCC
:103D40001200D9CFE6FFE1CFD9FFE652FE0EDBCF5E
:103D50008FF1CA0EE66E3D0EE66E8FC1E6FF67EC90
:103D600012F0E552E552E5528FC1E6FFE4EC14F0A3
:103D7000E552F3CF90F1F4CF91F193928A92E5520C
:103D8000E552E7CFD9FF12001200060E0101855D52
:103D90001200D9CFE6FFE1CFD9FFFE0EDBCFE6FF61
:103DA00063EC12F0E552FE0EDBCFE6FF6AEC12F098
:103DB000E5528A0EE66E3D0EE66E6AEC0AF0E552BA
:103DC000E552E552E7CFD9FF1200D9CFE6FFE1CFA8
:103DD000D9FF0B0EE126D950010FE96EDACFEAFFC9
:103DE0004C0EEE6E440EEE6E560EEE6E200EEE6E25
:103DF000690EEE6E730EEE6E200EEE6E6F0EEE6EB0
:103E00006E0EEE6E0A0EDB6AFD0EDBCFE9FFFE0ED4
:103E1000DBCFEAFFEF50050A01E1D0D0FA0A01E159
:103E2000A0D0FD0A71E0030A42E0010A01E0FFD0E0
:103E3000FD0EDBCFE9FFFE0EDBCFEAFFEF50E66EB3
:103E400090C1E9FF91C1EAFFE552E750EF6EFD0E28
:103E5000DBCFE9FFFE0EDBCFEAFF010EE926000E05
:103E6000EA22EF50E66E90C1E9FF91C1EAFF010E30
:103E7000E926000EEA22E552E750EF6E90C1E9FF15
:103E800091C1EAFF020EE926000EEA22020EEF6E51
:103E900090C1E9FF91C1EAFF030EE926000EEA2274
:103EA000EF6A040EF36E0A0EF3CFDBFFC1D0FD0EF6
:103EB000DBCFE9FFFE0EDBCFEAFFEF50E66E90C1ED
:103EC000E9FF91C1EAFFE552E750EF6EFD0EDBCF4F
:103ED000E9FFFE0EDBCFEAFF010EE926000EEA2223
:103EE000EF50E66E90C1E9FF91C1EAFF010EE926AD
:103EF000000EEA22E552E750EF6E8A82020EF36E60
:103F00000A0EF3CFDBFF94D0FD0EDBCFE9FFFE0EF0
:103F1000DBCFEAFFEF50E66E90C1E9FF91C1EAFF07
:103F2000E552E750EF6EFD0EDBCFE9FFFE0EDBCF73
:103F3000EAFF010EE926000EEA22EF50E66E90C17C
:103F4000E9FF91C1EAFF010EE926000EEA22E552DF
:103F5000E750EF6E8A92020EF36E0A0EF3CFDBFF8C
:103F600067D0FD0EDBCFE9FFFE0EDBCFEAFFEF509F
:103F7000E66E90C1E9FF91C1EAFFE552E750EF6EAE
:103F8000FD0EDBCFE9FFFE0EDBCFEAFF010EE926D7
:103F9000000EEA22EF50E66E90C1E9FF91C1EAFF00
:103FA000010EE926000EEA22E552E750EF6EFF000F
:103FB000020EF36E0A0EF3CFDBFF3AD0FD0EDBCF1D
:103FC000E9FFFE0EDBCFEAFFEF50E66E90C1E9FF9E
:103FD00091C1EAFFE552E750EF6EFD0EDBCFE9FF3E
:103FE000FE0EDBCFEAFF010EE926000EEA22EF50BB
:103FF000E66E90C1E9FF91C1EAFF010EE926000ECD
:10400000EA22E552E750EF6E090EE66ED950010F35
:10401000E66E000EDA20E66E5CEC08F0E552E55242
:10402000E552020EF36E0A0EF3CFDBFF01D000D093
:104030000A0EDB500CE004010CBF09D00A0EDBCFE6
:10404000E6FF8FC1E6FF31EC13F0E552E5520B0EAF
:10405000E15C02E2E16AE552E16EE552E7CFD9FFA9
:104060001200D9CFE6FFE1CFD9FFE652FE0EDBCF3B
:104070008CF1EA0EE66E400EE66E8CC1E6FF67EC50
:1040800012F0E552E552E5528CC1E6FFE4EC14F083
:10409000E552F3CF8DF1F4CF8EF1939E8A9EE552D7
:1040A000E552E7CFD9FF12001200060E0101855D2F
:1040B0001200D9CFE6FFE1CFD9FFFE0EDBCFE6FF3E
:1040C00063EC12F0E552FE0EDBCFE6FF6AEC12F075
:1040D000E552AA0EE66E400EE66E6AEC0AF0E55274
:1040E000E552E552E7CFD9FF1200D9CFE6FFE1CF85
:1040F000D9FF0B0EE126D950010FE96EDACFEAFFA6
:10410000700EEE6E750EEE6E650EEE6E720EEE6E4B
:10411000740EEE6E610EEE6EEE6AEE6AEE6A0A0ED6
:10412000DB6AFD0EDBCFE9FFFE0EDBCFEAFFEF50CF
:10413000050A52E0FA0A4EE0FE0A42E0010A01E0F6
:1041400059D0FD0EDBCFE9FFFE0EDBCFEAFFEF50CB
:10415000E66E8DC1E9FF8EC1EAFFE552E750EF6ED2
:10416000FD0EDBCFE9FFFE0EDBCFEAFF010EE926F5
:10417000000EEA22EF50E66E8DC1E9FF8EC1EAFF24
:10418000010EE926000EEA22E552E750EF6E8DC1DE
:10419000E9FF8EC1EAFF020EE926000EEA22020EB6
:1041A000EF6E8DC1E9FF8EC1EAFF030EE926000E16
:1041B000EA22EF6A040EF36E0A0EF3CFDBFF1BD088
:1041C0008A8E960EE66E11EC16F0E5528A9E0A0E65
:1041D000DB6A11D0FF000FD0090EE66ED950010F37
:1041E000E66E000EDA20E66E5CEC08F0E552E55271
:1041F000E55201D000D00A0EDB500CE004010CBFE8
:1042000009D00A0EDBCFE6FF8CC1E6FF31EC13F0DC
:10421000E552E5520B0EE15C02E2E16AE552E16E25
:10422000E552E7CFD9FF12000000000000000000B7
:10423000000000000000000000000000000000007E
:1042400000000000000000000000000012001E0E30
:1042500078EF26F00A0E78EF26F08C8C8C9A86EC9C
:1042600026F083A603D04DEC26F0010C4DEC26F091
:10427000000C38EC26F052EC26F08C9C8C9A2BEF3C
:1042800026F038EC26F0F00E95168316FE0EDB5065
:104290008009E8380F0B0F0B83128C9C8C9A2BEF44
:1042A00026F038EC26F0F00E83160F0E9512959C32
:1042B000959A95988C9C8C9A8C98C9DFF00E9516DF
:1042C00042EC26F0C7DFF00E42EC26F0C3DFF00E22
:1042D00042EC26F00F0E951249EC26F0FDE171EC50
:1042E00026F049EC26F0FDE1080E64EC26F049ECDE
:1042F00026F0FDE10C0E64EC26F049EC26F0FDE121
:10430000010E64EC26F049EC26F0FDE1130E64EC9E
:1043100026F049EC26F0FDE1E66AB3DFE55282EFD4
:1043200026F038EC26F052EC26F08C8A8C9C2BEF91
:1043300026F038EC26F069EC26F00EE049EC26F089
:10434000FDE169EC26F0E66EECDFE552FD0EDB2ABE
:10435000FE0EF1E3DB2AEFD782EF26F038EC26F0F1
:1043600049EC26F0FDE171EC26F082EF26F06FDFDC
:10437000030E26EC26F0080E78EC26F08BEC26F0E7
:104380008BEC26F0020E26EC26F0020E26EC26F030
:10439000280E26EC26F0280E26EC26F0080E26EC39
:1043A00026F0080E26EC26F0010E26EC26F0010E73
:1043B00093EC26F093EC26F026EC26F00C0E26EC7F
:1043C00026F00C0E26EC26F0800E26EC26F0800E51
:1043D00026EF26F038EC26F0230EE126FE0EDBCF8A
:1043E00098F15E0EE66E450EE66E98C1E6FF67EC4C
:1043F00012F0E552E552E55298C1E6FFE4EC14F004
:10440000E552F3CF99F1F4CF9AF10101A45106E1FD
:10441000010EA46F956A93948A9484D098EC26F048
:10442000DE52490EDD6E4D0EF36E020EF3CFDBFF52
:104430004D0EF36E030E3DEC26F0040EF3CFDBFFC2
:10444000450EF36E050EF3CFDBFF6C0EF36E060E1A
:10445000F3CFDBFF650EF36E070EF3CFDBFF630ECA
:10446000F36E080EF3CFDBFF740EF36E090EF3CF7D
:10447000DBFF720EF36E0A0EF3CFDBFF6F0EF36EEF
:104480000B0EF3CFDBFF6E0EF36E0C0EF3CFDBFFE4
:10449000690EF36E0D0EF3CFDBFF630EF36E0E0E9F
:1044A000F3CFDBFF610EF36E0F0EF3CFDBFF100EC9
:1044B000DB6AD950010F5BEC26F0440EF36E120E4E
:1044C0007DEC26F0130EF3CFDBFF530EF36E140ECC
:1044D000F3CFDBFF500EF36E150ECFDB160E7DEC27
:1044E00026F0170EF3CFDBFF4E0EF36E180E7DECA9
:1044F00026F0190EF3CFDBFF540EF36E1A0EBDDB60
:104500001B0EBBDB1C0EB9DB1D0EB7DB1E0EB5DBB5
:104510001F0EF3CFDBFF200EDB6AC00E97DBD950F6
:10452000120FC9DB230EE15C02E2E16AE552E16EA3
:10453000E9D31200060E0101855D120099DBFE0E23
:10454000DBCFE6FF63EC12F0E552FE0EDBCFE6FFB9
:104550006AEC12F0E552ECDB080E78DBD3D3D9CF4E
:10456000E6FFE1CFD9FF2F0EE126D950010FE96E0A
:10457000DACFEAFF440EEE6E690EEE6E730EEE6E4B
:10458000700EEE6E6C0EEE6E610EEE6E790EEE6ECD
:10459000EE6AEE6A2C0EDB6A2D0EDB6A2E0EDB6AEB
:1045A000FD0EDBCFE9FFFE0EDBCFEAFFEF50050A81
:1045B00001E125D3FA0A01E120D3F60A01E1EED2A6
:1045C000010A01E1BDD20C0A01E18DD2070A01E125
:1045D00055D2010A01E172D1030A43E0010A01E068
:1045E0001CD3C5DEFD0EDBCFE9FFFE0EDBCFEAFFFD
:1045F000EF50E66E99C1E9FF9AC1EAFFE552E75034
:10460000EF6EFD0EDBCFE9FFFE0EDBCFEAFF010E02
:10461000E926000EEA22EF50E66E99C1E9FF9AC141
:10462000EAFF010EE926000EEA22E552E750EF6E9E
:1046300099C1E9FF9AC1EAFF020EE926000EEA22BB
:10464000040EEF6E99C1E9FF9AC1EAFF030EE92655
:10465000000EEA22EF6A040EF36E2E0EF3CFDBFF9C
:10466000DCD285DEFD0EDBCFE9FFFE0EDBCFEAFFFD
:10467000EF50E66E99C1E9FF9AC1EAFFE552E750B3
:10468000EF6EFD0EDBCFE9FFFE0EDBCFEAFF010E82
:10469000E926000EEA22EF50E66E99C1E9FF9AC1C1
:1046A000EAFF010EE926000EEA22E552E750EF6E1E
:1046B000010EF36E2C0EF3CFDBFF2D0EDB6A2C0EFA
:1046C000DBCF0BF02D0EDBCF0CF0D8900C5004E6B6
:1046D000210E0B5C000E0C5801E3C8D02C0EDBCF72
:1046E0000BF02D0EDBCF0CF0D8900C5004E6110E21
:1046F0000B5C000E0C5859E2FD0EDBCFE9FFFE0EFD
:10470000DBCFEAFFE9CF0FF0EACF10F02C0EDB5041
:104710000F24E96E2D0EDB501020EA6EEF50E66E8E
:10472000D9500A0F0B6EDACF0CF02C0EDBCF0DF048
:104730002D0EDBCF0EF00D06000E0E5A0B500D2481
:10474000E96E0C500E20EA6EE552E750EF6ED9503C
:104750000A0F0B6EDACF0CF02C0EDBCF0DF02D0E06
:10476000DBCF0EF00D06000E0E5A0B500D24E96E35
:104770000C500E20EA6EEF505F0816E1D9500A0F78
:104780000B6EDACF0CF02C0EDBCF0DF02D0EDBCF45
:104790000EF00D06000E0E5A0B500D24E96E0C5053
:1047A0000E20EA6E200EEF6E5BD0FD0EDBCFE9FF30
:1047B000FE0EDBCFEAFFE9CF0FF0EACF10F02C0EB0
:1047C000DB500F24E96E2D0EDB501020EA6EEF5007
:1047D000E66ED9501B0F0B6EDACF0CF02C0EDBCF30
:1047E0000DF02D0EDBCF0EF0110E0D5E000E0E5AE9
:1047F0000B500D24E96E0C500E20EA6EE552E75086
:10480000EF6ED9501B0F0B6EDACF0CF02C0EDBCFF6
:104810000DF02D0EDBCF0EF0110E0D5E000E0E5AB8
:104820000B500D24E96E0C500E20EA6EEF505F081D
:1048300017E1D9501B0F0B6EDACF0CF02C0EDBCF2B
:104840000DF02D0EDBCF0EF0110E0D5E000E0E5A88
:104850000B500D24E96E0C500E20EA6E200EEF6E08
:104860002C0EDB2A2D0E01E3DB2A29D7010EE66E82
:1048700075DDE552800EE66E71DDE552020EE66EE4
:104880006DDDE552D9500A0FE66E000EDA20E66EB5
:1048900050DDE552E552C00EE66E60DDE552D950BE
:1048A0001B0FE66E000EDA20E66E43DDE552E552A0
:1048B000020EF36E2E0EF3CFDBFFAFD158DD010EEB
:1048C000E66E4CDDE552020EE66E48DDE552FD0E69
:1048D000DBCFE9FFFE0EDBCFEAFFEF50E66E99C1BA
:1048E000E9FF9AC1EAFFE552E750EF6EFD0EDBCF1C
:1048F000E9FFFE0EDBCFEAFF010EE926000EEA22F9
:10490000EF50E66E99C1E9FF9AC1EAFF010EE92670
:10491000000EEA22E552E750EF6E490EF36E0A0EE2
:10492000F3CFDBFF4D0EF36E0B0EF3CFDBFF4D0E1F
:10493000F36E0C0EF3CFDBFF200EF36E0D0EF3CFF4
:10494000DBFF450EF36E0E0EF3CFDBFF6C0EF36E46
:104950000F0EF3CFDBFF650EF36E100EF3CFDBFF10
:10496000630EF36E110EF3CFDBFF740EF36E120EB7
:10497000F3CFDBFF720EF36E130EF3CFDBFF6F0E80
:10498000F36E140EF3CFDBFF6E0EF36E150EF3CF46
:10499000DBFF690EF36E160EF3CFDBFF630EF36ED3
:1049A000170EF3CFDBFF610EF36E180EF3CFDBFFB4
:1049B000190EDB6AD9500A0FE66E000EDA20E66E99
:1049C000B8DCE552E552410EF36E1B0EF3CFDBFF70
:1049D0002E0EF36E1C0EF3CFDBFF460EF36E1D0E94
:1049E000F3CFDBFF2E0EF36E1E0EF3CFDBFF450E73
:1049F000F36E1F0EF3CFDBFF2E0EF36E200EF3CF00
:104A0000DBFF200EF36E210EF3CFDBFF200EF36EE3
:104A1000220EF3CFDBFF200EF36E230EF3CFDBFF6E
:104A2000200EF36E240EF3CFDBFF200EF36E250E67
:104A3000F3CFDBFF200EF36E260EF3CFDBFF200E4D
:104A4000F36E270EF3CFDBFF200EF36E280EF3CFAD
:104A5000DBFF290EDB6AC00EE66E80DCE552D95022
:104A60001B0FE66E000EDA20E66E63DCE552E552BF
:104A7000020EF36E2E0EF3CFDBFFCFD078DC010EEB
:104A8000E66E6CDCE552020EE66E68DCE552FD0E69
:104A9000DBCFE9FFFE0EDBCFEAFFEF50E66E99C1F8
:104AA000E9FF9AC1EAFFE552E750EF6EFD0EDBCF5A
:104AB000E9FFFE0EDBCFEAFF010EE926000EEA2237
:104AC000EF50E66E99C1E9FF9AC1EAFF010EE926AF
:104AD000000EEA22E552E750EF6E020EF36E2E0E44
:104AE000F3CFDBFF9AD043DCFD0EDBCFE9FFFE0EF8
:104AF000DBCFEAFFEF50E66E99C1E9FF9AC1EAFF0A
:104B0000E552E750EF6EFD0EDBCFE9FFFE0EDBCF87
:104B1000EAFF010EE926000EEA22EF50E66E99C187
:104B2000E9FF9AC1EAFF010EE926000EEA22E552EA
:104B3000E750EF6E020EF36E2E0EF3CFDBFF6DD05B
:104B400016DC8A84FD0EDBCFE9FFFE0EDBCFEAFF29
:104B5000EF50E66E99C1E9FF9AC1EAFFE552E750CE
:104B6000EF6EFD0EDBCFE9FFFE0EDBCFEAFF010E9D
:104B7000E926000EEA22EF50E66E99C1E9FF9AC1DC
:104B8000EAFF010EE926000EEA22E552E750EF6E39
:104B9000020EF36E2E0EF3CFDBFF3FD0B7EC21F009
:104BA0008A94FD0EDBCFE9FFFE0EDBCFEAFFEF506C
:104BB000E66E99C1E9FF9AC1EAFFE552E750EF6E50
:104BC000FD0EDBCFE9FFFE0EDBCFEAFF010EE9268B
:104BD000000EEA22EF50E66E99C1E9FF9AC1EAFFA2
:104BE000010EE926000EEA22E552E750EF6E020EB2
:104BF000F36E2E0EF3CFDBFF10D0FF000ED0090EA8
:104C0000E66ED950010FE66E000EDA20E66E5CEC1F
:104C100008F0E552E552E55200D02E0EDB500CE0D4
:104C200004010CBF09D02E0EDBCFE6FF98C1E6FFD2
:104C300031EC13F0E552E5522F0EE15C02E2E16A3D
:104C4000E552E16EE552E7CFD9FF1200E66EAEEC19
:104C500021F0E55212005AD88C98F00E8316FE0E01
:104C6000DB500F0B831252D88C980F0E95124AD03E
:104C7000D9CFE6FFE1CFD9FF1200F3CFDBFF200E43
:104C8000F36E1200831683828C8814EC21F08C98CA
:104C900012002DEC21F0000912008C9837D88C9866
:104CA0008C9C1200F00E95168316FE0EDB380F0B4F
:104CB0000F0B83121200E66E000EDA20E66E99ECFE
:104CC00021F0E552E5521200E66E39EC21F0E55292
:104CD0001200FD0EDBCFE9FFFE0EDBCFEAFFEF5047
:104CE0001200FE0EDBCFE6FF39EC21F0E552120098
:104CF000E66E11EC16F0E5521200F3CFDBFF490E21
:104D0000F36E1200E552E7CFD9FF120014EC21F048
:104D10008C8814EF21F0020EE66E28EC16F0E552B6
:104D2000030E26EF26F092DF060E90DF060E12002D
:104D3000010E8CDF020E26EF26F0D9CFE6FFE1CF81
:104D4000D9FFE652FE0EDBCF89F1D20EE66E4D0E94
:104D5000E66E89C1E6FF67EC12F0E552E552E552D6
:104D600089C1E6FFE4EC14F0E552F3CF8AF1F4CF09
:104D70008BF19280010EC26E3C0EC06EC08EE55269
:104D8000E552E7CFD9FF1200C282C2B2FED71200AD
:104D90001200060E0101855D1200D9CFE6FFE1CFBA
:104DA000D9FFFE0EDBCFE6FF63EC12F0E552FE0EFC
:104DB000DBCFE6FF6AEC12F0E552920EE66E4D0E86
:104DC000E66E6AEC0AF0E552E552E552E7CFD9FF0C
:104DD0001200D9CFE6FFE1CFD9FF0B0EE126D95063
:104DE000010FE96EDACFEAFF550EEE6E730EEE6E2E
:104DF000650EEE6E720EEE6E200EEE6E530EEE6EC1
:104E00006B0EEE6E650EEE6E6C0EEE6E0A0EDB6ACB
:104E1000FD0EDBCFE9FFFE0EDBCFEAFFEF50050A08
:104E200072E0FA0A6EE0FE0A42E0010A01E079D07F
:104E3000FD0EDBCFE9FFFE0EDBCFEAFFEF50E66EA3
:104E40008AC1E9FF8BC1EAFFE552E750EF6EFD0E24
:104E5000DBCFE9FFFE0EDBCFEAFF010EE926000EF5
:104E6000EA22EF50E66E8AC1E9FF8BC1EAFF010E2C
:104E7000E926000EEA22E552E750EF6E8AC1E9FF0B
:104E80008BC1EAFF020EE926000EEA220D0EEF6E3C
:104E90008AC1E9FF8BC1EAFF030EE926000EEA2270
:104EA000EF6A040EF36E0A0EF3CFDBFF3BD06CDF2C
:104EB000FD0EDBCFE9FFFE0EDBCFEAFFEF50E66E23
:104EC0008AC1E9FF8BC1EAFFE552E750EF6E8AC164
:104ED000E9FF8BC1EAFF010EE926000EEA22C3CFEB
:104EE000EFFF8AC1E9FF8BC1EAFF020EE926000E3F
:104EF000EA22C4CFEFFF030EF36E0A0EF3CFDBFFFF
:104F000011D0FF000FD0090EE66ED950010FE66EEA
:104F1000000EDA20E66E5CEC08F0E552E552E55250
:104F200001D000D00A0EDB500CE004010CBF09D008
:104F30000A0EDBCFE6FF89C1E6FF31EC13F0E55244
:104F4000E5520B0EE15C02E2E16AE552E16EE552E8
:104F5000E7CFD9FF12000001010EE56FE66BE76FA6
:104F6000E86FE96FEA6BEB6B40C1EEF041C1EFF027
:104F700040C1ECF041C1EDF0F06FF16BF26FF36FF7
:104F8000E96FF56BF66B40C1F9F041C1FAF040C131
:104F9000F7F041C1F8F012001EEC2CF0FE0EDBCF52
:104FA000FBF0FBC0E6FFE4EC14F0E552F3CFFCF0BD
:104FB000F4CFFDF0DC0EE66E510EE66EFBC0E6FFB0
:104FC00067EC12F0E552E552E552C5DF43EC2CF0F8
:104FD00063EC10F0E552E55223EC2CF063EC10F09A
:104FE000E552E5522EEC2CF063EC10F019EF2CF0AA
:104FF0001EEC2CF074EC2CF0EE520B50EF260EEC65
:105000002CF0EF5004E00EEC2CF0EF0405E174EC12
:105010002CF0EE520B50EF260EEC2CF0EE52EFCFB0
:105020000BF0080EE76E0B18E8AE02D0E73402D0A2
:10503000E7500B5C05E30EEC2CF0EE52EF6A0BD060
:105040000EEC2CF0EE52EFCF0BF00B3404E3E6DB6A
:10505000EE52070EEF6E79EC2CF0D880EE54000E75
:10506000ED540CE279EC2CF0EE06EF5A79EC2CF0D2
:10507000EE50ED1003E18DEC2CF0EF6A7DEF2CF09B
:10508000DDDB74EC2CF085EC2CF00B5C2CE16BEC94
:105090002CF04CEC2CF00BE281EC2CF0EE26455180
:1050A000ED226BEC2CF055EC2CF032E20ED06BECD8
:1050B0002CF055EC2CF02CE281EC2CF0EE5E4551FE
:1050C000ED5A6BEC2CF0E8DB23E2A8DB090EADDB3C
:1050D000EECF0BF0EFCF0CF089EC2CF00BC0EEFF15
:1050E0000CC0EDFF15D074EC2CF085EC2CF00B5CB3
:1050F0000FE089EC2CF040C1EEFF41C1EDFF8EDBEB
:1051000085EC2CF0E66E8DEC2CF0E552E750EF6E5E
:105110007DEF2CF093DBE652F00E8314DF6E00017E
:10512000E7050BE1E551A5DBE6C00DF00E6A0DBE0B
:105130000E68CADBEF50DF1001D0DF50836EE50E42
:10514000E66E000EE66E54DFE552E5529CDBC7ECDE
:1051500010F0E5526ED372DBE6520F0E8314DF6E51
:105160000001F2050CE1F05184DBF1C00DF00E6A94
:105170000DBE0E68A9DBEF38F00BDF1001D0DF5059
:10518000836EF00EE66E000EE66E32DF5CDBC7EC7F
:1051900010F0E5524ED3E50EE66E000EE66E70DFBF
:1051A000E552E552F00EE66E000EE66E69DF56DB64
:1051B000C7EC10F0E552E552E552E55212003EDB35
:1051C000140EE66E510E7ADB560EE66E510E76DB4D
:1051D000960EE66E510E72DB90D31200D9CFE6FF29
:1051E000E1CFD9FF0A0EE126D9CFE9FFDACFEAFFF6
:1051F000730EEE6E740EEE6E650EEE6E700EEE6E4B
:105200006D0EEE6E6F0EEE6E740EEE6E730EEE6E33
:10521000EE6A090EDB6AFD0EDBCFE9FFFE0EDBCF87
:10522000EAFFEF50050A01E1D3D2FA0A01E1CED23A
:10523000E80A01E197D2010A01E160D2030A01E123
:1052400029D2060A01E1FDD1140A01E1D1D1150AE2
:1052500001E1ADD1140A01E189D1170A01E165D15B
:10526000150A01E141D1140A01E10AD1130A01E151
:10527000D3D00A0A01E19CD00B0A66E0030A43E09E
:10528000010A01E0B1D2FD0EDBCFE9FFFE0EDBCF5C
:10529000EAFFEF50E66EFCC0E9FFFDC0EAFFE55211
:1052A000E750EF6EFD0EDBCFE9FFFE0EDBCFEAFF2E
:1052B000010EE926000EEA22EF50E66EFCC0E9FF7F
:1052C000FDC0EAFF010EE926000EEA22E552E75092
:1052D000EF6EFCC0E9FFFDC0EAFF020EE926000EFA
:1052E000EA22010EEF6EFCC0E9FFFDC0EAFF030EEB
:1052F000E926000EEA22010EEF6E040EF36E090E8F
:10530000F3CFDBFF72D2FD0EDBCFE9FFFE0EDBCF6A
:10531000EAFFEF50E66EFCC0E9FFFDC0EAFFE55290
:10532000E750EF6EFD0EDBCFE9FFFE0EDBCFEAFFAD
:10533000010EE926000EEA22EF50D56E010EF36E43
:10534000090EF3CFDBFF51D2FD0EDBCFE9FFFE0EDE
:10535000DBCFEAFFEF50E66EFCC0E9FFFDC0EAFFDD
:10536000E552E750EF6EFD0EDBCFE9FFFE0EDBCF1F
:10537000EAFF010EE926000EEA22EFCF0BF00BC088
:105380000CF00B6AFD0EDBCFE9FFFE0EDBCFEAFF70
:10539000020EE926000EEA22EF5000010B10EE6F1C
:1053A0000CC0EFF0010EF36E090EF3CFDBFF1DD240
:1053B000FD0EDBCFE9FFFE0EDBCFEAFFEF50E66E1E
:1053C000FCC0E9FFFDC0EAFFE552E750EF6EFD0EBD
:1053D000DBCFE9FFFE0EDBCFEAFF010EE926000E70
:1053E000EA22EFCF0BF00BC00CF00B6AFD0EDBCF07
:1053F000E9FFFE0EDBCFEAFF020EE926000EEA22ED
:10540000EF5000010B10F96F0CC0FAF0010EF36EB3
:10541000090EF3CFDBFFE9D1FD0EDBCFE9FFFE0E76
:10542000DBCFEAFFEF50E66EFCC0E9FFFDC0EAFF0C
:10543000E552E750EF6EFD0EDBCFE9FFFE0EDBCF4E
:10544000EAFF010EE926000EEA22EFCF0BF00BC0B7
:105450000CF00B6AFD0EDBCFE9FFFE0EDBCFEAFF9F
:10546000020EE926000EEA22EF5000010B10EA6F4F
:105470000CC0EBF0010EF36E090EF3CFDBFFB5D1DC
:10548000FD0EDBCFE9FFFE0EDBCFEAFFEF50E66E4D
:10549000FCC0E9FFFDC0EAFFE552E750EF6EFD0EEC
:1054A000DBCFE9FFFE0EDBCFEAFF010EE926000E9F
:1054B000EA22EFCF0BF00BC00CF00B6AFD0EDBCF36
:1054C000E9FFFE0EDBCFEAFF020EE926000EEA221C
:1054D000EF5000010B10F56F0CC0F6F0010EF36EEB
:1054E000090EF3CFDBFF81D1FD0EDBCFE9FFFE0E0E
:1054F000DBCFEAFFEF50E66EFCC0E9FFFDC0EAFF3C
:10550000E552E750EF6EFD0EDBCFE9FFFE0EDBCF7D
:10551000EAFF010EE926000EEA22EFCFE5F0010EC8
:10552000F36E090EF3CFDBFF60D1FD0EDBCFE9FF99
:10553000FE0EDBCFEAFFEF50E66EFCC0E9FFFDC0D8
:10554000EAFFE552E750EF6EFD0EDBCFE9FFFE0EFE
:10555000DBCFEAFF010EE926000EEA22EFCFF0F0E2
:10556000010EF36E090EF3CFDBFF3FD1FD0EDBCF53
:10557000E9FFFE0EDBCFEAFFEF50E66EFCC0E9FF6D
:10558000FDC0EAFFE552E750EF6EFD0EDBCFE9FF0D
:10559000FE0EDBCFEAFF010EE926000EEA22EFCF76
:1055A000E7F0010EF36E090EF3CFDBFF1ED1FD0E07
:1055B000DBCFE9FFFE0EDBCFEAFFEF50E66EFCC06B
:1055C000E9FFFDC0EAFFE552E750EF6EFD0EDBCFCD
:1055D000E9FFFE0EDBCFEAFF010EE926000EEA220C
:1055E000EFCFF2F0010EF36E090EF3CFDBFFFDD02B
:1055F000FD0EDBCFE9FFFE0EDBCFEAFFEF50E66EDC
:10560000FCC0E9FFFDC0EAFFE552E750EF6EFD0E7A
:10561000DBCFE9FFFE0EDBCFEAFF010EE926000E2D
:10562000EA22EFCFE9F00001E95105E00001E905C8
:1056300002E00001E969010EF36E090EF3CFDBFF12
:10564000D4D0FD0EDBCFE9FFFE0EDBCFEAFFEF503B
:10565000E66EFCC0E9FFFDC0EAFFE552E750EF6EE1
:10566000FD0EDBCFE9FFFE0EDBCFEAFF010EE926E0
:10567000000EEA22EFCFF4F00001F45105E0000142
:10568000F40502E00001F469010EF36E090EF3CF98
:10569000DBFFABD0FD0EDBCFE9FFFE0EDBCFEAFF79
:1056A000EF50E66EFCC0E9FFFDC0EAFFE552E750AF
:1056B000EF6EFD0EDBCFE9FFFE0EDBCFEAFF010E42
:1056C000E926000EEA22EFCF0BF00BC00CF00B6ABC
:1056D000FD0EDBCFE9FFFE0EDBCFEAFF020EE9266F
:1056E000000EEA22EF5001010B10406F0CC041F197
:1056F000010EF36E090EF3CFDBFF77D0FD0EDBCF8B
:10570000E9FFFE0EDBCFEAFFEF50E66EFCC0E9FFDB
:10571000FDC0EAFFE552E750EF6EFD0EDBCFE9FF7B
:10572000FE0EDBCFEAFF010EE926000EEA22EFCFE4
:105730000BF00BC00CF00B6AFD0EDBCFE9FFFE0E89
:10574000DBCFEAFF020EE926000EEA22EF5001014C
:105750000B10426F0CC043F1010EF36E090EF3CF34
:10576000DBFF43D0FD0EDBCFE9FFFE0EDBCFEAFF10
:10577000EF50E66EFCC0E9FFFDC0EAFFE552E750DE
:10578000EF6EFD0EDBCFE9FFFE0EDBCFEAFF010E71
:10579000E926000EEA22EFCF0BF00BC00CF00B6AEB
:1057A000FD0EDBCFE9FFFE0EDBCFEAFF020EE9269E
:1057B000000EEA22EF5001010B10446F0CC045F1BE
:1057C000010EF36E090EF3CFDBFF0FD0FF000DD0FB
:1057D000090EE66ED9CFE6FFDACFE6FF5CEC08F003
:1057E000E552E552E55201D000D0090EDB500CE045
:1057F00004010CBF09D0090EDBCFE6FFFBC0E6FFBA
:1058000031EC13F0E552E5520A0EE15C02E2E16A86
:10581000E552E16EE552E7CFD9FF1200FD0EDBCF76
:10582000E9FFFE0EDBCFEAFF1200E926000EEA22B6
:105830001200E552E552E552E5525FD0D9CFE6FFBE
:10584000E1CFD9FF1200E552E552560EE66E510E39
:10585000E66EF7C0E6FFF8C0E6FF1200E552E5523B
:10586000960EE66E510EE66E42C1E6FF43C1E6FFBC
:105870001200080DF3CF0BF0F4CF0CF0280E0B261E
:10588000010E0C221200140EE66E510EE66EECC0F4
:10589000E6FFEDC0E6FF1200EECF0DF0EFCF0EF009
:1058A0000D500B5C0E500C581200EECF0DF0EFCFE8
:1058B0000EF00B500D5C0C500E581200E66EFBEC17
:1058C00010F0E552E55212000B500D24E96E0C5019
:1058D0000E20EA6E12001DD8EECF0BF0EFCF0CF0C9
:1058E0009DDF090E15EF2CF018D8EFCF0BF00EEF5F
:1058F0002CF094DF050E15EF2CF0E552E7CFD9FF21
:10590000120007D8010144511200040E8EDFEF503F
:10591000120084DF070E15EF2CF080DF030E15EF69
:105920002CF0D9CFE6FFE1CFD9FF8A808A821ED83A
:1059300063EC10F02DD823D863EC10F029D8E55291
:10594000E7CFD9FF12008A7011D8C7EC10F0C8EF6A
:105950002CF08A7214D8C7EC10F0C8EF2CF0D9CF15
:10596000E6FFE552E7CFD9FF12001200460EE66EC1
:10597000590EE66ED00EE66E070EE66E1200520E5F
:10598000E66E590EE66EAC0EE66E0D0EE66E120079
:0A599000E552E552E552E55212001F
:00000001FF
