:020000040000FA
:0600000078EF18F0120079
:0608C00078EF18F01200B1
:0608C800FFEF07F0120033
:0208D80012000C
:0108EA00030A
:0408EC001E0E716EFD
:1008F0000401400E096F300E0A6F040E0B6F880E54
:10090000086F700E0E6F040E0F6F400E0C6F1E0EF0
:10091000726E400E116FB00E126F040E136F880EC0
:10092000106FF00E166F040E176F400E146F1E0E30
:10093000736E400E196F300E1A6F050E1B6F800E0E
:10094000186F700E1E6F050E1F6F400E1C6F120089
:060AEA00120100020000F1
:100AF0000008D8040C0000000102030109023C00B8
:100B000001010080FA09040000060000000007054A
:100B100001024000FF070581024000FF07050202B5
:100B20004000FF070582024000FF07050301400067
:100B3000060705830140000604030904320341004F
:100B400067007500690072007200650020004600B1
:100B5000650072006E0061006E00640065007A003E
:100B60002000470072006F007300730079002A03B1
:100B7000550053004200340061006C006C002000FE
:100B800028004300290032003000300037002000E8
:100B9000460049004E00470012033000300030008C
:0A0BA0003000300030003000320059
:040CEA00FC0AFC0AFA
:060D2A00380B3C0B6E0BC0
:020D3000980B1E
:060DAA00040052310000BC
:100DB000DE0100000200000050310000DC010000F4
:100DC0000200000014310000000100003C0000009F
:0C0DD0000E310000C3010000060000000E
:040DDC00D9CFE6FF86
:100DE000E1CFD9FF020EE126DE6ADD6ADECF10F028
:100DF000DDCF11F0FD0EDBCF12F0FE0EDBCF13F0D6
:100E000011501318E8AE02D0133404D01250105C05
:100E1000135011580AE2FA0EE66E3BEC18F0E55258
:100E2000DF2A010E01E3DB2AE1D7020EE15C02E2D8
:100E3000E16AE552E16EE552E7CFD9FF12000BD827
:100E400027D8BFEC13F055EC26F0FAD71200ABEC24
:100E500020F0ABEF39F092689368CF0E9410946E47
:100E600095689668F00EC114C16EC280140E6F6E44
:100E70000101C96B0101CA6B0101CB6B4FEC07F09B
:100E8000C5EC0AF01BEC13F0D8EC29F027EF07F0C3
:100E900076EC08F06FBE02D095EC08F01200D9CFC6
:100EA000E6FFE1CFD9FFE652DF6A050EDF5C0DE217
:100EB000EA6ADF34FE0BEA36E96E960EE926010E89
:100EC000EA22EE6AED6ADF2AF0D70101A06BE55253
:100ED000E552E7CFD9FF1200D9CFE6FFE1CFD9FF26
:100EE000020EE126DF6A010EDB6A050EDF5C23E2FB
:100EF000010EDB5020E1EA6ADF34FE0BEA36E96ED0
:100F0000960EE926010EEA22EE50ED1012E1DE52B5
:100F1000010EDD6EEA6ADF34FE0BEA36E96E960EEC
:100F2000E926010EEA22FD0EDBCFEEFFFE0EDBCF3F
:100F3000EDFFDF2ADAD7010EDB5002E1000E08D008
:100F40000101A051A02B000901E1F28E010E00D099
:100F5000106E020EE15C02E2E16AE552E16E1050B1
:100F6000E552E7CFD9FF1200D9CFE6FFE1CFD9FF95
:100F7000020EE126DF6A010EDB6A050EDF5C28E265
:100F8000010EDB5025E1EA6ADF34FE0BEA36E96E3A
:100F9000960EE926010EEA22EECF10F0EFCF11F007
:100FA000FD0EDB50101803E1FE0EDB5011180EE1B0
:100FB000DE52010EDD6EEA6ADF34FE0BEA36E96EC0
:100FC000960EE926010EEA22EE6AED6ADF2AD5D7EF
:100FD000010EDB5002E1000E06D00101A00701E185
:100FE000F29E010E00D0106E020EE15C02E2E16A98
:100FF000E552E16E1050E552E7CFD9FF1200DACF8B
:10100000E4FFE2CFDAFFE9CFE4FFEACFE4FFF6CF77
:10101000E4FFF7CFE4FFF5CFE4FFF3CFE4FFF4CF35
:10102000E4FFFACFE4FF00EE00F0100EE80403E363
:10103000EECFE4FFFBD700EE10F00E0EE80403E362
:10104000EECFE4FFFBD7E652D9CFE6FFE1CFD9FFE1
:10105000E652DF6A050EDF5C21E2EA6ADF34FE0B4E
:10106000EA36E96E960EE926010EEA22EE50ED1000
:1010700013E0EA6ADF34FE0BEA36E96E960EE926E3
:10108000010EEA22EECF1EF0EFCF1FF004D01FC0FA
:10109000FAFF1E50F96EFBDFDF2ADCD7E552E5527E
:1010A000E7CFD9FFE55200EE1DF00E0EE80403E392
:1010B000E5CFEDFFFBD700EE0FF0100EE80403E3E1
:1010C000E5CFEDFFFBD7E5CFFAFFE5CFF4FFE5CFA6
:1010D000F3FFE5CFF5FFE5CFF7FFE5CFF6FFE5CF6F
:1010E000EAFFE5CFE9FFE5CFDAFF11006DA60FD8E3
:1010F00002D06DB613D80101C90508E16DBA06D05A
:10110000686A696A69806988020EC96F12006D6A2F
:10111000696A6D860101010EC96F12006D6A696A04
:101120000101C96B12008EEF08F00101C95101E104
:101130003AD06850040B04E06950040B01E038D841
:101140006DB231D06850010B04E06950010B01E031
:1011500050D86850100B04E06950100B01E024D8FF
:101160006850400B04E06950400B01E037D86850EC
:10117000200B04E06950200B01E032D86850020BCC
:1011800004E06950020B01E032D8030E0101C95D91
:1011900001E209D06850080B06E06950080B03E033
:1011A00031EC16F068961200698468986D8212001E
:1011B0006D926994689412000101CAA10ED0F8DF03
:1011C0006D840101080ED66F070ED76FD607000E8B
:1011D000D75BD651D711FAE16D941200689C1200CA
:1011E00070A003D073EC17F07090689A12006892A8
:1011F00012006A6A686A9F0E6B6E7B0E696E6E6A79
:101200000F0EE66E710EE66E0F0EE66E14D8E55206
:10121000E552E552160E706E68A602D06896FCD7AD
:101220006D9873EC17F00101CA910101CB6B0101BC
:10123000030EC96F1200D9CFE6FFE1CFD9FFFD0E33
:10124000DBCFE9FFFE0EDBCFEAFFFC0EDB5004E054
:10125000EE6AFC0EDB06F9D7E552E7CFD9FF1200A4
:10126000D9CFE6FFE1CFD9FFE652DF6A050EDF5C9A
:101270000DE2EA6ADF34FE0BEA36E96EE50EE92696
:10128000000EEA22EE6AED6ADF2AF0D70001EF6B6A
:10129000E552E552E7CFD9FF1200D9CFE6FFE1CF03
:1012A000D9FF020EE126DF6A010EDB6A050EDF5C64
:1012B00023E2010EDB5020E1EA6ADF34FE0BEA365E
:1012C000E96EE50EE926000EEA22EE50ED1012E17D
:1012D000DE52010EDD6EEA6ADF34FE0BEA36E96E9D
:1012E000E50EE926000EEA22FD0EDBCFEEFFFE0E34
:1012F000DBCFEDFFDF2ADAD7010EDB5002E1000E73
:1013000016D00001EF51EF2B00090FE1100EE66E31
:10131000140EE66E6CEC07F0E552E552F294F28A98
:10132000F1C0D6FFF0C0D7FFD58E010E00D0106EF1
:10133000020EE15C02E2E16AE552E16E1050E55214
:10134000E7CFD9FF1200D9CFE6FFE1CFD9FF020ED8
:10135000E126DF6A010EDB6A050EDF5C28E2010E82
:10136000DB5025E1EA6ADF34FE0BEA36E96EE50E72
:10137000E926000EEA22EECF10F0EFCF11F0FD0EBD
:10138000DB50101803E1FE0EDB5011180EE1DE52A7
:10139000010EDD6EEA6ADF34FE0BEA36E96EE50E19
:1013A000E926000EEA22EE6AED6ADF2AD5D7010EA1
:1013B000DB5002E1000E10D00001EF070BE1D59EDB
:1013C000F294F29A100EE66E140EE66EB4EC07F08C
:1013D000E552E552010E00D0106E020EE15C02E211
:1013E000E16AE552E16E1050E552E7CFD9FF1200F5
:1013F000D9CFE6FFE1CFD9FF020ED56EFE0EDBCFCF
:10140000F1F0FD0EDBCFF0F0E552E7CFD9FF12008F
:10141000D9CFE6FFE1CFD9FFE652DF6AF2A429D0A7
:10142000F294F1C0D6FFF0C0D7FF050EDF5C21E2D9
:10143000EA6ADF34FE0BEA36E96EE50EE926000EB5
:10144000EA22EE50ED1013E0EA6ADF34FE0BEA36D2
:10145000E96EE50EE926000EEA22EECF10F0EFCF9E
:1014600011F004D011C0FAFF1050F96EFBDFDF2A33
:10147000DCD7E552E552E7CFD9FF1200D9CFE6FF1E
:10148000E1CFD9FFFE0EDB2ADB500A0802E1FE0E97
:10149000DB6AFE0EDB5000D0E552E7CFD9FF120029
:1014A000D9CFE6FFE1CFD9FFFE0EDB5005E10A0EF2
:1014B000F36EFE0EF3CFDBFFFE0EDB06DB5000D03B
:1014C000E552E7CFD9FF12000101DF51DE5D02E0F6
:1014D000000E01D0010E00D01200F6DF000904E07A
:1014E000F36AF46A11D010D00101DE51040DF3CF7C
:1014F00010F0F4CF11F03C0E1026010E112210C096
:10150000F3FF11C0F4FF00D01200DEC1E6FFB6DF2A
:10151000E5520101DE6F1200D9CFE6FFE1CFD9FF1E
:10152000030EE126DFC1E6FFA9DFE552DF6E010110
:10153000DF51040DF3CF10F0F4CF11F03C0E102664
:10154000010E1122010E10C0DBFF020E11C0DBFFE5
:10155000DE51DF5C03E1F36AF46A0DD0DFCFDFF127
:10156000010EDBCF10F0020EDBCF11F010C0F3FF45
:1015700011C0F4FF00D0030EE15C02E2E16AE55223
:10158000E16EE552E7CFD9FF1200D9CFE6FFE1CFF8
:10159000D9FFE652DF6A0A0EDF5C1EE2DF50040D5F
:1015A000F3CFE9FFF4CFEAFF3C0EE926010EEA2271
:1015B000EE6AED6ADF50040DF3CFE9FFF4CFEAFFE6
:1015C0003C0EE926010EEA22020EE926000EEA226E
:1015D000EE6AED6ADF2ADFD7070ED56ECA0EE66E19
:1015E0001B0EE66E6CEC07F0E552E552E552E55253
:1015F000E7CFD9FF1200D9CFE6FFE1CFD9FF0C0E1C
:10160000E126D59E61DF000906E0FD0EDBCFDEFF9F
:10161000DBCFDDFF72D0D750146E14C015F0146A02
:10162000D65000011410126E15C013F0FF0ED880B2
:10163000125613560101DE51040DF3CFE9FFF4CF2A
:10164000EAFF3C0EE926010EEA221250EE5C106E13
:101650001350EE58116E020E10C0DBFF030E11C0C6
:10166000DBFFFD0EDBCF12F0FE0EDBCF13F0020E20
:10167000DB501224106E030EDB501320116E10C0CD
:10168000DEFF11C0DDFFDECF10F0DDCF11F0020E66
:10169000DBCF12F0030EDBCF13F01250105C1350AF
:1016A00011582BE2040EDEC1DBFFDB500101DF5DD0
:1016B0001FE0020EDBCF10F0030EDBCF11F0040EA3
:1016C000DB50040DF3CFE9FFF4CFEAFF3C0EE9262F
:1016D000010EEA221050EE5E1150ED5A040EDBCFDF
:1016E000E6FFCCDEE552E76E040EE7CFDBFFDDD789
:1016F000FD0EDBCFDEFFDBCFDDFF040EDFC1DBFF46
:10170000DBCFE6FFCDDEE552E76E050EE7CFDBFF70
:1017100003DF060EF3CFDBFF070EF4CFDBFFD9505C
:10172000060FE96EDACFEAFFEE50ED1002E1000E8F
:10173000C6D0060EDBCFE9FF070EDBCFEAFFDECF18
:10174000EEFFDDCFEDFF060EDBCFE9FF070EDBCFAF
:10175000EAFF020EE926000EEA22FB0EDBCFEEFFC7
:10176000FC0EDBCFEDFF040EDB500101DE5D01E17D
:1017700086D0040EDB50040DF3CFE9FFF4CFEAFF6F
:101780003C0EE926010EEA22EECF10F0EFCF11F069
:10179000050EDB50040DF3CFE9FFF4CFEAFF3C0E5A
:1017A000E926010EEA22EECF12F0EFCF13F012502D
:1017B000105C1350115863E2050EDB50040DF3CF9B
:1017C000E9FFF4CFEAFF3C0EE926010EEA22080EFB
:1017D000EECFDBFF090EEECFDBFF0A0EEECFDBFF15
:1017E0000B0EEECFDBFF040EDB50040DF3CFE9FF51
:1017F000F4CFEAFF3C0EE926010EEA22EECF10F00C
:10180000EECF11F0EECF12F0EFCF13F0050EDB505C
:10181000040DF3CFE9FFF4CFEAFF3C0EE926010EF9
:10182000EA2210C0EEFF11C0EEFF12C0EEFF13C09F
:10183000EEFF040EDB50040DF3CFE9FFF4CFEAFF17
:101840003C0EE926010EEA22080EDBCFEEFF090E60
:10185000DBCFEEFF0A0EDBCFEEFF0B0EDBCFEEFF92
:10186000050EDB50E76E040EE7CFDBFFDBCFE6FFB4
:1018700017DEE552E76E050EE7CFDBFF74D7040EE7
:10188000DB50DE5D19E1F294F28ADECF10F0DDCF9D
:1018900011F0FF0ED8801056115610C0DEFF11C097
:1018A000DDFFDECF10F0DDCF11F011C010F0116AB6
:1018B0001050D76EDF50D66ED58E010E00D0106E50
:1018C0000C0EE15C02E2E16AE552E16E1050E55275
:1018D000E7CFD9FF1200D9CFE6FFE1CFD9FF0C0E39
:1018E000E1260101DE51040DF3CFE9FFF4CFEAFF59
:1018F0003C0EE926010EEA22020EEECFDBFF030EBC
:10190000EDCFDBFFFD0EDBCF12F0FE0EDBCF13F0D1
:10191000020EDB501224106E030EDB501320116EEA
:1019200010C0DEFF11C0DDFFDECF10F0DDCF11F003
:10193000020EDBCF12F0030EDBCF13F01250105C5F
:10194000135011582BE2040EDEC1DBFFDB50010106
:10195000DF5D1FE0020EDBCF10F0030EDBCF11F0D6
:10196000040EDB50040DF3CFE9FFF4CFEAFF3C0E89
:10197000E926010EEA221050EE5E1150ED5A040ED7
:10198000DBCFE6FF7BDDE552E76E040EE7CFDBFF42
:10199000DDD7FD0EDBCFDEFFDBCFDDFF040EDFC1C9
:1019A000DBFFDBCFE6FF7CDDE552E76E050EE7CF20
:1019B000DBFFB2DD060EF3CFDBFF070EF4CFDBFF5C
:1019C000D950060FE96EDACFEAFFEE50ED1002E1D2
:1019D000000EADD0060EDBCFE9FF070EDBCFEAFF2E
:1019E000DECFEEFFDDCFEDFF060EDBCFE9FF070E0A
:1019F000DBCFEAFF020EE926000EEA22FB0EDBCF68
:101A0000EEFFFC0EDBCFEDFF050EDB500101DE5DCE
:101A100001E18BD0040EDB50DE5D01E186D0040EC7
:101A2000DB50040DF3CFE9FFF4CFEAFF3C0EE926CB
:101A3000010EEA22EECF10F0EFCF11F0050EDB50D1
:101A4000040DF3CFE9FFF4CFEAFF3C0EE926010EC7
:101A5000EA22EECF12F0EFCF13F01250105C1350C9
:101A6000115863E2050EDB50040DF3CFE9FFF4CF0C
:101A7000EAFF3C0EE926010EEA22080EEECFDBFF5C
:101A8000090EEECFDBFF0A0EEECFDBFF0B0EEECF23
:101A9000DBFF040EDB50040DF3CFE9FFF4CFEAFFC8
:101AA0003C0EE926010EEA22EECF10F0EECF11F047
:101AB000EECF12F0EFCF13F0050EDB50040DF3CF95
:101AC000E9FFF4CFEAFF3C0EE926010EEA2210C03E
:101AD000EEFF11C0EEFF12C0EEFF13C0EEFF040ECA
:101AE000DB50040DF3CFE9FFF4CFEAFF3C0EE9260B
:101AF000010EEA22080EDBCFEEFF090EDBCFEEFF70
:101B00000A0EDBCFEEFF0B0EDBCFEEFF050EDB5038
:101B1000E76E040EE7CFDBFFDBCFE6FFC1DCE5526B
:101B2000E76E050EE7CFDBFF6FD7010E00D0106E1A
:101B30000C0EE15C02E2E16AE552E16E1050E55202
:101B4000E7CFD9FF1200D9CFE6FFE1CFD9FFE652A8
:101B5000DEC1DFFF0101DF51DF5C30E0DF50040D4B
:101B6000F3CFE9FFF4CFEAFF3C0EE926010EEA22AB
:101B7000020EE926000EEA22EECF10F0EFCF11F0B0
:101B8000FD0EDB50101803E1FE0EDB50111810E1C2
:101B9000DF50040DF3CFE9FFF4CFEAFF3C0EE92656
:101BA000010EEA22020EE926000EEA22EE6AED6A32
:101BB000DFCFE6FF63DCE552DF6ECCD7010E00D04D
:101BC000E552E552E7CFD9FF1200D9CFE6FFE1CFCA
:101BD000D9FF080EE126F2A46AD0D59EF2947DDCEE
:101BE000F3CFDEFFF4CFDDFFDECFE9FFDDCFEAFF8D
:101BF000020EE926000EEA22060EEECFDBFF070EEC
:101C0000EDCFDBFFD950060FE96EDACFEAFFEE50D9
:101C1000ED100CE0060EDBCF10F0070EDBCF11F05D
:101C200004D011C0FAFF1050F96EFBDFDECFE9FFE0
:101C3000DDCFEAFF020EEECFDBFF030EEDCFDBFFC1
:101C400064DC4BDCF3CFDEFFF4CFDDFFD9CFE9FF5F
:101C5000DACFEAFFEE50ED102AE0DECFE9FFDDCF6C
:101C6000EAFFEECF12F0EFCF13F0020EDB50125C62
:101C7000106E030EDB501358116EFF0ED8801056F5
:101C80001156040E10C0DBFF050E11C0DBFF040E61
:101C9000DBCF10F0050EDBCF11F011C010F0116A90
:101CA0001050D76E040EDB50D66EF294D58E080E0F
:101CB000E15C02E2E16AE552E16EE552E7CFD9FF6D
:101CC000120004012051600BE842E842E842E84279
:101CD000E842000901E055D02151070A51E00B0A02
:101CE0004FE0070A40E0010A2CE00B0A28E0020A54
:101CF00026E0030A22E0080A12E0010A0EE00F0AB9
:101D00000AE0030A01E03CD00101010EB66F0101B7
:101D1000040EC96F36D036D834D090D832D00101F5
:101D2000010EB66F0101CB0EB76F010EB86F010146
:101D3000CA930101010EBB6F24D0A8D822D0F4D8D9
:101D400020D00101010EB66F040124510101B76FCB
:101D5000B86BCC0EB727010EB8230101CA9301015D
:101D6000010EBB6F0ED00101010EB66F04012451AC
:101D7000EA6ACC0FE96E010EEA2222C4EFFF01D01D
:101D800000D01200800E0401205D57E12351030AA8
:101D900034E0010A10E0030A01E04DD00101010E18
:101DA000B66F0101EA0EB76F0A0EB86F120E01018D
:101DB000BB6FBC6B40D00101010EB66F0401225114
:101DC000F66EF76AD890F636F736EA0EF6260C0E5F
:101DD000F7220900F5CFB7F10A00F5CFB8F1020EEE
:101DE0000101F76AB725F66EB851F7220900F5CF61
:101DF000BBF10A00F5CFBCF11ED00101010EB66F98
:101E000004012251F66EF76AD890F636F7362A0E9C
:101E1000F6260D0EF7220900F5CFB7F10A00F5CF2F
:101E2000B8F1B7C1F6FFB8C1F7FF0800F5500101DE
:101E3000BB6FBC6B00D00101CA8312000101010E0F
:101E4000B66F0F0EE66E710EE66E0F0EE66E1BECB1
:101E500009F0E552E552E552010EE66ECC0EE66E53
:101E6000010EE66E1BEC09F0E552E552E55222C484
:101E7000CBF10401225104E10101050EC96F05D027
:101E80000101060EC96F76EC04F012000401286B04
:101E9000296B040120511F0B020A14E0030A0EE013
:101EA000010A01E033D00101010EB66F040128815F
:101EB0000101CAA102D00401288328D00101010E2A
:101EC000B66F24D00101010EB66F040124510F0B2F
:101ED000080DF350116A000F106E040E11222451E8
:101EE000800B01E0010E040DF35001011024B96FC5
:101EF000000E1120BA6FB9C1E9FFBAC1EAFFEF5075
:101F0000040B03E00401010E286F00D00101B605A7
:101F10000AE10101280EB76F040EB86F0101CA93E0
:101F20000101020EBB6F12000401220510E12051D5
:101F30001F0B00090CE10101010EB66F030E040135
:101F4000215D03E10101CA8102D00101CA910401AE
:101F500022513AE120511F0B020836E124510F0BA8
:101F6000000932E00101010EB66F040124510F0B8C
:101F7000080DF350116A000F106E040E1122245147
:101F8000800B01E0010E040DF35001011024B96F24
:101F9000000E1120BA6F030E0401215D07E1840ECB
:101FA000B9C1E9FFBAC1EAFFEF6E0ED024AF06D087
:101FB000B9C1E9FFBAC1EAFFEF6A06D0880EB9C11C
:101FC000E9FFBAC1EAFFEF6E1200D9CFE6FFE1CF19
:101FD000D9FFE652DF68A650020B05E0DF50DF06AE
:101FE000000801E2F8D7E552E552E7CFD9FF120029
:101FF000ECDF110EE66E090EE66EE66AD0EC17F025
:10200000E552E552E5521200D9CFE6FFE1CFD9FF04
:10201000FE0EDBCFBFF17A0EE66E200EE66EBFC17C
:10202000E6FF28EC26F0E552E552E552BFC1E6FF97
:1020300085EC2BF0E552F3CFBDF1F4CFBEF1E552C4
:10204000E7CFD9FF1200D9CFE6FFE1CFD9FF00D00B
:10205000E552E7CFD9FF120000D012006D960101C2
:10206000C06BC16B0101C007000EC15B0101C05113
:10207000C11101E0F7D7FF001200D9CFE6FFE1CF91
:10208000D9FF170EE126DE52110EDD6EF36E020E41
:10209000F3CFDBFF030EDB6A040EDB6ADF6AFD0EA3
:1020A000DBCFE9FFFE0EDBCFEAFFEF50FF0A01E1D5
:1020B000C3D1F40A01E173D1010A01E15BD1030A42
:1020C00001E153D1010A01E12DD10E0A01E1DAD07B
:1020D000030A01E1C0D0010A01E1BAD0070A01E117
:1020E000B4D0010A01E1AED0050A01E1A2D0060A8E
:1020F00001E17CD0010A01E0A3D1FD0EDBCFE9FFB5
:10210000FE0EDBCFEAFF030EE926000EEA22E9CF3E
:1021100010F0EACF11F010C0E6FF11C0E6FF5AEC54
:1021200014F0E552E5520D0EF3CFDBFF0E0EF4CFA7
:10213000DBFFD9500D0FE96EDACFEAFFFF0EEE1884
:1021400001E1ED5045E0FD0EDBCFE9FFFE0EDBCFF8
:10215000EAFFEE52010EEFCFDBFF0D0EDBCFE6FF05
:102160000E0EDBCFE6FF010EDBCFE6FFE0EC28F042
:10217000E552E552E552E76E130EE7CFDBFF0D0E99
:10218000DBCFE6FF0E0EDBCFE6FFBDEC15F0E55230
:10219000E552110EF3CFDBFF120EF4CFDBFF110E71
:1021A000DBCF10F0120EDBCF11F0130EDBCFE6FF0A
:1021B00004D011C0FAFF1050F96EFBDFE552BDC12B
:1021C000E9FFBEC1EAFFEE52130EDBCFEFFF06D0F0
:1021D000BDC1E9FFBEC1EAFFEE52EF68BDC1E9FF34
:1021E000BEC1EAFFEF6A020EDF6E2AD1FD0EDBCF21
:1021F000E9FFFE0EDBCFEAFFEE52130EEFCFDBFF5F
:10220000DBCFE6FF44EC2AF0E552E76E140EE7CF91
:10221000DBFFBDC1E9FFBEC1EAFFEE52DBCFEFFF3E
:10222000BDC1E9FFBEC1EAFF010EEF6E020EDF6E17
:1022300007D1BDC1E9FFBEC1EAFF070EEF6E010E77
:10224000DF6EFED0020EDF6EFBD0010EDF6EF8D027
:10225000030EDF6EF5D0EBEC14F0E76E030EE7CF64
:10226000DBFFBDC1E9FFBEC1EAFF050EEF6EBDC1D8
:10227000E9FFBEC1EAFFEE52030EDBCFEFFF020E15
:10228000DF6EDED0BDC1E9FFBEC1EAFF060EEF6E14
:10229000FD0EDBCFE9FFFE0EDBCFEAFFEE52040EB0
:1022A000EFCFDBFFD950050FE66E000EDA20E66EA9
:1022B000040EDBCFE6FF55EC15F0E552E552E55292
:1022C000160EDB6A080EF36E160EDBCFF4FFF3502A
:1022D000F45C25E2D950050F126EDACF13F0160E1A
:1022E000DB500F011224E96E000E1320EA6EEF504E
:1022F000E66EBDC1E9FFBEC1EAFFEE52E9CF10F0C4
:10230000EACF11F0160EDB501024E96E000E1120FA
:10231000EA6EE552E750EF6E160EDB2AD3D7090EB0
:10232000DF6E8ED0FD0EDBCFE9FFFE0EDBCFEAFFC6
:10233000EE52130EEFCFDBFFDBCFE6FFB7EC2AF058
:10234000E552E76E140EE7CFDBFFBDC1E9FFBEC16A
:10235000EAFFEE52DBCFEFFFBDC1E9FFBEC1EAFFEE
:10236000080EEF6E020EDF6E6BD042DE77DE010EDE
:10237000DF6E66D0BDC1E9FFBEC1EAFF0A0EEF6E97
:10238000F4EC2BF0F350E66EBDC1E9FFBEC1EAFFED
:10239000EE52E552E750EF6E020EDF6E51D0BDC136
:1023A000E9FFBEC1EAFF0B0EEF6EFD0EDBCFE9FFCA
:1023B000FE0EDBCFEAFFEE52130EEFCFDBFFDB505A
:1023C0000F0BE76E130EE7CFDBFFDB50040DF3CFEF
:1023D000E9FFF4CFEAFF610EE926000EEA22EF5092
:1023E000200B21E1130EDB50040DF3CFE9FFF4CFF6
:1023F000EAFF610EE926000EEA22020EE926000E2F
:10240000EA22EECFE6FFEFCFE6FF24EC15F0E5522F
:10241000E552E66EBDC1E9FFBEC1EAFFEE52E552EC
:10242000E750EF6E06D0BDC1E9FFBEC1EAFFEE5234
:10243000EF68020EDF6E04D011DE010EDF6E00D0F9
:10244000DF5018E0160EDB6804010C51800B08E029
:10245000160EDBCFF3FFDB06F350000801E2F4D7E2
:102460000CBF08D0DFCFE6FFBFC1E6FFA2EC27F02C
:10247000E552E552170EE15C02E2E16AE552E16ED7
:10248000E552E7CFD9FF1200D9CFE6FFE1CFD9FF60
:10249000020EE126BDC1E9FFBEC1EAFFEF6E010EEB
:1024A000DB6AFC0EDB50F36E010EDBCFF4FFF35062
:1024B000F45C26E2010EDB50E76EFD0EDBCFE9FF98
:1024C000FE0EDBCFEAFFE750E926000EEA22EF50CE
:1024D000E66EBDC1E9FFBEC1EAFFEE52E9CF10F0E2
:1024E000EACF11F0010EDB500F011024E96E000E4F
:1024F0001120EA6EE552E750EF6E010EDB2AD1D7CC
:10250000FC0EDB28DF6E04010CBF08D0DFCFE6FF36
:10251000BFC1E6FFA2EC27F0E552E552020EE15CF6
:1025200002E2E16AE552E16EE552E7CFD9FF12001F
:102530000101010EDD6F12000101DD5102E0DD6BD2
:1025400001D08CDD380EE66E250EE66EDC0EE66EF2
:10255000E6686BEC0CF0E552E552E552E5521200EC
:102560000101010EDD6F380EE66E250EE66EB80E27
:10257000E66EE668FBEC0AF0E552E552E552E552FC
:102580001200D9CFE6FFE1CFD9FF020EE126DF80AE
:10259000DF92DF94DF96DF98DF9ADECF10F0DDCF99
:1025A00011F010C0F3FF11C0F4FFE15C03E200D0B2
:1025B000E16AE552E16EE552E7CFD9FF1200D9CFCB
:1025C000E6FFE1CFD9FF020EE126DF80DF92DF9444
:1025D000DF96DF98DF9ADECF10F0DDCF11F010C06C
:1025E000F3FF11C0F4FFE15C03E200D0E16AE552C1
:1025F000E16EE552E7CFD9FF1200D9CFE6FFE1CF78
:10260000D9FF020EE126DF80DF92DF94DF96DF98AC
:10261000DF9ADECF10F0DDCF11F010C0F3FF11C054
:10262000F4FFE15C03E200D0E16AE552E16EE552BD
:10263000E7CFD9FF1200D9CFE6FFE1CFD9FFE652AD
:10264000DF6A050EDF5C0DE2EA6ADF34FE0BEA3674
:10265000E96EA10EE926010EEA22EE6AED6ADF2A92
:10266000F0D7E552E552E7CFD9FF1200D9CFE6FF08
:10267000E1CFD9FF020EE126DF6A010EDB6A050E0B
:10268000DF5C23E2010EDB5020E1EA6ADF34FE0B5F
:10269000EA36E96EA10EE926010EEA22EE50ED10AF
:1026A00012E1DE52010EDD6EEA6ADF34FE0BEA361D
:1026B000E96EA10EE926010EEA22FD0EDBCFEEFF48
:1026C000FE0EDBCFEDFFDF2ADAD7010EDB5002E191
:1026D000000E02D0010E00D0106E020EE15C02E28C
:1026E000E16AE552E16E1050E552E7CFD9FF1200E2
:1026F000D9CFE6FFE1CFD9FF020EE126DF6A010E56
:10270000DB6A050EDF5C28E2010EDB5025E1EA6A98
:10271000DF34FE0BEA36E96EA10EE926010EEA224D
:10272000EECF10F0EFCF11F0FD0EDB50101803E1EB
:10273000FE0EDB5011180EE1DE52010EDD6EEA6A6C
:10274000DF34FE0BEA36E96EA10EE926010EEA221D
:10275000EE6AED6ADF2AD5D7010EDB5002E1000EEA
:1027600002D0010E00D0106E020EE15C02E2E16ABE
:10277000E552E16E1050E552E7CFD9FF1200D9CFF4
:10278000E6FFE1CFD9FFE652DF6A050EDF5C21E20A
:10279000EA6ADF34FE0BEA36E96EA10EE926010E85
:1027A000EA22EE50ED1013E0EA6ADF34FE0BEA365F
:1027B000E96EA10EE926010EEA22EECF10F0EFCF6E
:1027C00011F004D011C0FAFF1050F96EFBDFDF2AC0
:1027D000DCD7E552E552E7CFD9FF1200D9CFE6FFAB
:1027E000E1CFD9FFE552E7CFD9FF1200D9CFE6FFFD
:1027F000E1CFD9FF030EE126DF6ADE52010EDD6E66
:10280000020EDB6ADF6A080EDF5C45E2020EDB5077
:1028100042E1DF50E76EFD0EDBCFE9FFFE0EDBCFBE
:10282000EAFFE750E926000EEA22EF500EE0DF5003
:10283000E76EFB0EDBCFE9FFFC0EDBCFEAFFE750D4
:10284000E926000EEA22EF5005E1010EF36E020EBA
:10285000F3CFDBFFDF50E76EFD0EDBCFE9FFFE0EAF
:10286000DBCFEAFFE750E926000EEA22EFCF10F0B7
:10287000DF50E76EFB0EDBCFE9FFFC0EDBCFEAFF9C
:10288000E750E926000EEA22EF50105C02E0010E4C
:10289000DB6ADF2AB8D7010EDB50106E030EE15C55
:1028A00003E200D0E16AE552E16E1050E552E7CF55
:1028B000D9FF1200D9CFE6FFE1CFD9FF0D0EE126F7
:1028C000AB0EDE6E330EDD6E0C0EDB6ADECFF6FF76
:1028D000DDCFF7FF0800F5CF10F0116A10BE1168C8
:1028E0000001101C01E1111C69E0D9CFE9FFDACF2A
:1028F000EAFF020EEECFDBFF030EEDCFDBFF0C0E87
:10290000DB6A080EF36E0C0EDBCFF4FFF350F45CC1
:102910002CE2020EDBCFF6FF030EDBCFF7FF060E35
:10292000F626000EF722F6CF12F0F7CF13F00C0EBA
:10293000DB500F011224F66E000E1320F76E080014
:10294000F550E66ED950040F106EDACF11F00C0E70
:10295000DB500F011024E96E000E1120EA6EE552E3
:10296000E750EF6E0C0EDB2ACCD7FD0EDBCFE6FF77
:10297000FE0EDBCFE6FFD950040FE66E000EDA2024
:10298000E66E34DFE552E552E552E552000909E012
:10299000DECF10F0DDCF11F010C0F3FF11C0F4FF57
:1029A00010D0DECF10F0DDCF11F00E0E1026000E8D
:1029B000112210C0DEFF11C0DDFF88D7F368F46A72
:1029C00000D00D0EE15C02E2E16AE552E16EE552F3
:1029D000E7CFD9FF1200D9CFE6FFE1CFD9FF030E31
:1029E000E126AB0EDE6E330EDD6E020EDB6ADECF4D
:1029F000F6FFDDCFF7FF0800F5CF10F0116A10BE2B
:102A000011680001101C01E1111C0FE0DECF10F075
:102A1000DDCF11F00E0E1026000E112210C0DEFFC9
:102A200011C0DDFF020EDB2AE2D7020EDB50106E72
:102A3000030EE15C03E200D0E16AE552E16E105062
:102A4000E552E7CFD9FF1200D9CFE6FFE1CFD9FF9A
:102A5000020EE126AB0EDE6E330EDD6EFD0EDBCF19
:102A600012F0FE0EDBCF13F0DE50125C106EDD5064
:102A70001358116E0E0E0D6E0E6A10C008F011C0C4
:102A800009F0F7EC17F008C010F009C011F0105071
:102A9000106E020EE15C03E200D0E16AE552E16EE5
:102AA0001050E552E7CFD9FF1200D9CFE6FFE1CFB2
:102AB000D9FF050EE126AB0EF36E010EF3CFDBFF5F
:102AC000330EF36E020EF3CFDBFFFE0EDB500E0D66
:102AD000F350E76E010EDBCF10F0020EDBCF11F0EA
:102AE000E7501026000E1122010E10C0DBFF020E6F
:102AF00011C0DBFF010EDBCF08F0020EDBCF09F0C7
:102B0000030E08C0DBFF040E09C0DBFFDF6A080EFE
:102B1000DF5C29E2030EDBCFF6FF040EDBCFF7FF0D
:102B2000060EF626000EF722F6CF10F0F7CF11F0C2
:102B3000DF500F011024F66E000E1120F76E080012
:102B4000F550E66EDF50E76EFC0EDBCFE9FFFD0EC1
:102B5000DBCFEAFFE750E926000EEA22E552E75014
:102B6000EF6EDF2AD4D7050EE15C02E2E16AE5529E
:102B7000E16EE552E7CFD9FF1200D9CFE6FFE1CFF2
:102B8000D9FF020EE126FD0EDBCFDEFFDBCFDDFF3E
:102B9000DECFF6FFDDCFF7FF0900F5CF10F008001C
:102BA000F5CF11F010C0F3FF11C0F4FF020EE15C8D
:102BB00003E200D0E16AE552E16EE552E7CFD9FFCA
:102BC0001200D9CFE6FFE1CFD9FF020EE126FD0EBC
:102BD000DBCFDEFFDBCFDDFFDECFF6FFDDCFF7FFA4
:102BE000020EF626000EF7220900F5CF10F00800BD
:102BF000F5CF11F010C0F3FF11C0F4FF020EE15C3D
:102C000003E200D0E16AE552E16EE552E7CFD9FF79
:102C10001200D9CFE6FFE1CFD9FF020EE126FD0E6B
:102C2000DBCFDEFFDBCFDDFFDECFF6FFDDCFF7FF53
:102C3000040EF626000EF7220900F5CF10F008006A
:102C4000F5CF11F010C0F3FF11C0F4FF020EE15CEC
:102C500003E200D0E16AE552E16EE552E7CFD9FF29
:102C600012006C500BE1040100513C0BE842E842B9
:102C70000D0802E108D801D018D804D0040E6C5C0D
:102C800001E123D81200D9CFE6FFE1CFD9FFE65208
:102C90000101B56BB66BBB6BBC6B61EC0EF0DDD8A4
:102CA000E552E552E7CFD9FF1200020E0101B55DF2
:102CB0000AE196D8040100BD03D0C80E006F02D00F
:102CC000880E006F01D00FD91200040E0101C95DFA
:102CD0000AE122C46EFF6E50000803E2050EC96FC0
:102CE00002D0030EC96F0101B5050AE10BD804013A
:102CF00004BD03D0C80E046F02D0880E046F01D04B
:102D0000F2D81200D9CFE6FFE1CFD9FF020EE126BB
:102D10000101080EBB5D000EBC5905E2BBC1DEFF20
:102D2000BCC1DDFF03D0080EDE6EDD6A0401049332
:102D30000491010EDB500413DFCF05F4000EDB50CD
:102D40000101BB5F010EDB50BC5B280EB96F040EA6
:102D5000BA6F0101CAA31ED0D9CFE9FFDACFEAFFCB
:102D6000EE50ED1016E0B7C1F6FFB8C1F7FF08004E
:102D7000F550B9C1E9FFBAC1EAFFEF6E0101B92B05
:102D8000000EBA23B72BB823DF06010E01E2DB06E3
:102D9000E3D71CD0D9CFE9FFDACFEAFFEE50ED1030
:102DA00015E0B7C1E9FFB8C1EAFFEF50B9C1E9FFCB
:102DB000BAC1EAFFEF6E0101B92B000EBA23B72B9F
:102DC000B823DF06010E01E2DB06E4D7020EE15C68
:102DD00002E2E16AE552E16EE552E7CFD9FF120067
:102DE000D9CFE6FFE1CFD9FF020EE126030E0401A1
:102DF0000015E76E010EE7CFDBFF01C4DFFFDE50F9
:102E00000101BB27DD50BC23280EB76F040EB86F3D
:102E1000D9CFE9FFDACFEAFFEE50ED1014E0B7C1E9
:102E2000E9FFB8C1EAFFEF50B9C1E9FFBAC1EAFF53
:102E3000EF6EB92B000EBA23B72BB823DF06010EB5
:102E400001E2DB06E5D7020EE15C02E2E16AE5524F
:102E5000E16EE552E7CFD9FF12000101B6510CE156
:102E60000401080E016F200E026F040E036F840E22
:102E7000006F0401046F35D0040120AF22D001019E
:102E8000BB510401265D0101BC510401275904E234
:102E900026C4BBF127C4BCF135DF0101010EB56FBB
:102EA0000401080E016F200E026F040E036F800EE6
:102EB000006F0401280E066F040E076FC80E046F22
:102EC00010D00101020EB56F0401056BC80E046F2E
:102ED0000401080E016F280E026F040E036FC80E66
:102EE000006F6D9812000101B56B0401080E016FAF
:102EF000200E026F040E036F880E006F0401046B36
:022F00001200BD
:0E2F0200AA0EF66E0D0EF76E000EF86E0101AF
:102F10000900F550B06F0900F550B16F03E1B067DB
:102F200001D03DD00900F550AB6F0900F550AC6FF2
:102F30000900F550AD6F09000900F550E96E090070
:102F4000F550EA6E090009000900F550AE6F09005E
:102F5000F550AF6F09000900F6CFB2F1F7CFB3F12A
:102F6000F8CFB4F1ABC1F6FFACC1F7FFADC1F8FFCC
:102F70000101AE5302E1AF5307E00900F550EE6ED8
:102F8000AE07F8E2AF07F9D7B2C1F6FFB3C1F7FF5A
:102F9000B4C1F8FF0101B007000EB15BBFD712004A
:102FA000D9CFE6FFDACFE6FFE1CFD9FFE2CFDAFFF4
:102FB000FF0EE76EFC0EDBCF10F0E750101610503E
:102FC000A96EFB0EDB50A86EA69EA69CA684F29E60
:102FD000550EA76EAA0EA76EA682A6B2FED7F28ED7
:0E2FE000A694E552E5CFDAFFE7CFD9FF120045
:022FEE00006A77
:102FF0000EAE00EF18F00D6C0E1EE86A0E22001ED9
:1030000009AE08EF18F0086C091EE86A0922001ED4
:1030100052EC18F009BE18EF18F000AE000C086C66
:10302000091EE86A0922046C051EE86A0522000CE4
:0A30300000BE0FEF18F00188FF0C3E
:06303A00706F72740000CB
:1030400000000000FF00627574746F6E0000E77985
:10305000BC866772657900000000A1E6DCEA64695D
:103060007374616E63007392CE9E6770696F000027
:06307000000000FFFFFF5D
:0A307600FF0EE350216EEF0E01D0B3
:10308000F30EE76EE72E42EF18F00C0E206EE76AA3
:10309000E72E48EF18F0202E47EF18F0212E40EFD2
:0430A00018F0120012
:0C30A400056A046A100EE76ED89008362A
:1030B0000936043605360D50045C0E50055805E3FC
:1030C0000D50045E0E50055A082AE72EF0D7120064
:1030D000000EF36E00EE00F0080E01D81200EA6058
:1030E00002D0EE6AFCD7F350E9601200EE6AFCD71A
:1030F00013EE00F023EE00F0F86A019C81EC17F06B
:0C31000086EC18F01FEC07F0FBD7120063
:02310C001200AF
:02310E0040403F
:0431100040404040BB
:0C311400DC60786022613E615C601E623D
:10312000BA61646280629E616063FC62A663C2638E
:10313000E062A2643E64E86404652264E46580653C
:103140002A66466664652267C2666C678867A666FB
:0231500032014A
:0231520000007B
:0533AB00082046205837
:1033B0002061646D696E000000284A684A644A67AB
:1033C00070696F0000000078589A59D259706E7079
:1033D0000000000000545ECC5EC85E706F72740026
:1033E0000000009068F868E4686C6261636B00003C
:1033F00000F6694C6A386A6275746961000000E819
:103400006B6E6C5A6C627574746F6E0000C46D4A9A
:103410006E366E64697374616E6300D06F5670426D
:103420007067726579000000005C74B2749E746D00
:073430006F746F727300005E
:0440AC00D9CFE6FF83
:1040B000E1CFD9FFFD0EDBCF10F0FE0EDBCF11F00C
:1040C000113404E210500008000E115402E3000EF7
:1040D00001D0010E00D0E552E7CFD9FF1200D9CFB1
:1040E000E6FFE1CFD9FFFE0EDB50000803E2010E30
:1040F00003D002D0FF0E00D0E552E7CFD9FF120067
:10410000D9CFE6FFE1CFD9FFFE0EDBCFE6FFFD0EF4
:10411000DB50000EF350E552E710106E116A10C02C
:10412000F3FF11C0F4FF00D0E552E7CFD9FF120032
:10413000D9CFE6FFE1CFD9FFFD0EDBCF10F0FE0EA9
:10414000DBCF11F011C010F0116A105000D0E55211
:10415000E7CFD9FF1200AC6AAC9CAC9AAC98AC9695
:10416000AC84AB6AAB8EAB9CAB98B86AB886040ED5
:10417000AF6EF28EF28C948E1200AB98949CAC8A47
:104180001200948CAC9AAB8801018A6B12009D9A44
:10419000AB98AC9A1200D9CFE6FFE1CFD9FFACA221
:1041A000FED7FE0EDB50AD6EFE0EDB5000D0E552AA
:1041B000E7CFD9FF1200D9CFE6FFE1CFD9FF020E3A
:1041C000E126010EDB6AD9DFE668E5DFE552E66845
:1041D000E2DFE552FE0EDBCFE6FFDDDFE552106EDB
:1041E000010EDBCFE7FF1050E726010EE7CFDBFF24
:1041F000FD0EDB50020FE66ECEDFE552106E010EB3
:10420000DBCFE7FF1050E726010EE7CFDBFFFC0E08
:10421000DBCFE6FFC0DFE552106E010EDBCFE7FF1C
:104220001050E726010EE7CFDBFFDF6AFD0EDB5003
:10423000DF5C1BE2DF50E76EFA0EDBCFE9FFFB0E1F
:10424000DBCFEAFFE750E926000EEA22EF50E66EE8
:10425000A2DFE552106E010EDBCFE7FF1050E7261C
:10426000010EE7CFDBFFDF2AE1D7010EDB1CE66E94
:1042700092DFE552ACA2FED784DF020EE15C02E2DF
:10428000E16AE552E16EE552E7CFD9FF1200D9CFDE
:10429000E6FFE1CFD9FF020EE126980EDE6E3A0E60
:1042A000DD6E9E50200B0CE1DFCF10F0DF06010E1B
:1042B000DBCF11F001E2DB061050111001E0F1D765
:1042C0009E9AAE50106E020EE15C03E200D0E16AED
:1042D000E552E16E1050E552E7CFD9FF1200D9CF79
:1042E000E6FFE1CFD9FF050EE126010EF36E040EC5
:1042F000F3CFDBFF030EDB6ADF6A01018A6B030E7B
:10430000DB5065E1DF5063E1040EDB50050A45E058
:10431000010A31E0070A0DE0020A03E0030A01E0A6
:1043200053D0B5DFFF0803E1040EDB2A01D0DF2AFA
:104330004DD0ADDFE66EFD0EDBCFE9FFFE0EDBCF2D
:10434000EAFFE552E750EE6EED6AFD0EDBCFE9FFC6
:10435000FE0EDBCFEAFFEECF10F0EFCF11F01134FD
:1043600004E21050FE08000E115403E3040EDB2A91
:1043700001D0DF2A2BD08BDFE76E010EE7CFDBFF0A
:10438000200EF36E010EDBCFF4FFF350F45C03E27A
:10439000040EDB2A01D0DF2A19D079DFE66E010195
:1043A0008A51EA6A6A0FE96E010EEA22E552E75085
:1043B000EF6E8A2B010EDB508A5D05E3010EF36E72
:1043C000030EF3CFDBFF02D0010EDF6E98D7DFDEE6
:1043D000DF5019E0FD0EDBCFE9FFFE0EDBCFEAFF79
:1043E000EE68ED68FB0EDBCFE9FFFC0EDBCFEAFFEA
:1043F000EE68ED68F90EDBCFE9FFFA0EDBCFEAFFDE
:10440000EE68ED683FD001016A51E66EFB0EDBCF2E
:10441000E9FFFC0EDBCFEAFFE552E750EE6EED6AF6
:10442000010EDB50040A10E0070A01E023D06B51B3
:10443000E66EF90EDBCFE9FFFA0EDBCFEAFFE552BD
:10444000E750EE6EED6A1ED06CC1E6FF6BC1E6FF71
:1044500057DEE552E552F3CF10F0F4CF11F0F90E2C
:10446000DBCFE9FFFA0EDBCFEAFF10C0EEFF11C091
:10447000EDFF08D0F90EDBCFE9FFFA0EDBCFEAFF44
:10448000EE68ED68010ED880DF5400D0106E050E86
:10449000E15C02E2E16AE552E16E1050E552E7CFDD
:1044A000D9FF1200D9CFE6FFE1CFD9FF110EE126E7
:1044B000FD0EDB50E76E010EE7CFDBFFDF6AFC0E7F
:1044C000DB50DF5C1FE2DF50E76EFA0EDBCFE9FF67
:1044D000FB0EDBCFEAFFE750E926000EEA22EF50A1
:1044E000E66ED950010F106EDACF11F0DF280F0100
:1044F0001024E96E000E1120EA6EE552E750EF6ECF
:10450000DF2ADDD7D950010FE66E000EDA20E66E05
:10451000030EE66EFC0EDB28E66EFE0EDBCFE6FF3A
:104520004ADE106E050EE15E1050680EE66E010E5A
:10453000E66E660EE66E010EE66E640EE66E010E27
:10454000E66ECDDE106E060EE15E1050106E110E9E
:10455000E15C03E200D0E16AE552E16E1050E55201
:10456000E7CFD9FF1200D9CFE6FFE1CFD9FF020E86
:10457000E126FD0EDB50DF6EFC0EDB50E76E010E18
:10458000E7CFDBFFD9CFE6FFDACFE6FF020EE66E1C
:10459000E66EFE0EDBCFE6FF0EDE106E050EE15E70
:1045A0001050680EE66E010EE66E660EE66E010EA7
:1045B000E66E640EE66E010EE66E91DE106E060E7D
:1045C000E15E1050106E020EE15C03E200D0E16A81
:1045D000E552E16E1050E552E7CFD9FF1200D9CF76
:1045E000E6FFE1CFD9FF000EE66EE66A060EE66E44
:1045F000FE0EDBCFE6FF09D8E552E552E552E55263
:1046000000D0E552E7CFD9FF1200D9CFE6FFE1CFC6
:10461000D9FF110EE126DF6AFD0EDB50060A34E0F9
:104620000E0A32E0060A30E0100A2EE03E0A2CE0C4
:10463000020A2AE0120A28E0330A23E0070A21E0EE
:10464000010A1FE00E0A1DE0070A1BE0010A19E03B
:104650001D0A17E0010A15E0030A13E0010A11E040
:104660000B0A0FE0010A0DE0030A0BE0010A09E062
:10467000070A07E0010A05E0310A03E0030A01E046
:1046800006D0010EDF6E03D0020EDF6E00D0FD0EED
:10469000DB50E76E010EE7CFDBFFFF0EE76EFB0E90
:1046A000DBCF10F0FC0EDBCF11F0E7501016116AD3
:1046B000020E10C0DBFFDF50010810E2FB0EDBCF63
:1046C00010F0FC0EDBCF11F0000E1016FF0E1116CD
:1046D00011C010F0116A030E10C0DBFFD950010F9A
:1046E000E66E000EDA20E66E030EE66EDF28E66E5A
:1046F000FE0EDBCFE6FF5FDD106E050EE15E1050B3
:10470000680EE66E010EE66E660EE66E010EE66E51
:10471000640EE66E010EE66EE2DD106E060EE15EE0
:104720001050106E110EE15C03E200D0E16AE55218
:10473000E16E1050E552E7CFD9FF1200D9CFE6FF66
:10474000E1CFD9FF000EE66EE66A060EE66EFE0EBB
:10475000DBCFE6FF5ADFE552E552E552E552FD0EAA
:10476000DB500EE0000EE66EE66A080EE66EFE0E08
:10477000DBCFE6FF4ADFE552E552E552E5520DD0C8
:10478000E668030EE66E080EE66EFE0EDBCFE6FF71
:104790003CDFE552E552E552E552E552E7CFD9FF5D
:1047A0001200D9CFE6FFE1CFD9FFFC0EDBCF10F02E
:1047B000FD0EDBCF11F00001800E111402E0FB0EA4
:1047C000DB70FC0EDBCF12F0FD0EDBCF13F0800EA2
:1047D00013140BE0FC0EDBCF10F0FD0EDBCF11F05D
:1047E000106C111E000E112206D0FC0EDBCF10F053
:1047F000FD0EDBCF11F0FC0E10C0DBFFFD0E11C073
:10480000DBFFFB0EDB50106E116A0A0ED8901036DB
:104810001136E806FBE1D950FC0FE96EFF0EDA20F5
:10482000EA6E1050EE121150ED12FC0EDBCFE6FFD7
:10483000FD0EDBCFE6FF200EE66EFE0EDBCFE6FFC1
:10484000E4DEE552E552E552E552E552E7CFD9FF05
:104850001200D9CFE6FFE1CFD9FF020EE126060E06
:10486000E66E240EE66EFD0EDBCFE6FF7CDEE55243
:10487000E552E552E76E010EE7CFDBFFDF6A030E7C
:10488000DF5C01E3A6D0010E0101156A6825146EF4
:1048900069511522DF50E8240F011424E96E000E3F
:1048A0001520EA6E6A0EE926010EEA22EF50E66E46
:1048B000DF50E8240101EA6A6825E96E6951EA22BD
:1048C0006A0EE926010EEA22EF50E66E19DCE55287
:1048D000E552F3CF12F0F4CF13F0116ADF34FE0B80
:1048E0001136106EFB0EDB501024E96EFC0EDB500F
:1048F0001120EA6E12C0EEFF13C0EDFFDF5000087A
:1049000066E2176ADF34FE0B1736166EFB0EDB50BD
:104910001624E96EFC0EDB501720EA6EEECF14F081
:10492000EFCF15F0FF0E1416030E151614C0E6FF98
:1049300015C0E6FFFE0EDBCFE6FF1D6ADF34FE0B7F
:104940001D361C6EFB0EDB501C24E96EFC0EDB508A
:104950001D20EA6EEECF1AF0EFCF1BF01B3404E2FD
:104960001A50FF08030E1B5402E3000E01D0010E83
:10497000E552E718E66E6FEC20F0E552E552E7CF1E
:1049800015F0E552E7CF14F0186E196A18BE1968D1
:10499000000118501402F3CF12F0F4CF13F01502F7
:1049A000F350132619501402F3501326116ADF3402
:1049B000FE0B1136106EFB0EDB501024E96EFC0E60
:1049C000DB501120EA6E12C0EEFF13C0EDFFDF2AAC
:1049D00056D7FE0EDB5019E0FB0EDBCFE9FFFC0ED5
:1049E000DBCFEAFFEECF10F0EFCF11F0FF0ED88053
:1049F0001056030E1156FB0EDBCFE9FFFC0EDBCF8A
:104A0000EAFF10C0EEFF11C0EDFF010EDB50106E8B
:104A1000020EE15C03E200D0E16AE552E16E105063
:104A2000E552E7CFD9FF1200D9CFE6FFE1CFD9FF9A
:104A3000900EE66E4A0EE66EFE0EDBCFE6FF28EC29
:104A400026F0E552E552E552FE0EDBCFE6FF85EC9F
:104A50002BF0E552F3CFDAF1F4CFDBF1E552E7CFFB
:104A6000D9FF120012001200D9CFE6FFE1CFD9FF23
:104A7000FE0EDBCFE6FF14EC26F0E552FE0EDBCF98
:104A8000E6FF40EC26F0E552E552E7CFD9FF1200F1
:104A9000D9CFE6FFE1CFD9FF0E0EE126010EDB6A8A
:104AA000040E00C1DBFF050E01C1DBFF060E02C1D3
:104AB000DBFF070E03C1DBFF080E04C1DBFF090E9D
:104AC00005C1DBFF0A0E06C1DBFF0B0E07C1DBFFD2
:104AD0000C0E08C1DBFF0D0E09C1DBFFFD0EDBCFA5
:104AE000E9FFFE0EDBCFEAFFEF50010A29E0010AE1
:104AF00001E05FD0FD0EDBCFE9FFFE0EDBCFEAFF6A
:104B0000EF50E66EDAC1E9FFDBC1EAFFE552E7509C
:104B1000EF6EDAC1E9FFDBC1EAFF010EE926000E04
:104B2000EA22010EEF6EDAC1E9FFDBC1EAFF020EF5
:104B3000E926000EEA22EF6ADE52030EDD6E39D05E
:104B4000FD0EDBCFE9FFFE0EDBCFEAFFEF50E66E96
:104B5000DAC1E9FFDBC1EAFFE552E750EF6E0A0E6A
:104B6000DBCF10F00B0EDBCF11F004D011C0FAFF39
:104B70001050F96EFBDF020EF3CFDBFF030EF4CF14
:104B8000DBFFDAC1E9FFDBC1EAFF010EE926000E17
:104B9000EA22020EDBCFEFFFDAC1E9FFDBC1EAFF59
:104BA000E926000EEA22030EDBCFEFFFDE52DD6EB8
:104BB00000D0010EDB5016E0DF6804010C51800BC1
:104BC00005E0DF50DF06000801E2F7D70CBF0AD08E
:104BD000010EDBCFE6FFFB0EDBCFE6FFA2EC27F0FA
:104BE000E552E5520E0EE15C02E2E16AE552E16E49
:104BF000E552E7CFD9FF1200D9CFE6FFE1CFD9FFC9
:104C0000FE0EEA6ADB34FE0BEA36E96EA40EE926F4
:104C1000000EEA22FC0EDBCFEEFFFD0EDBCFEDFF38
:104C2000E552E7CFD9FF1200D9CFE6FFE1CFD9FF98
:104C3000FE0EEA6ADB34FE0BEA36E96EA40EE926C4
:104C4000000EEA22EE6AED6AE552E7CFD9FF1200C4
:104C5000D9CFE6FFE1CFD9FFFE0EEA6ADB34FE0BC7
:104C6000EA36E96EC40EE926000EEA22FC0EDBCF1E
:104C7000EEFFFD0EDBCFEDFFE552E7CFD9FF1200CF
:104C8000D9CFE6FFE1CFD9FFFE0EEA6ADB34FE0B97
:104C9000EA36E96EC40EE926000EEA22EE6AED6AF3
:104CA000E552E7CFD9FF12001200D9CFE6FFE1CFDE
:104CB000D9FF090EE126DF6A060E0101C95D03E393
:104CC0006D50020B01E034D1010EDB68F36E060E6D
:104CD000F3CFDBFFDBCF10F000016051D880105420
:104CE00001E226D1060EDB50E824040DF3CFE9FFE4
:104CF000F4CFEAFF000EE926040EEA22EF50800B03
:104D000001E013D1010EDBCF10F0060EDB50E824DA
:104D1000040DF3CFE9FFF4CFEAFF000EE926040EFD
:104D2000EA22EE52EF50D880105410E2060EDB500B
:104D3000E824040DF3CFE9FFF4CFEAFF000EE926E3
:104D4000040EEA22EE52010EEFCFDBFF060EDB501F
:104D5000E824040DF3CFE9FFF4CFEAFF000EE926C3
:104D6000040EEA22020EE926000EEA22070EEECF1A
:104D7000DBFF080EEDCFDBFF070EDBCFE9FF080EF0
:104D8000DBCFEAFFEF50F80BE842E842E842E96E79
:104D9000EA6AD890E936EA36C40EE926000EEA221D
:104DA000EECF10F0EFCF11F0070EDBCFE9FF080ECA
:104DB000DBCFEAFFEF50F80BE842E842E842E66E4C
:104DC000010EDB50FD0FE66E060EDB50E824040DED
:104DD000F3CFE9FFF4CFEAFF000EE926040EEA2242
:104DE000020EE926000EEA22EECF12F0EFCF13F00A
:104DF000030E1226000E132212C0E6FF13C0E6FFB8
:104E000004D011C0FAFF1050F96EFBDFE552E552F5
:104E1000E552E552060EDBCFE6FFE0EC2BF0E55263
:104E2000E66E060EDB50E824040DF3CFE9FFF4CF65
:104E3000EAFF000EE926040EEA22EE52E552E750A0
:104E4000EF6E030EF36E060EDBCFF4FFF350F45C4F
:104E50004CE2400E106E060EDB50E824040DF3CF3A
:104E6000E9FFF4CFEAFF000EE926040EEA22105013
:104E7000EF16060EDB50E824040DF3CFE9FFF4CF64
:104E8000EAFF000EE926040EEA22EF50400B400A2A
:104E900001E0010E106E060EDB50E824040DF3CF86
:104EA000E9FFF4CFEAFF000EE926040EEA221050D3
:104EB000010BF36EF346F346F346F346F346F3462F
:104EC000BF0EEF14F310EF6E880E106E060EDB505F
:104ED000E824040DF3CFE9FFF4CFEAFF000EE92642
:104EE000040EEA221050EF1220D0400E106E060E73
:104EF000DB50E824040DF3CFE9FFF4CFEAFF000E06
:104F0000E926040EEA221050EF16880E106E060EE7
:104F1000DB50E824040DF3CFE9FFF4CFEAFF000EE5
:104F2000E926040EEA221050EF12060EDB2AD2D632
:104F3000090EE15C02E2E16AE552E16EE552E7CF7B
:104F4000D9FF1200D9CFE6FFE1CFD9FF060EE12647
:104F5000FE0EDB50040DF3CFE9FFF4CFEAFF610E44
:104F6000E926000EEA22010EEECFDBFF020EEECFA5
:104F7000DBFF030EEECFDBFF040EEECFDBFFD950DD
:104F8000010FE96EDACFEAFFEF500F0BE76E050E67
:104F9000E7CFDBFFFD0EDBCF10F010C0E6FF050E04
:104FA000DBCFE6FFEAEC2BF0E552E552E7CF10F05D
:104FB000FD0FD88010540BE2050EDBCFE6FFEAECC4
:104FC0002BF0E552FD0FE76EFD0EE7CFDBFFFE0E87
:104FD000DB5000011F0BF36EF346F346F346070E5A
:104FE000E415F310E46FE491E493E495050EDB50CF
:104FF000E824010F040DF3CFE9FFF4CFEAFF000E20
:10500000E926040EEA22020EE926000EEA22EE50FC
:10501000EFCFEAFFE96EE4C0EFFFFD0EDB50030FB8
:10502000E66E050EDB50E824010F040DF3CFE9FF17
:10503000F4CFEAFF000EE926040EEA22020EE9266A
:10504000000EEA22EE50EFCFEAFFE96E010EE926EC
:10505000000EEA22E552E750EF6E050EDB50E82421
:10506000010F040DF3CFE9FFF4CFEAFF000EE926AC
:10507000040EEA22020EE926000EEA22EE50EFCFDD
:10508000EAFFE96E020EE926000EEA22EF6AFD0E43
:10509000DB50030FE66E050EDB50E824010F040D14
:1050A000F3CFE9FFF4CFEAFF000EE926040EEA226F
:1050B000EE52E552E750EF6E030EF36E050EDBCFB6
:1050C000F4FFF350F45C50E2400E106E050EDB501E
:1050D000E824010F040DF3CFE9FFF4CFEAFF000E3F
:1050E000E926040EEA221050EF16050EDB50E824E4
:1050F000010F040DF3CFE9FFF4CFEAFF000EE9261C
:10510000040EEA22EF50400B400A01E0010E106E3F
:10511000050EDB50E824010F040DF3CFE9FFF4CFB7
:10512000EAFF000EE926040EEA221050010BF36E8E
:10513000F346F346F346F346F346F346BF0EEF1449
:10514000F310EF6E880E106E050EDB50E824010F91
:10515000040DF3CFE9FFF4CFEAFF000EE926040EB9
:10516000EA221050EF1222D0400E106E050EDB50D6
:10517000E824010F040DF3CFE9FFF4CFEAFF000E9E
:10518000E926040EEA221050EF16880E106E050E66
:10519000DB50E824010F040DF3CFE9FFF4CFEAFF61
:1051A000000EE926040EEA221050EF12060EE15C12
:1051B00002E2E16AE552E16EE552E7CFD9FF120063
:1051C000D9CFE6FFE1CFD9FFE652DF6A100EDF5CF0
:1051D0003DE2DF50040DF3CFE9FFF4CFEAFF610EAB
:1051E000E926000EEA22EF50200B2EE0DF50040DDE
:1051F000F3CFE9FFF4CFEAFF610EE926000EEA22C1
:10520000FE0EDBCFEFFFDF50040DF3CFE9FFF4CF4D
:10521000EAFF610EE926000EEA22EF9ADF50040D44
:10522000F3CFE9FFF4CFEAFF610EE926000EEA2290
:10523000020EE926000EEA22FC0EDBCFEEFFFD0E89
:10524000DBCFEDFFDF5004D0DF2AC0D7FF0E00D048
:10525000E552E552E7CFD9FF1200D9CFE6FFE1CF03
:10526000D9FFFB0EDB50040DF3CFE9FFF4CFEAFFCB
:10527000610EE926000EEA22EF50200B33E0FB0E10
:10528000DB50040DF3CFE9FFF4CFEAFF610EE9260E
:10529000000EEA22FE0EDBCFEFFFFB0EDB50040D0B
:1052A000F3CFE9FFF4CFEAFF610EE926000EEA2210
:1052B000EF9AFB0EDB50040DF3CFE9FFF4CFEAFFCA
:1052C000610EE926000EEA22020EE926000EEA220D
:1052D000FC0EDBCFEEFFFD0EDBCFEDFFFB0EDB5058
:1052E00003D002D0FF0E00D0E552E7CFD9FF120065
:1052F000D9CFE6FFE1CFD9FFE652DF6A100EDF5CBF
:105300001EE2DF50040DF3CFE9FFF4CFEAFF610E98
:10531000E926000EEA22020EE926000EEA22EECF6E
:1053200010F0EFCF11F0FD0EDB50101803E1FE0E70
:10533000DB50111802E1010E04D0DF2ADFD7000E86
:1053400000D0E552E552E7CFD9FF1200D9CFE6FFF2
:10535000E1CFD9FFE652DF6A100EDF5C1DE2DF50BD
:10536000040DF3CFE9FFF4CFEAFF610EE926000E4A
:10537000EA22EF8ADF50040DF3CFE9FFF4CFEAFF12
:10538000610EE926000EEA22020EE926000EEA224C
:10539000EE6AED6ADF2AE0D7EA0EF66E080EF76EC7
:1053A0000800F5CF60F0E552E552E7CFD9FF1200D3
:1053B000D9CFE6FFE1CFD9FF080EE126C7DF610EA6
:1053C000DF6EDE52640EDD6E6D0EF36E020EF3CFF5
:1053D000DBFF690EF36E030EF3CFDBFF6E0EF36E91
:1053E000040EF3CFDBFF050EDB6A060EDB6A070E49
:1053F000DB6ADFEC12F0F3CF61F0F4CF62F0D9CFCB
:10540000E6FFDACFE6FF5AEC14F0E552E552F3CFAF
:1054100063F0F4CF64F0E66A04EC10F0E552700E2D
:10542000DF6EDE526E0EDD6E700EF36E020EF3CF87
:10543000DBFF030EDB6A040EDB6A050EDB6A060E79
:10544000DB6A070EDB6AFDEC12F0F3CF7DF0F4CFE0
:105450007EF0D9CFE6FFDACFE6FF5AEC14F0E55242
:10546000E552F3CF7FF0F4CF80F0070EE66E3CEC10
:105470002CF0E552080EE15C02E2E16AE552E16ED1
:10548000E552E7CFD9FF1200D9CFE6FFE1CFD9FF30
:10549000020EE126100EF36EFE0EDBCFF4FFF3508A
:1054A000F45C57E2FE0EDB50040DF3CFE9FFF4CFBE
:1054B000EAFF610EE926000EEA22EF50200B49E1D7
:1054C000FE0EDB50040DF3CFE9FFF4CFEAFF610ECF
:1054D000E926000EEA22EF8AFE0EDB50040DF3CF20
:1054E000E9FFF4CFEAFF610EE926000EEA22020E80
:1054F000E926000EEA22EECFE6FFEFCFE6FFE1EC71
:1055000015F0E552E552F3CFDEFFF4CFDDFFDECF3D
:1055100010F0DDCF11F0FE0EDBCFE6FF04D011C09E
:10552000FAFF1050F96EFBDFE552FE0EDB50040D62
:10553000F3CFE9FFF4CFEAFF610EE926000EEA227D
:10554000020EE926000EEA22EE6AED6A010E03D091
:1055500002D0000E00D0106E020EE15C02E2E16AA1
:10556000E552E16E1050E552E7CFD9FF1200D9CFD6
:10557000E6FFE1CFD9FF020EE126100EF36EFE0E1C
:10558000DBCFF4FFF350F45C3AE2FE0EDB50040D87
:10559000F3CFE9FFF4CFEAFF610EE926000EEA221D
:1055A000EF50200B2CE1FE0EDB50040DF3CFE9FF92
:1055B000F4CFEAFF610EE926000EEA22020EE92688
:1055C000000EEA22EECFE6FFEFCFE6FF09EC16F081
:1055D000E552E552F3CFDEFFF4CFDDFFDECF10F072
:1055E000DDCF11F0FE0EDBCFE6FF04D011C0FAFFD5
:1055F0001050F96EFBDFE552010E03D002D0000E11
:1056000000D0106E020EE15C02E2E16AE552E16E4A
:105610001050E552E7CFD9FF1200D9CFE6FFE1CF16
:10562000D9FF030EE126010EF36E020EF3CFDBFF6E
:10563000100EF36E020EDBCFF4FFF350F45C57E272
:10564000020EDB50040DF3CFE9FFF4CFEAFF610E49
:10565000E926000EEA22EF50200B46E1020EDB5055
:10566000040DF3CFE9FFF4CFEAFF610EE926000E47
:10567000EA22EF8A020EDB50040DF3CFE9FFF4CFEC
:10568000EAFF610EE926000EEA22020EE926000E6C
:10569000EA22EECFE6FFEFCFE6FFE1EC15F0E552B0
:1056A000E552F3CFDEFFF4CFDDFFDECF10F0DDCF2C
:1056B00011F0020EDBCFE6FF04D011C0FAFF10504C
:1056C000F96EFBDFE552020EDB50040DF3CFE9FF6C
:1056D000F4CFEAFF610EE926000EEA22020EE92667
:1056E000000EEA22EE6AED6A020EDB2AA1D7010E55
:1056F000106E030EE15C03E200D0E16AE552E16E58
:105700001050E552E7CFD9FF1200D9CFE6FFE1CF25
:10571000D9FF050EE126FE0EDB50040DF3CFE9FFA5
:10572000F4CFEAFF610EE926000EEA22EECFDFFF9A
:10573000010EEECFDBFF020EEECFDBFF030EEECF4E
:10574000DBFFD9CFE9FFDACFEAFFEF500F0BE76EAF
:10575000040EE7CFDBFFFE0EDB500AE1730E106E86
:10576000040E116E10C0F3FF11C0F4FF1FD01ED045
:10577000040EDB50E824010F040DF3CFE9FFF4CF52
:10578000EAFF000EE926040EEA22020EE926000EC8
:10579000EA22EECF10F0EFCF11F0030E1026000E2C
:1057A000112210C0F3FF11C0F4FF00D0050EE15C20
:1057B00002E2E16AE552E16EE552E7CFD9FF12005D
:1057C000D9CFE6FFE1CFD9FF400E00D0E552E7CFB9
:1057D000D9FF1200D9CFE6FFE1CFD9FF400E00D0AC
:1057E000E552E7CFD9FF1200D9CFE6FFE1CFD9FFCD
:1057F000020EE126010EDB6ADF6A100EDF5C12E2A8
:10580000DF50040DF3CFE9FFF4CFEAFF610EE92684
:10581000000EEA22EF50200B03E1010EDFCFDBFF89
:10582000DF2AEBD7010EDB50106E116A10C0F3FFB8
:1058300011C0F4FF020EE15C03E200D0E16AE55220
:10584000E16EE552E7CFD9FF1200D9CFE6FFE1CFF5
:10585000D9FFE652DF6A060EDF5C09E2DF50EA6A32
:105860008E0FE96E010EEA22EF6ADF2AF4D7E552C5
:10587000E552E7CFD9FF1200D9CFE6FFE1CFD9FF3C
:10588000090EE126FE0EDBCF8BF1880EE66E5D0E73
:10589000E66E8BC1E6FF28EC26F0E552E552E552B4
:1058A0008BC1E6FF85EC2BF0E552F3CF8CF1F4CF02
:1058B0008DF1FDEC12F0F3CF94F1F4CF95F1F4EC0F
:1058C00033F0C3DF700EDF6EDE526F0EDD6E720ED0
:1058D000F36E020EF3CFDBFF740EF36E030EF3CF05
:1058E000DBFF040EDB6A050EDB6A060EDB6A070EC1
:1058F000DB6A010EE66ED9CFE6FFDACFE6FFD5D838
:10590000E552E552E552020EE66ED9CFE6FFDACF58
:10591000E6FFCBD8E552E552E552030EE66ED9CF4D
:10592000E6FFDACFE6FFC1D8E552E552E552040EB4
:10593000E66ED9CFE6FFDACFE6FFB7D8E552E552FB
:10594000E552050EE66ED9CFE6FFDACFE6FFADD819
:10595000E552E552E552060EE66ED9CFE6FFDACF04
:10596000E6FFA3D8E552E552E5527C0EE66E5B0EEB
:10597000E66E200EE66E4E0EE66EFBEC0AF0E55289
:10598000E552E552E552090EE15C02E2E16AE552B8
:10599000E16EE552E7CFD9FF1200D9CFE6FFE1CFA4
:1059A000D9FFFE0EDBCFE6FF14EC26F0E552FE0E2B
:1059B000DBCFE6FF40EC26F0E5527C0EE66E5B0E98
:1059C000E66EA3EC0DF0E552E552E552E7CFD9FFC4
:1059D00012001200D9CFE6FFE1CFD9FF050EE12674
:1059E000DF6ADF6A050EDF5C52E2DF500C0DF3CF99
:1059F000F6FFF4CFF7FF3A0EF626300EF7220A0E26
:105A0000F626000EF7220900010EF5CFDBFF0A0093
:105A1000020EF5CFDBFFDF500C0DF3CFF6FFF4CF16
:105A2000F7FF3A0EF626300EF722080EF626000E85
:105A3000F7220900030EF5CFDBFF0A00040EF5CFB5
:105A4000DBFFFD0EDBCF10F0FE0EDBCF11F0010E01
:105A5000DBCF12F0020EDBCF13F01050125C1150AE
:105A6000135813E3030EDBCF14F0040EDBCF15F055
:105A7000FD0EDBCF16F0FE0EDBCF17F01450165CD8
:105A80001550175802E3DF5004D0DF2AABD7000EC1
:105A900000D0106E050EE15C02E2E16AE552E16EB3
:105AA0001050E552E7CFD9FF1200D9CFE6FFE1CF82
:105AB000D9FF040EE126FD0EDBCFE6FFFE0EDBCFA5
:105AC000E6FF5AEC14F0E552E552020EF3CFDBFF8D
:105AD000030EF4CFDBFFD950020FE96EDACFEAFFF5
:105AE000FF0EEE1801E1ED5031E0FC0EDBCFE6FFDA
:105AF000020EDBCFE6FF030EDBCFE6FF94C1E6FF2D
:105B00002DEC29F0E552E552E552E552E76EFC0E28
:105B1000E7CFDBFF020EDBCFE6FF030EDBCFE6FFB6
:105B2000BDEC15F0E552E552F3CFDEFFF4CFDDFF1B
:105B3000DECF10F0DDCF11F0FC0EDBCFE6FF04D09E
:105B400011C0FAFF1050F96EFBDFE552040EE15C64
:105B500002E2E16AE552E16EE552E7CFD9FF1200B9
:105B6000D9CFE6FFE1CFD9FFFE0EDBCFE6FF44EC55
:105B70002AF0E552E552E7CFD9FF1200D9CFE6FF70
:105B8000E1CFD9FF0A0EE126DF6A060EDF5C01E3F2
:105B9000E3D0DF500A0DF3CFE9FFF4CFEAFF000EA8
:105BA000E926010EEA22060EE926000EEA22EECFD1
:105BB00012F0EFCF13F004D013C0FAFF1250F96EB9
:105BC000FBDFF3CF10F0F4CF11F010C0E6FF11C0EF
:105BD000E6FF00DFE552E552E76E010EE7CFDBFF9F
:105BE000DF50EA6A8E0FE96E010EEA22EF50F36E83
:105BF000010EDB50F35C01E1ADD0DF28E66EB0DFD3
:105C0000E552010EDB500C0DF3CFF6FFF4CFF7FF9A
:105C10003A0EF626300EF7220800020EF5CFDBFF13
:105C2000010EDB500C0DF3CFF6FFF4CFF7FF3A0E69
:105C3000F626300EF722010EF626000EF722080097
:105C4000030EF5CFDBFF010EDB500C0DF3CFF6FF9B
:105C5000F4CFF7FF3A0EF626300EF722020EF626A4
:105C6000000EF7220800040EF5CFDBFF010EDB501B
:105C70000C0DF3CFF6FFF4CFF7FF3A0EF626300EF9
:105C8000F722030EF626000EF7220800050EF5CFC8
:105C9000DBFF010EDB500C0DF3CFF6FFF4CFF7FF67
:105CA0003A0EF626300EF722040EF626000EF722E4
:105CB0000800060EF5CFDBFF010EDB500C0DF3CF15
:105CC000F6FFF4CFF7FF3A0EF626300EF722050E58
:105CD000F626000EF7220800070EF5CFDBFF010EB7
:105CE000DB500C0DF3CFF6FFF4CFF7FF3A0EF6269C
:105CF000300EF722060EF626000EF7220800080ED8
:105D0000F5CFDBFF010EDB500C0DF3CFF6FFF4CF28
:105D1000F7FF3A0EF626300EF722070EF626000E93
:105D2000F7220800090EF5CFDBFFDF28E66ED95019
:105D3000020FE66E000EDA20E66EB7DEE552E5529F
:105D4000E552DF50EA6A8E0FE96E010EEA22010E7B
:105D5000DBCFEFFFDF2A19D77C0EE66E5B0EE66E17
:105D6000200EE66E4E0EE66E6BEC0CF0E552E55240
:105D7000E552E5520A0EE15C02E2E16AE552E16EAB
:105D8000E552E7CFD9FF1200D9CFE6FFE1CFD9FF27
:105D9000020EE126010EDB6AFD0EDBCFE9FFFE0EEF
:105DA000DBCFEAFFEF5001E03CD0FD0EDBCFE9FF97
:105DB000FE0EDBCFEAFFEF50E66E8CC1E9FF8DC12E
:105DC000EAFFE552E750EF6EFD0EDBCFE9FFFE0E76
:105DD000DBCFEAFF010EE926000EEA22EF50E66E65
:105DE0008CC1E9FF8DC1EAFF010EE926000EEA220F
:105DF000E552E750EF6E8CC1E9FF8DC1EAFF020E5C
:105E0000E926000EEA22EF688CC1E9FF8DC1EAFFA6
:105E1000030EE926000EEA22EF68DE52040EDD6E64
:105E200000D0010EDB500CE004010CBF09D0010EC4
:105E3000DBCFE6FF8BC1E6FFA2EC27F0E552E5528F
:105E4000020EE15C02E2E16AE552E16EE552E7CF63
:105E5000D9FF1200D9CFE6FFE1CFD9FFF40EE66EED
:105E60005E0EE66EFE0EDBCFE6FF28EC26F0E55276
:105E7000E552E552FE0EDBCFE6FF85EC2BF0E55256
:105E8000F3CFD8F1F4CFD9F1FE0EDB040A0DF3CF36
:105E9000E9FFF4CFEAFF000EE926010EEA22080E20
:105EA000E926000EEA22EECF10F0EFCF11F0010E3E
:105EB000E66E04D011C0FAFF1050F96EFBDFE55218
:105EC000E552E7CFD9FF120012001200D9CFE6FF4A
:105ED000E1CFD9FFFE0EDBCFE6FF14EC26F0E55252
:105EE000FE0EDBCFE6FF40EC26F0E552E552E7CFB1
:105EF000D9FF1200D9CFE6FFE1CFD9FF0E0EE12680
:105F0000010EDB6A040E00C1DBFF050E01C1DBFFE1
:105F1000060E02C1DBFF070E03C1DBFF080E04C142
:105F2000DBFF090E05C1DBFF0A0E06C1DBFF0B0E0E
:105F300007C1DBFF0C0E08C1DBFF0D0E09C1DBFF43
:105F4000FD0EDBCFE9FFFE0EDBCFEAFFEF50010ACB
:105F500029E0010A01E05FD0FD0EDBCFE9FFFE0E74
:105F6000DBCFEAFFEF50E66ED8C1E9FFD9C1EAFF07
:105F7000E552E750EF6ED8C1E9FFD9C1EAFF010E43
:105F8000E926000EEA22010EEF6ED8C1E9FFD9C161
:105F9000EAFF020EE926000EEA22EF6ADE52030E45
:105FA000DD6E39D0FD0EDBCFE9FFFE0EDBCFEAFF61
:105FB000EF50E66ED8C1E9FFD9C1EAFFE552E750DC
:105FC000EF6E0A0EDBCF10F00B0EDBCF11F004D01A
:105FD00011C0FAFF1050F96EFBDF020EF3CFDBFFAA
:105FE000030EF4CFDBFFD8C1E9FFD9C1EAFF010EF0
:105FF000E926000EEA22020EDBCFEFFFD8C1E9FF4F
:10600000D9C1EAFFE926000EEA22030EDBCFEFFF3B
:10601000DE52DD6E00D0010EDB5016E0DF680401B9
:106020000C51800B05E0DF50DF06000801E2F7D7D6
:106030000CBF0AD0010EDBCFE6FFFB0EDBCFE6FF85
:10604000A2EC27F0E552E5520E0EE15C02E2E16AB5
:10605000E552E16EE552E7CFD9FF1200D9CFE6FF56
:10606000E1CFD9FFFE0EDB50E8B09282E8A0929219
:10607000E552E7CFD9FF1200D9CFE6FFE1CFD9FF34
:10608000030EE126DE6ADD6A020EDB68C29AC29860
:10609000C296C284C282C250020B08E0020EDBCF5D
:1060A000F3FFDB06F350000801E2F5D7C350DF6EC3
:1060B000010EC4CFDBFFDECF10F0DDCF11F010C03A
:1060C000F3FF11C0F4FF030EE15C03E200D0E16ACC
:1060D000E552E16EE552E7CFD9FF1200D9CFE6FFD6
:1060E000E1CFD9FF020EE126C7DFF3CFDEFFF4CF09
:1060F000DDFFD950010FE96EDACFEAFFEF50800BD8
:1061000002E0010E02D0000E00D0106E020EE15C23
:1061100002E2E16AE552E16E1050E552E7CFD9FFA5
:106120001200D9CFE6FFE1CFD9FFFE0EDB50E8B079
:106130008082E8A08092E552E7CFD9FF1200D9CF44
:10614000E6FFE1CFD9FF030EE126020EDB68C29A1B
:10615000C298C296C294C282C250020B08E0020EDC
:10616000DBCFF3FFDB06F350000801E2F5D7C350A5
:10617000DF6E010EC4CFDBFFDECF10F0DDCF11F0FC
:1061800010C0F3FF11C0F4FF030EE15C03E200D086
:10619000E16AE552E16EE552E7CFD9FF1200D9CFAF
:1061A000E6FFE1CFD9FFFE0EDB50E8B09286E8A013
:1061B0009296E552E7CFD9FF1200D9CFE6FFE1CFA3
:1061C000D9FF030EE126DE6ADD6A020EDB68C29AA1
:1061D000C298C286C284C282C250020B08E0020E7C
:1061E000DBCFF3FFDB06F350000801E2F5D7C35025
:1061F000DF6E010EC4CFDBFFDECF10F0DDCF11F07C
:1062000010C0F3FF11C0F4FF030EE15C03E200D005
:10621000E16AE552E16EE552E7CFD9FF1200D9CF2E
:10622000E6FFE1CFD9FF020EE126C7DFF3CFDEFFA5
:10623000F4CFDDFFD950010FE96EDACFEAFFEF505E
:10624000800B02E0010E02D0000E00D0106E020E94
:10625000E15C02E2E16AE552E16E1050E552E7CFFF
:10626000D9FF1200D9CFE6FFE1CFD9FFFE0EDB50F8
:10627000E8B08086E8A08096E552E7CFD9FF12000B
:10628000D9CFE6FFE1CFD9FF030EE126020EDB688E
:10629000C29AC298C286C294C282C250020B08E05F
:1062A000020EDBCFF3FFDB06F350000801E2F5D767
:1062B000C350DF6E010EC4CFDBFFDECF10F0DDCFA9
:1062C00011F010C0F3FF11C0F4FF030EE15C03E214
:1062D00000D0E16AE552E16EE552E7CFD9FF120046
:1062E000D9CFE6FFE1CFD9FFFE0EDB50E8B09682B2
:1062F000E8A09692E552E7CFD9FF1200D9CFE6FF8A
:10630000E1CFD9FF030EE126DE6ADD6A020EDB680B
:10631000C29AC288C286C294C282C250020B08E0EE
:10632000020EDBCFF3FFDB06F350000801E2F5D7E6
:10633000C350DF6E010EC4CFDBFFDECF10F0DDCF28
:1063400011F010C0F3FF11C0F4FF030EE15C03E293
:1063500000D0E16AE552E16EE552E7CFD9FF1200C5
:10636000D9CFE6FFE1CFD9FF020EE126C7DFF3CF99
:10637000DEFFF4CFDDFFD950010FE96EDACFEAFF7F
:10638000EF50800B02E0010E02D0000E00D0106E24
:10639000020EE15C02E2E16AE552E16E1050E55264
:1063A000E7CFD9FF1200D9CFE6FFE1CFD9FFFE0E2C
:1063B000DB50E8B08482E8A08492E552E7CFD9FFB1
:1063C0001200D9CFE6FFE1CFD9FF030EE126020E7E
:1063D000DB68C29AC288C286C284C282C250020BE3
:1063E00008E0020EDBCFF3FFDB06F350000801E20A
:1063F000F5D7C350DF6E010EC4CFDBFFDECF10F048
:10640000DDCF11F010C0F3FF11C0F4FF030EE15C0B
:1064100003E200D0E16AE552E16EE552E7CFD9FF31
:106420001200D9CFE6FFE1CFD9FFFE0EDB50E8B076
:10643000928AE8A0929AE552E7CFD9FF1200D9CF0D
:10644000E6FFE1CFD9FF030EE126DE6ADD6A020E28
:10645000DB68C29AC288C296C294C282C250020B42
:1064600008E0020EDBCFF3FFDB06F350000801E289
:10647000F5D7C350DF6E010EC4CFDBFFDECF10F0C7
:10648000DDCF11F010C0F3FF11C0F4FF030EE15C8B
:1064900003E200D0E16AE552E16EE552E7CFD9FFB1
:1064A0001200D9CFE6FFE1CFD9FF020EE126C7DF08
:1064B000F3CFDEFFF4CFDDFFD950010FE96EDACF65
:1064C000EAFFEF50800B02E0010E02D0000E00D078
:1064D000106E020EE15C02E2E16AE552E16E1050DC
:1064E000E552E7CFD9FF1200D9CFE6FFE1CFD9FFC0
:1064F000FE0EDB50E8B0808AE8A0809AE552E7CF34
:10650000D9FF1200D9CFE6FFE1CFD9FF030EE12674
:10651000020EDB68C29AC288C296C284C282C2508E
:10652000020B08E0020EDBCFF3FFDB06F35000089E
:1065300001E2F5D7C350DF6E010EC4CFDBFFDECF23
:1065400010F0DDCF11F010C0F3FF11C0F4FF030E07
:10655000E15C03E200D0E16AE552E16EE552E7CF8B
:10656000D9FF1200D9CFE6FFE1CFD9FFFE0EDB50F5
:10657000E8B09382E8A09392E552E7CFD9FF1200EA
:10658000D9CFE6FFE1CFD9FF030EE126DE6ADD6A4F
:10659000020EDB68C28AC298C286C294C282C2500E
:1065A000020B08E0020EDBCFF3FFDB06F35000081E
:1065B00001E2F5D7C350DF6E010EC4CFDBFFDECFA3
:1065C00010F0DDCF11F010C0F3FF11C0F4FF030E87
:1065D000E15C03E200D0E16AE552E16EE552E7CF0B
:1065E000D9FF1200D9CFE6FFE1CFD9FF020EE12695
:1065F000C7DFF3CFDEFFF4CFDDFFD950010FE96E27
:10660000DACFEAFFEF50800B02E0010E02D0000E5D
:1066100000D0106E020EE15C02E2E16AE552E16E2A
:106620001050E552E7CFD9FF1200D9CFE6FFE1CFF6
:10663000D9FFFE0EDB50E8B08182E8A08192E552DE
:10664000E7CFD9FF1200D9CFE6FFE1CFD9FF030E84
:10665000E126020EDB68C28AC288C296C294C28258
:10666000C250020B08E0020EDBCFF3FFDB06F35053
:10667000000801E2F5D7C350DF6E010EC4CFDBFF87
:10668000DECF10F0DDCF11F010C0F3FF11C0F4FF2A
:10669000030EE15C03E200D0E16AE552E16EE552EF
:1066A000E7CFD9FF1200D9CFE6FFE1CFD9FFFE0E29
:1066B000DB50E8B09386E8A09396E552E7CFD9FF88
:1066C0001200D9CFE6FFE1CFD9FF030EE126020E7B
:1066D000DB68C28AC298C296C284C282C250020BD0
:1066E00008E0020EDBCFF3FFDB06F350000801E207
:1066F000F5D7C350DF6E010EC4CFDBFFDECF10F045
:10670000DDCF11F010C0F3FF11C0F4FF030EE15C08
:1067100003E200D0E16AE552E16EE552E7CFD9FF2E
:106720001200D9CFE6FFE1CFD9FF020EE126DE6AE3
:10673000DD6AC7DFF3CFDEFFF4CFDDFFD950010FF5
:10674000E96EDACFEAFFEF50800B02E0010E02D0D3
:10675000000E00D0106E020EE15C02E2E16AE5522A
:10676000E16E1050E552E7CFD9FF1200D9CFE6FF16
:10677000E1CFD9FFFE0EDB50E8B08186E8A081961C
:10678000E552E7CFD9FF1200D9CFE6FFE1CFD9FF1D
:10679000030EE126020EDB68C28AC298C296C2943A
:1067A000C282C250020B08E0020EDBCFF3FFDB0611
:1067B000F350000801E2F5D7C350DF6E010EC4CFDD
:1067C000DBFFDECF10F0DDCF11F010C0F3FF11C002
:1067D000F4FF030EE15C03E200D0E16AE552E16EF2
:1067E000E552E7CFD9FF1200D9CFE6FFE1CFD9FFBD
:1067F000E652CF0EC1140009C16EF00EC11400099B
:10680000C16EC09EC70EC0143809C06EF80EC01409
:106810000409C06EDF6A060EDF5C1DE2DF500A0D60
:10682000F3CFE9FFF4CFEAFF000EE926010EEA22DA
:10683000080EE926000EEA22EECF10F0EFCF11F09D
:10684000010EE66E04D011C0FAFF1050F96EFBDFA6
:10685000E552DF2AE0D7E552E552E7CFD9FF120033
:10686000D9CFE6FFE1CFD9FFFE0EDB040A0DF3CF4F
:1068700010F0F4CF11F0000E1026010E112210C0FE
:10688000F3FF11C0F4FF00D0E552E7CFD9FF1200AB
:10689000D9CFE6FFE1CFD9FFE652FE0EDBCFCDF137
:1068A000300EE66E690EE66ECDC1E6FF28EC26F0EE
:1068B000E552E552E552E60EE66E680EE66E36ECFF
:1068C00013F0E552E552DF6ECDC1E6FF85EC2BF00B
:1068D000E552F3CFCEF1F4CFCFF1E552E552E7CF59
:1068E000D9FF12001200060E0101C95D03E36D50CD
:1068F000020B01E000D01200D9CFE6FFE1CFD9FFB3
:10690000FE0EDBCFE6FF14EC26F0E552FE0EDBCFE9
:10691000E6FF40EC26F0E552E60EE66E680EE66E07
:1069200078EC13F0E552E552E552E7CFD9FF1200BB
:10693000D9CFE6FFE1CFD9FF0B0EE126D950010FE9
:10694000E96EDACFEAFF4C0EEE6E420EEE6E410EAD
:10695000EE6E430EEE6E4B0EEE6E200EEE6E3A0EA7
:10696000EE6E290EEE6EEE6A0A0EDB6ADB6AFC0E34
:10697000DB50F36E0A0EDBCFF4FFF350F45C1DE244
:106980000A0EDB50E76EFD0EDBCFE9FFFE0EDBCF1C
:10699000EAFFE750E926000EEA22EF50E66E0A0E03
:1069A000DB500101EA6ACE25E96ECF51EA22E552B9
:1069B000E750EF6E0A0EDB2ADAD7FC0EDB50E76EEB
:1069C0000A0EE7CFDBFFDB500CE004010CBF09D05F
:1069D0000A0EDBCFE6FFCDC1E6FFA2EC27F0E552C1
:1069E000E5520B0EE15C02E2E16AE552E16EE5522E
:1069F000E7CFD9FF1200D9CFE6FFE1CFD9FFE652AA
:106A0000FE0EDBCFFDF0740EE66E6A0EE66EFDC084
:106A1000E6FF28EC26F0E552E552E552FDC0E6FF20
:106A200085EC2BF0E552F3CFFEF0F4CFFFF0E5520A
:106A3000E552E7CFD9FF12001200060E0101C95D31
:106A400003E36D50020B01E000D01200D9CFE6FF46
:106A5000E1CFD9FFFE0EDBCFE6FF14EC26F0E552C6
:106A6000FE0EDBCFE6FF40EC26F0E552E552E7CF25
:106A7000D9FF1200D9CFE6FFE1CFD9FF0B0EE126F7
:106A8000020EDB6A090EDB6A0A0EDB6AFD0EDBCF43
:106A9000E9FFFE0EDBCFEAFFEF50FF0A01E179D0FC
:106AA000FC0A22E0010A01E076D0FD0EDBCFE9FF0F
:106AB000FE0EDBCFEAFFEF50E66EFEC0E9FFFFC03F
:106AC000EAFFE552E750EF6EFEC0E9FFFFC0EAFFC4
:106AD000010EE926000EEA22150EEF6E020EF36E8D
:106AE000020EF3CFDBFF58D0FD0EDBCFE9FFFE0E29
:106AF000DBCFEAFFEF50E66EFEC0E9FFFFC0EAFF22
:106B0000E552E750EF6E2A0EF36E030EF3CFDBFF74
:106B1000010EF36E040EF3CFDBFFD950030FE66EC8
:106B2000000EDA20E66E020EE66E020EE66E010E32
:106B3000E66EDBEC20F0106E050EE15E1050D950D1
:106B4000090FE66E000EDA20E66ED950070FE66EEA
:106B5000000EDA20E66ED950050FE66E000EDA2040
:106B6000E66E6FEC21F0106E060EE15E1050DF6EE7
:106B7000FEC0E9FFFFC0EAFF010EE926000EEA228F
:106B8000090EDBCFEFFF020EF36E020EF3CFDBFF39
:106B900003D0FF0001D000D0020EDB501BE0010E3D
:106BA000DB68040104010C51800B08E0010EDBCF0F
:106BB000F3FFDB06F350000801E2F3D704010CBF3A
:106BC00009D0020EDBCFE6FFFDC0E6FFA2EC27F006
:106BD000E552E5520B0EE15C02E2E16AE552E16E3C
:106BE000E552E7CFD9FF1200D9CFE6FFE1CFD9FFB9
:106BF000960EE66E6C0EE66EFE0EDBCFE6FF28EC20
:106C000026F0E552E552E552FE0EDBCFE6FF85ECBD
:106C10002BF0E552F3CFD4F1F4CFD5F1FE0EDBCF5C
:106C2000E6FF30EC34F0E552F3CFE9FFF4CFEAFFB2
:106C3000080EE926000EEA22EECF10F0EFCF11F099
:106C4000010EE66E04D011C0FAFF1050F96EFBDFA2
:106C5000E552E552E7CFD9FF12001200060E0101FE
:106C6000C95D03E36D50020B01E000D01200D9CFE3
:106C7000E6FFE1CFD9FFFE0EDBCFE6FF14EC26F0F6
:106C8000E552FE0EDBCFE6FF40EC26F0E552E55282
:106C9000E7CFD9FF1200D9CFE6FFE1CFD9FF020E2F
:106CA000E126010EDB6AFD0EDBCFE9FFFE0EDBCF36
:106CB000EAFFEF50FF0A5EE0FE0A29E0010A01E068
:106CC0005BD0FD0EDBCFE9FFFE0EDBCFEAFFEF501E
:106CD000E66ED4C1E9FFD5C1EAFFE552E750EF6E99
:106CE000D4C1E9FFD5C1EAFF010EE926000EEA2270
:106CF000010EEF6ED4C1E9FFD5C1EAFF020EE9260D
:106D0000000EEA22EF6ADE52030EDD6E36D0FD0E73
:106D1000DBCFE9FFFE0EDBCFEAFFEF50E66ED4C11A
:106D2000E9FFD5C1EAFFE552E750EF6EFB0EDBCF7E
:106D3000E6FF30EC34F0E552F3CFE9FFF4CFEAFFA1
:106D4000EECF10F0EFCF11F004D011C0FAFF1050C9
:106D5000F96EFBDFE66ED4C1E9FFD5C1EAFF010E93
:106D6000E926000EEA22E552E750EF6EDE52020EEF
:106D7000DD6E03D0FF0001D000D0010EDB5018E023
:106D8000DF68040104010C51800B05E0DF50DF06D1
:106D9000000801E2F6D704010CBF0AD0010EDBCFD8
:106DA000E6FFFB0EDBCFE6FFA2EC27F0E552E55253
:106DB000020EE15C02E2E16AE552E16EE552E7CFE4
:106DC000D9FF1200D9CFE6FFE1CFD9FF720EE66EF0
:106DD0006E0EE66EFE0EDBCFE6FF28EC26F0E552E7
:106DE000E552E552FE0EDBCFE6FF85EC2BF0E552D7
:106DF000F3CFD2F1F4CFD3F1FE0EDBCFE6FF30ECD0
:106E000034F0E552F3CFE9FFF4CFEAFF080EE926AC
:106E1000000EEA22EECF10F0EFCF11F0010EE66E79
:106E200004D011C0FAFF1050F96EFBDFE552E552B5
:106E3000E7CFD9FF12001200060E0101C95D03E37E
:106E40006D50020B01E000D01200D9CFE6FFE1CF78
:106E5000D9FFFE0EDBCFE6FF14EC26F0E552FE0E66
:106E6000DBCFE6FF40EC26F0E552E552E7CFD9FF55
:106E70001200D9CFE6FFE1CFD9FF040EE126030EC1
:106E8000DB6AFD0EDBCFE9FFFE0EDBCFEAFFEF5042
:106E9000FF0A76E0FE0A2BE0010A01E073D0FD0E46
:106EA000DBCFE9FFFE0EDBCFEAFFEF50E66ED2C18B
:106EB000E9FFD3C1EAFFE552E750EF6ED2C1E9FF27
:106EC000D3C1EAFF010EE926000EEA22010EEF6EA1
:106ED000D2C1E9FFD3C1EAFF020EE926000EEA2281
:106EE000EF6A030EF36E030EF3CFDBFF4CD0FD0E03
:106EF000DBCFE9FFFE0EDBCFEAFFEF50E66ED2C13B
:106F0000E9FFD3C1EAFFE552E750EF6EFB0EDBCF9E
:106F1000E6FF30EC34F0E552F3CFE9FFF4CFEAFFBF
:106F2000020EE926000EEA22EECF10F0EFCF11F0AC
:106F300004D011C0FAFF1050F96EFBDFDE52F3CF20
:106F4000DEFFF4CFDDFFDD52D2C1E9FFD3C1EAFF9E
:106F5000010EE926000EEA22010EDBCFEFFFD2C1BF
:106F6000E9FFD3C1EAFF020EE926000EEA22020E73
:106F7000DBCFEFFF030EF36E030EF3CFDBFF03D087
:106F8000FF0001D000D0030EDB5018E0DF680401E1
:106F900004010C51800B05E0DF50DF06000801E220
:106FA000F6D704010CBF0AD0030EDBCFE6FFFB0EC1
:106FB000DBCFE6FFA2EC27F0E552E552040EE15CE0
:106FC00002E2E16AE552E16EE552E7CFD9FF120035
:106FD000D9CFE6FFE1CFD9FF7E0EE66E700EE66EEA
:106FE000FE0EDBCFE6FF28EC26F0E552E552E55237
:106FF000FE0EDBCFE6FF85EC2BF0E552F3CFD0F1B0
:10700000F4CFD1F1FE0EDBCFE6FF30EC34F0E552E9
:10701000F3CFE9FFF4CFEAFF080EE926000EEA22DB
:10702000EECF10F0EFCF11F0010EE66E04D011C0DC
:10703000FAFF1050F96EFBDFE552E552E7CFD9FFBA
:1070400012001200060E0101C95D03E36D50020B30
:1070500001E000D01200D9CFE6FFE1CFD9FFFE0E4C
:10706000DBCFE6FF14EC26F0E552FE0EDBCFE6FFA9
:1070700040EC26F0E552E552E7CFD9FF1200D9CF18
:10708000E6FFE1CFD9FF040EE126030EDB6AFD0E19
:10709000DBCFE9FFFE0EDBCFEAFFEF50FF0A76E021
:1070A000FE0A2BE0010A01E073D0FD0EDBCFE9FF01
:1070B000FE0EDBCFEAFFEF50E66ED0C1E9FFD1C193
:1070C000EAFFE552E750EF6ED0C1E9FFD1C1EAFF18
:1070D000010EE926000EEA22010EEF6ED0C1E9FF93
:1070E000D1C1EAFF020EE926000EEA22EF6A030E82
:1070F000F36E030EF3CFDBFF4CD0FD0EDBCFE9FFC9
:10710000FE0EDBCFEAFFEF50E66ED0C1E9FFD1C142
:10711000EAFFE552E750EF6EFB0EDBCFE6FF30EC07
:1071200034F0E552F3CFE9FFF4CFEAFF020EE9268F
:10713000000EEA22EECF10F0EFCF11F004D011C014
:10714000FAFF1050F96EFBDFDE52F3CFDEFFF4CF13
:10715000DDFFDD52D0C1E9FFD1C1EAFF010EE92612
:10716000000EEA22010EDBCFEFFFD0C1E9FFD1C153
:10717000EAFF020EE926000EEA22020EDBCFEFFF45
:10718000030EF36E030EF3CFDBFF03D0FF0001D03D
:1071900000D0030EDB5018E0DF68040104010C513D
:1071A000800B05E0DF50DF06000801E2F6D704019E
:1071B0000CBF0AD0030EDBCFE6FFFB0EDBCFE6FFF2
:1071C000A2EC27F0E552E552040EE15C02E2E16A2E
:1071D000E552E16EE552E7CFD9FF1200000EE66EF0
:1071E000E66A200EE66EF9C0E6FF05EC23F0E552F4
:1071F000E552E552E5521200010EE66EA80EE66E6B
:10720000FD0EE66EF9C0E6FFD1EC23F0E552E55243
:10721000E552E552DC0EE66E710EE66E880EE66E05
:10722000130EE66E6BEC0CF0E552E552E552E552BA
:107230001200010EE66E580EE66E020EE66EF9C002
:10724000E6FFD1EC23F0E552E552E552E552F80EA7
:10725000E66E710EE66E880EE66E130EE66E6BEC51
:107260000CF0E552E552E552E5521200000EE66ED2
:10727000E66A200EE66EF5C0E6FF05EC23F0E55267
:10728000E552E552E552320EE66E720EE66E880E5B
:10729000E66E130EE66E6BEC0CF0E552E552E5522D
:1072A000E5521200010EE66EA80EE66EFD0EE66EC9
:1072B000F5C0E6FFD1EC23F0E552E552E552E55288
:1072C0006C0EE66E720EE66E880EE66E130EE66EBD
:1072D0006BEC0CF0E552E552E552E5521200010E5E
:1072E000E66E580EE66E020EE66EF5C0E6FFD1ECD5
:1072F00023F0E552E552E552E552A40EE66E720E19
:10730000E66E880EE66E130EE66E6BEC0CF0E55240
:10731000E552E552E5521200010EE66EF5C0E6FFB9
:107320009EEC23F0E552E552010EE66EF9C0E6FF51
:107330009EEC23F0E552E552DE0EE66E720EE66E2E
:10734000D00EE66E070EE66EFBEC0AF0E552E55253
:10735000E552E5521200D9CFE6FFE1CFD9FF0B0E7F
:10736000E126020EDF6E010EDB6A0A0EDB6ADB50DD
:10737000106E116AD890115004E6FF0E105C000EDA
:10738000115862E2000EE66EE66A010EE66EE66AEB
:107390000A0EDBCFE6FFDBEC20F0106E050EE15E9F
:1073A0001050D950080FE66E000EDA20E66ED95064
:1073B000060FE66E000EDA20E66ED950040FE66E78
:1073C000000EDA20E66E6FEC21F0106E060EE15E24
:1073D0001050040EDBCF10F0050EDBCF11F00A0EBB
:1073E000DB50126E136A1250101802E1135011187C
:1073F00028E1D950020F106EDACF11F0010EDB50E8
:107400000F011024E96E000E1120EA6E0A0EDBCF88
:10741000EFFF010EDB2ADF50F36E010EDB50F35C51
:1074200010E1020EDB500001F56FF66BF76BF86BA5
:10743000030EDB50F96FFA6B010EFB6FFC6B6CDF18
:1074400003D00A0EDB2A93D70B0EE15C02E2E16A5D
:10745000E552E16EE552E7CFD9FF1200D9CFE6FF42
:10746000E1CFD9FFFE0EDBCFF2F0DA0EE66E740E3E
:10747000E66EF2C0E6FF28EC26F0E552E552E55252
:10748000F2C0E6FF85EC2BF0E552F3CFF3F0F4CF3A
:10749000F4F0ABEC20F0E552E7CFD9FF1200120078
:1074A000060E0101C95D03E36D50020B01E000D03F
:1074B0001200D9CFE6FFE1CFD9FFFE0EDBCFE6FF0A
:1074C00014EC26F0E552FE0EDBCFE6FF40EC26F092
:1074D000E552E552E7CFD9FF1200D9CFE6FFE1CF61
:1074E000D9FF0D0EE126010EDB6AFD0EDBCFE9FFB1
:1074F000FE0EDBCFEAFFEF50020A01E14CD1030A96
:107500002DE0FE0A29E0FF0A01E059D1FD0EDBCF94
:10751000E9FFFE0EDBCFEAFFEF50E66EF3C0E9FFB6
:10752000F4C0EAFFE552E750EF6EF3C0E9FFF4C0A4
:10753000EAFF010EE926000EEA22010EEF6EF3C00B
:10754000E9FFF4C0EAFF020EE926000EEA22EF6A24
:10755000DE52030EDD6E34D1FF0032D1FD0EDBCFE3
:10756000E9FFFE0EDBCFEAFFEF50E66EF3C0E9FF66
:10757000F4C0EAFFE552E750EF6EFD0EDBCFE9FF06
:10758000FE0EDBCFEAFF010EE926000EEA22020E14
:10759000EFCFDBFFFD0EDBCFE9FFFE0EDBCFEAFF17
:1075A000020EE926000EEA22060EEFCFDBFFFD0EEB
