:100000000C94A5010C94CF010C94CF010C94CF015A
:100010000C94CF010C94CF010C94CF010C94CF0120
:100020000C94CF010C94CF010C94CF010C94CF0110
:100030000C94CF010C94CF010C94CF010C94CF0100
:100040000C94CF010C94CF010C94CF010C94CF01F0
:100050000C94CF010C94CF010C94CF010C94D914C3
:100060000C94CF010C9422170C94CF010C94CF0167
:100070000C94CF010C94CF010C94CF010C94CF01C0
:100080000C94CF010C94CF010C94CF010C94CF01B0
:100090000C94A70F0C94CF010C94CF010C94F10198
:1000A0000C94CF010C94CF010C94CF010C94CF0190
:1000B0000C94CF010C94CF010C94CF010C94CF0180
:1000C0000C94CF010C94CF010C94CF010C94CF0170
:1000D0000C94CF010C94CF010C944E170C94CF01CB
:1000E0000C94CF01A311A111BA11BA11BA11BA110E
:1000F000A311A111A311A111A111BA11BA11BA1121
:10010000A311A111BA11BA11BA11BA11A311A111F7
:10011000A311A111BA11BA11BA11BA11BA11BA11B7
:10012000A311A111A311A111A311A111A311A11137
:10013000A311A111A311A111BA11BA11BA11A111E0
:10014000BA11BA11A3118D128D128D124E124C12CA
:100150004E124C124C128D128D128D124E124C12E8
:100160008D128D128D128D124C124C124C124C129B
:100170008D128D128D128D128D128D124E124C1207
:100180004E124C124E124C124C124C124C124C127B
:100190004C124C124C124C128D124C124C128D12ED
:1001A0004E1207634236B79BD8A71A39685618AE65
:1001B000BAAB558C1D3CB7CC5763BD6DEDFD753E9C
:1001C000F6177231BF000000803F08000000BE92A9
:1001D0002449123EABAAAA2ABECDCCCC4C3E00008C
:1001E0000080BEABAAAAAA3E00000000BF0000002B
:1001F000803F0000000000084178D3BB4387D11343
:100200003D190E3CC3BD4282AD2B3E68EC8276BEEA
:10021000D98FE1A93E4C80EFFFBE01C4FF7F3F00B4
:100220000000000000002100240027002A002D000B
:100230003000330001010000040107010A01000041
:100240002200250028002B002E003100340002017E
:100250000000050108010B0100002000230026001A
:1002600029002C002F0032000001000003010601CC
:10027000090105050505070508080808020202022C
:100280000A0A080804040404010101010101010132
:100290000303030303030303040707070C0C0C0CFD
:1002A0000C0C0C0C020202020606060606060606E6
:1002B0000B0B0B0B0B0B0B0B010210202008081073
:1002C00020401020408002010201080402010102C6
:1002D000040810204080804020100804020180049F
:1002E00002018040201008040201080402010102FA
:1002F0000408102040800102040810204080000003
:10030000090A02080B0C0D07060304010000000097
:1003100000000000000000000000000000000000DD
:1003200000000000000000000000100F0E000000A0
:1003300000000000000000000000000000000000BD
:1003400000000000D101AA05C21811241FBECFEF82
:10035000D1E2DEBFCDBF12E0A0E0B2E0E4E4F0E421
:1003600000E00BBF02C007900D92AE3AB107D9F77B
:1003700017E0AEEAB2E001C01D92A930B107E1F783
:1003800013E0CAE4D3E004C02297FE010E94DB1E02
:10039000C434D107C9F70E94D41A0C9420200C94BD
:1003A0000000089580E290E061E070E00E94DF1EAE
:1003B0008093AE029093AF021092B0021092B102FD
:1003C00080E290E061E070E00E94DF1E8093B20264
:1003D0009093B3021092B4021092B5020E94770378
:1003E00008951F920F920FB60F920BB60F92112421
:1003F0002F933F934F935F936F937F938F939F932D
:10040000AF93BF93EF93FF938091B90090E0887F03
:1004100090708036910509F4E2C081369105CCF5E3
:100420008832910509F47BC089329105B4F480319A
:10043000910509F46FC0813191053CF4009709F4EE
:1004400038C1089709F040C165C08831910509F4A9
:1004500066C0809709F038C17FC08034910509F4E7
:10046000A3C08134910544F48033910509F47FC021
:10047000C89709F029C186C08035910509F486C066
:100480008835910509F495C08834910509F01CC19F
:100490009EC08839910509F404C189399105ECF4AD
:1004A0008837910509F49BC0893791054CF488364B
:1004B000910509F494C08037910509F005C18FC0FA
:1004C0008838910509F4EDC08039910509F48DC093
:1004D0008038910509F0F8C088C0803B910509F487
:1004E000B2C0813B91054CF4803A910509F491C06A
:1004F000883A910509F0E8C0A6C0803C910509F44E
:10050000D4C0883C910509F4D0C0883B910509F01E
:10051000DBC0B1C08091B8028093BB00C0C0909195
:10052000BF028091C002981778F49091BF02E091C9
:10053000BD02F091BE02E90FF11D80818093BB00E6
:100540009F5F9093BF02ABC085ED8093BC0080910C
:10055000BC0084FDFCCFB6C080E28093C80285ED6C
:100560008093BC008091BC0084FDFCCFABC080E3D5
:100570008093C80285ED8093BC008091BC0084FD0F
:10058000FCCFA0C088E38093C8028FC08091BF02D7
:100590009091BB00E091BD02F091BE02E80FF11D09
:1005A00090838F5F8093BF029091BF028091C002C1
:1005B00074C08091BF029091BB00E091BD02F091A8
:1005C000BE02E80FF11D90838F5F8093BF0285ED1F
:1005D0008093BC008091BC0084FDFCCF73C083E09D
:1005E0008093B7021092C7025AC08091C70280322E
:1005F00008F057C08091C7029091BB00E091C502FE
:10060000F091C602E80FF11D90838F5F8093C702BF
:1006100046C08091C702803248F48091C702E091C1
:10062000C502F091C602E80FF11D10826091C70269
:10063000E091BB02F091BC028091C5029091C6028C
:1006400070E0099532C084E08093B7021092C30233
:100650001092C402E091B902F091BA02099580911A
:10066000C402882341F481E08093C402E091C10276
:10067000F091C20210829091C302E091C102F09108
:10068000C202E90FF11D80818093BB009F5F9093B0
:10069000C3029091C3028091C402981710F485ECB4
:1006A00001C085E88093BC000FC085EC8093BC003E
:1006B00009C01092C80285ED8093BC008091BC00F7
:1006C00084FDFCCF1092B702FF91EF91BF91AF91E3
:1006D0009F918F917F916F915F914F913F912F915A
:1006E0000F900BBE0F900FBE0F901F901895109299
:1006F000B702589A599AE9EBF0E080818E7F8083A7
:1007000080818D7F808388E48093B80085E4809326
:10071000BC0080E290E061E070E00E94DF1E809308
:10072000BD029093BE0280E290E061E070E00E9422
:10073000DF1E8093C1029093C20280E290E061E0EC
:1007400070E00E94DF1E8093C5029093C602089558
:100750000F931F938C01FC01848160E00E94E415DB
:1007600081E090E00E945915F801848161E00E94C7
:10077000E41581E090E00E945915F801848160E061
:100780000E94E41584E690E00E9459151F910F9194
:100790000895CF92DF92EF92FF920F931F93CF9322
:1007A000DF93D82EC92E282F392FC9018C01C0E024
:1007B000D0E0E62EFF24F801858161E00E94C41597
:1007C000B7010C2E02C0759567950A94E2F7617027
:1007D000F80185810E94E41521960F5F1F4FC830F4
:1007E000D10549F78D2D9C2D0E94A803DF91CF9153
:1007F0001F910F91FF90EF90DF90CF900895CF92CF
:10080000DF92EF92FF920F931F93CF93DF93D82E37
:10081000C92E282F392FC9018C01C0E0D0E0E62E67
:10082000FF24F801858161E00E94C415B7010C2EF8
:1008300002C0759567950A94E2F76170F8018581A9
:100840000E94E41521960F5F1F4FC430D10549F770
:100850008D2D9C2D0E94A803DF91CF911F910F91A8
:10086000FF90EF90DF90CF9008951F93CF93DF9389
:10087000EC01162F8A81642F0E94E4158B818F3F33
:1008800019F060E00E94E4158D8584FF05C0CE015B
:10089000612F0E94C9030EC0612F70E084E075953E
:1008A00067958A95E1F7CE010E94FF03CE01612F83
:1008B0000E94FF03DF91CF911F91089541E00E94B4
:1008C0003504089540E00E9435040895FC016685D2
:1008D000862F846086876C60CF010E946204089531
:1008E00061E00E94620480ED97E00E94591508952E
:1008F000CF93DF93EC01423018F08D8588608D87AF
:10090000498B1A8A222329F0413019F48D8584609D
:100910008D8780E593EC0E9459158A8160E00E94E2
:10092000E4158C8160E00E94E4158B818F3F19F003
:1009300060E00E94E4156D8564FD1DC0CE0163E09A
:100940000E94FF0384E991E10E945915CE0163E002
:100950000E94FF0384E991E10E945915CE0163E0F2
:100960000E94FF0386E990E00E945915CE0162E0E3
:100970000E94FF0316C06062CE010E94620484E9F7
:1009800091E10E9459156D856062CE010E9462045A
:1009900086E990E00E9459156D856062CE010E9443
:1009A00062046D856062CE010E94620484E08E87DD
:1009B000CE010E946604CE010E94700482E08F87FF
:1009C000CE0166E00E946204DF91CF9108956F929C
:1009D0007F928F92AF92CF92EF920F931F93DF93FC
:1009E000CF93CDB7DEB73C01162F842FF30142839E
:1009F00023830483E582C682A78280869D859187B2
:100A00009E8592879F8593879889948761E00E944D
:100A1000C415F30183818F3F19F061E00E94C41572
:100A2000F301848161E00E94C415112319F0F301E0
:100A3000158603C080E1F3018587C30160E141E0D1
:100A400020E00E947804CF91DF911F910F91EF90E9
:100A5000CF90AF908F907F906F9008958F92AF92CC
:100A6000CF92DF92EF92FF920F931F93CF93DF937A
:100A7000DC01362F542F722F102FFE2CDC2C8A2CE9
:100A800084E892E011969C938E9300D000D0EDB74D
:100A9000FEB73196CDB7DEB719821182128213826A
:100AA000CD0161E0432F252F072FE12ECF2CAD2C58
:100AB0000E94E7040F900F900F900F90DF91CF915D
:100AC0001F910F91FF90EF90DF90CF90AF908F909C
:100AD0000895AC0120E090E0FA01E20FF11D808161
:100AE0008E3F09F42F5FFA01E90FF11DDA01A20F21
:100AF000B11D8C9180839F5F2F5F261768F3892F2C
:100B00000895DC01862F643018F482E090E00895A7
:100B10004C9111966C911197681719F083E090E051
:100B2000089550E083E0559547958A95E1F78BE06D
:100B300090E0489FF001499FF00D589FF00D11245F
:100B4000EF5CFC4F63500084F185E02DCD010396EE
:100B500009950895AF92CF92EF920F93CF93DF93C1
:100B60008AEC92E00E94021082ED92E00E94021054
:100B7000CAEDD2E0CE010E94C912279683E0C231AD
:100B8000D807C1F782E193E064E24FEF25E206E285
:100B9000E7E2EE2E78E2C72E59E2A52E0E942E053E
:100BA000DF91CF910F91EF90CF90AF900895DF92AA
:100BB000EF92FF920F931F93D82E8B011095019502
:100BC0001F4F81700E942E12FAECEF2EF2E0FF2EE2
:100BD000992787FD9095809FB001819F700D909F10
:100BE000700D1124C7010E9491128D2D86950E94CF
:100BF0002E12992787FD9095809FB001819F700DDF
:100C0000909F700D1124C70108960E9491121F91A8
:100C10000F91FF90EF90DF9008950F931F9302E1E3
:100C200013E0C80160E142E020E00E947804C801BE
:100C30000E9470041F910F9108950F931F93CF93FB
:100C4000DF93C0E0D0E08E01A3E0000F111FAA9552
:100C5000E1F706531D4FC80168E141E050E00E94F2
:100C60003112C80161E00E94AE12C8016AE140E0A1
:100C700050E00E943112C8016BE140E050E00E9458
:100C80003112C8016CE14FE550E00E943112C801F9
:100C90006DE14FE550E00E943112C80160E346E982
:100CA00050E00E943112C8016EE04FEF53E00E9405
:100CB0003112C8016BE045E550E00E943112C801D5
:100CC0006CE04CE350E00E943112C8016CE04EEB46
:100CD00050E00E943112C80165E046E950E00E94F0
:100CE0003112C80164EF71E00E94911264EF71E06B
:100CF00080E090E00E942F15C8016CE07EEF0E941A
:100D0000911264EF71E080E090E00E942F15C8011D
:100D100060E070E00E9491122196C230D10509F086
:100D200092CFDF91CF911F910F9108959F92AF9233
:100D3000BF92CF92DF92EF92FF920F931F93DF93B8
:100D4000CF9300D000D0CDB7DEB78091660481701C
:100D50008093660490E063E0880F991F6A95E1F73D
:100D600086539D4FBE016F5F7F4F0E94D5119090BB
:100D70006604A92CBB24F501EE0FFF1F8F010B5D4C
:100D80001C4FD801ED90FC90119789819A811196A2
:100D90009C938E938B819C8149E2C42E43E0D42E98
:100DA000CE0EDF1ED60111969C938E938D819E816F
:100DB000E35DFC4F91838083F501EE0FFF1FEE0F83
:100DC000FF1FE958FD4F608171818281938120E08E
:100DD00030E040E050E00E948A1C18160CF0B9C0C8
:100DE000F80120813181D601ED91FC91F7FF02C01D
:100DF0008FEF05C080E01E161F060CF481E09927D6
:100E000087FD9095E21AF30A8E9DB0018F9D700DBB
:100E10009E9D700D1124882777FD8095982F0E9444
:100E2000DA1B7B018C0120E030E040E85FE30E94A8
:100E3000401B87FD1DC0C801B70120E030E044E23F
:100E400052E40E948A1C18169CF0F501EE0FFF1F59
:100E5000EE0FFF1FE958FD4F608171818281938100
:100E600020E030E040E752E40E94401B1816DCF11D
:100E70008501000F111F075D1C4FF8016081718112
:100E8000882777FD8095982F0E94DA1B2CE338E89D
:100E90004DE95DE30E948E1C20E030E040E050E030
:100EA0000E948A1C181674F4D8016D917C918827D1
:100EB00077FD8095982F0E94DA1B2CE338E84DE9E6
:100EC0005DE30DC0F80160817181882777FD809511
:100ED000982F0E94DA1B2CE338E84DE95DEB0E9465
:100EE0008E1C7B018C016501CC0CDD1CCC0CDD1C47
:100EF00027E732E0C20ED31ED6016D917D918D9110
:100F00009C91A80197010E94DB1A20E030E040E0AC
:100F100050E00E948A1C18162CF060E070E080E01F
:100F200090E009C0F6016081718182819381A801FE
:100F300097010E94DB1AAA0CBB1CAA0CBB1C27E75A
:100F400032E0A20EB31ED5016D937D938D939C93D9
:100F500013979394909266040F900F900F900F90B8
:100F6000CF91DF911F910F91FF90EF90DF90CF9085
:100F7000BF90AF909F900895CF93DF93EA018E3199
:100F800009F463C08F3190F48C3009F440C08D3087
:100F900030F48A30F1F08B3009F0C0C029C08D30B8
:100FA00009F444C0853109F0B9C09AC0813209F40E
:100FB00079C0823238F48F3109F456C0803209F09A
:100FC000ADC061C0823209F47CC0853309F0A6C08F
:100FD00096C0CB0160E072E00E9419208EE39AE097
:100FE0009983888380917A048F5F80937A04A4C068
:100FF000CB0165E072E00E9419208EE39AE09983AC
:101000008883809179048F5F8093790495C0CB01A8
:101010006AE072E00E9419208EE39AE09983888347
:10102000809178048F5F8093780486C0CB016EE056
:1010300072E00E9419208EE39AE099838883809160
:1010400077048F5F8093770477C0CB0165E172E00E
:101050000E94192088E09AE0998388838091760421
:101060008F5F8093760468C0CB016BE172E00E94D1
:1010700019208EE39AE099838883809175048F5FAD
:101080008093750459C0CB0162E272E00E9419207E
:101090008EE39AE099838883809174048F5F8093B4
:1010A00074044AC0CB0167E272E00E9419208EE30B
:1010B0009AE099838883809173048F5F809373048F
:1010C0003BC0CB016DE272E00E9419208EE39AE0F2
:1010D00099838883809172048F5F809372042CC0FF
:1010E000CB0164E372E00E9419208EE39AE09983B9
:1010F0008883809171048F5F809371041DC0CB0140
:1011000069E372E00E94192088EB99E09983888353
:10111000809170048F5F809370040EC0CB016DE3EB
:1011200072E00E9419208DE89AE09983888380916B
:101130006F048F5F80936F048150DF91CF9108958A
:1011400087EC9BE090933A03809339038CE393E020
:1011500065E472E00E94192086EA9BE090934503C3
:101160008093440387E493E06BE472E00E941920CB
:101170008EE49BE09093500380934F0382E593E0CD
:1011800063E572E00E94192080ED9AE090935B0382
:1011900080935A038DE593E06BE572E00E9419207D
:1011A00086E99AE0909366038093650388E693E06E
:1011B00062E672E00E9419208DE89AE09093710334
:1011C0008093700383E793E068E672E00E94192041
:1011D00084E89AE090937C0380937B038EE793E00E
:1011E0006DE672E00E9419208BE79AE090938703E6
:1011F0008093860387E08093650420E04BE050E015
:101200003FEF0BC0849FF001859FF00D949FF00D80
:101210001124EF5CFC4F32872F5F822F90E0283043
:1012200089F708958F929F92BF92CF92DF92EF92AB
:10123000FF920F931F93DF93CF9300D0CDB7DEB70C
:10124000D82E142F8DB69EB6842F90E003962DB71E
:101250003EB7281B390B0FB6F8943EBF0FBE2DBF0B
:10126000EDB6FEB60894E11CF11C2C5F3F4FC9019E
:1012700050E00E9400201D5FDD0CDD0CDD0CF7014D
:10128000D08211831282812F90E0880F991F2DB791
:101290003EB7281B390B0FB6F8943EBF0FBE2DBFCB
:1012A000CDB6DEB60894C11CD11CBB2490E02EEF55
:1012B00019C0F701E90FF11D8081EB2DF0E06B2DD6
:1012C0006F5F8E3F28F4EC0DFD1D8083B62E09C0A4
:1012D000EC0DFD1D2083F601E60FF11D8083B62E77
:1012E000B3949F5F911728F389EB96E06FEF70E05E
:1012F00040E050E00E94C11A89EB96E06B2D40E07F
:1013000050E00E94791AFF2400E013C0C601800F4C
:10131000911D9A83898389EB96E0E981FA81608146
:1013200040E050E00E94791AE981FA818081F80E4C
:101330000F5F0B1558F36F2D70E06F77707089EBAE
:1013400096E040E050E00E94C11A0FB6F8949EBEAD
:101350000FBE8DBE0F900F90CF91DF911F910F9117
:10136000FF90EF90DF90CF90BF909F908F90089567
:10137000FF920F931F93CF93DF93EC01F42E6981BB
:1013800088818823F1F570E0882777FD8095982F74
:101390000E94DA1B20E030E040E05DE30E948E1CFA
:1013A0009B01AC0160E070E080E090E40E94F11CE1
:1013B0009B01AC016F2D70E08BE090E0689FF00125
:1013C000699FF00D789FF00D1124EF5CFC4F0285B2
:1013D00087E0089F8001112406521D4F60E070E0F5
:1013E00080E893E40E94DB1A0E94AC1B9B01AC01D5
:1013F000C801622F0E94DA138F2DBE0141E00E94C6
:10140000120980E0DF91CF911F910F91FF90089515
:101410001F93DF93CF9300D0CDB7DEB7FC01142F1D
:101420008081882321F5242F30E08BE090E0289FF5
:10143000F001299FF00D389FF00D1124EF5CFC4F57
:10144000828527E0829FC001112486529D4F60E073
:101450000E94D01219821A82882311F481E08A83B3
:10146000812FBE016F5F7F4F42E00E94120980E032
:101470000F900F90CF91DF911F9108951F93DF93ED
:10148000CF9300D00F92CDB7DEB7FC01142F80812F
:10149000882349F5242F30E08BE090E0289FF0016D
:1014A000299FF00D389FF00D1124EF5CFC4F8285D1
:1014B00027E0829FC001112486529D4F0E94AD13E8
:1014C000FE01319623E0DF011D922A95E9F719828A
:1014D000292F332727FD3A952A838B83812FBF013C
:1014E00043E00E94120980E00F900F900F90CF917F
:1014F000DF911F9108959C01962F842FB901492FE8
:101500000E94120980E008959C01962F842FB90152
:10151000492F0E94120980E008959C01962F842F84
:10152000B901492F0E94120980E008950F931F937B
:10153000DF93CF9300D00F92CDB7DEB7FC01042F1D
:1015400081811081112319F0113009F50BC00E941F
:10155000ED13FE01319623E0DF011D922A95E9F794
:1015600019820AC00E946F16FE01319623E0DF0146
:101570001D922A95E9F71983292F332727FD3A95DC
:101580002A838B83802FBF0143E00E94120980E0F1
:101590000F900F900F90CF91DF911F910F910895B1
:1015A0009F92AF92BF92CF92DF92EF92FF920F93F2
:1015B0001F93CF93DF93EC01942E8881882321F031
:1015C000813009F057C025C0653008F465C0198125
:1015D000123010F085E054C08A810E942E12082F2C
:1015E0008B816C810E949219212F30E013E0220F31
:1015F000331F1A95E1F7112707FD1095089FB001D9
:10160000099F700D189F700D1124C90186539D4FBD
:101610002FC0673008F440C089810E942E12E82E46
:101620008A816B810E9492195C018C810E942E122A
:10163000082F8D816E810E9492196C01FF24E7FCB6
:10164000F094EA9CB001EB9C700DFA9C700D112493
:101650008AEC92E00E949112112707FD10950C9DD3
:10166000B0010D9D700D1C9D700D112482ED92E056
:101670000E949112892DBE0141E00E94120980E072
:10168000DF91CF911F910F91FF90EF90DF90CF905E
:10169000BF90AF909F90089584E0F2CFDF92EF92D9
:1016A000FF920F931F93CF93DF93EC01062FD42E5D
:1016B000633010F484E042C0188189816A810E94FD
:1016C00092197C01143018F0143089F52BC00530C4
:1016D00031F58B816C810E949219A0E0B0E0BC01D1
:1016E000CD010E94D81B28E93EE64AE550E40E945D
:1016F0008E1C0E94AC1B80E090E00E94D81B60937F
:101700007702709378028093790290937A026093C3
:101710007B0270937C0280937D0290937E02812FE6
:10172000B70103C080E060E070E00E94D705198235
:101730008D2DBE0142E00E94120980E0DF91CF9121
:101740001F910F91FF90EF90DF9008951F93CF931B
:10175000DF93EC01142F8881823019F0833091F4EB
:1017600004C084E1898381E009C08AEC92E06AE2E6
:101770000E948A118091D0028983812FBE0142E0AC
:101780000E94120980E0DF91CF911F9108957F920E
:101790008F929F92AF92BF92CF92DF92EF92FF9281
:1017A0000F931F93DF93CF93CDB7DEB765970FB637
:1017B000F894DEBF0FBECDBF7C01962F942EF701AB
:1017C0008081863009F45CC0873048F4813009F4A8
:1017D00048C0813088F0853009F0BFC04AC08830E9
:1017E00009F468C0883008F440C0893009F47EC02C
:1017F0008A3009F0B2C098C023E0A22EB12CAC0E02
:10180000BD1EB7016D5F7F4FC5010E9419208090FA
:10181000650400E091E0C92ED12CBD8AAC8A7C8899
:101820001D898BE0A82EB12C13C0CA9CB001CB9CA3
:10183000700DDA9C700D11246F5C7C4F872D912FF9
:101840000E9410200894C11CD11C009719F00F5F52
:10185000081558F3081509F40EEF0F5FF70101831F
:101860000CC0842FB701492F76C0842FB70141E007
:1018700072C080916504F7018183892DB7016AC028
:101880008B87F701818190E001962BE030E0829F09
:10189000B001839F700D929F700D11246F5C7C4F7F
:1018A000CE010C960E941920892DBE01655F7F4FE5
:1018B00049E051C08983F701818190E001962BE0D6
:1018C00030E0829FF001839FF00D929FF00D112474
:1018D000EF5CFC4F92859F3F29F187E0989FC00104
:1018E000112486529D4F0E94CA122FC08983F7018E
:1018F000818190E001962BE030E0829FF001839F90
:10190000F00D929FF00D1124EF5CFC4F92859F3FEC
:1019100049F087E0989FC001112486529D4F0E9494
:10192000CD1213C01A8212C08983F701818190E021
:1019300001962BE030E0829FF001839FF00D929F93
:10194000F00D1124EF5CFC4F82858A83892DBE0146
:101950006F5F7F4F42E00E94120980E065960FB6EC
:10196000F894DEBF0FBECDBFCF91DF911F910F91D5
:10197000FF90EF90DF90CF90BF90AF909F908F90AF
:101980007F900895FF920F931F9389EB96E00E943A
:101990007318882309F492C089EB96E00E94871897
:1019A000F82E8FEFF816D9F420916B042E3F31F00A
:1019B0008091670490916804892B11F027FD0FC076
:1019C0008091690490916A04009731F00E94A81FE9
:1019D00010926A041092690481E090E01DC0809129
:1019E00067049091680482309105D9F083309105A5
:1019F00099F1019709F060C0F0926E048F2D90E08C
:101A00000E94FB1E8093690490936A0410926C04F8
:101A100010926D0482E090E09093680480936704D4
:101A20004BC080916D04E0916904F0916A04E80F65
:101A3000F11DF0828F5F80936D0420916C042F0D57
:101A400020936C0490916E048917B1F52F77209341
:101A50006C0483E090E0E0CF80916C04F81611F004
:101A600001E01AC08DE061E00E94E4150091690474
:101A700010916A04C80160916E040E946905682F84
:101A800080936E04C8010E948105082F8DE060E0FC
:101A90000E94E415002361F0E0916904F0916A046A
:101AA0008FEF8083018380E0BF0142E00E94120932
:101AB0001092680410926704F0926B041F910F91CA
:101AC000FF900895DF92EF92FF920F931F93DF93A1
:101AD000CF93CDB7DEB72A970FB6F894DEBF0FBE0F
:101AE000CDBFD82E07E0809F8001112406521D4FE4
:101AF000C8010E94CA12E82EC8010E94CD129AE0C5
:101B0000E99E700111248E010D5F1F4F8E0DB801EB
:101B1000AE014F5F5F4F0E94BC078823A9F0F80118
:101B200001900020E9F731976E2F601B673008F0B5
:101B30006150E62FF0E0DE01AE0FBF1F805D13960F
:101B40008C931397FD011482809165048F5F8093BD
:101B500065042BE0829FC00111248F5C9C4FBE0165
:101B60006D5F7F4F0E9419208091650490E02BE00B
:101B700030E0829FF001839FF00D929FF00D1124C1
:101B8000EF5CFC4F89819A8191878087D2862A9663
:101B90000FB6F894DEBF0FBECDBFCF91DF911F917E
:101BA0000F91FF90EF90DF900895CF92DF92EF9228
:101BB0000F93DF93CF93CDB7DEB7E8970FB6F894C6
:101BC000DEBF0FBECDBF6E010894C11CD11CC60183
:101BD0006AE24BE224E00AE1EE240E948713AAEDB8
:101BE000B2E0F60187E001900D928150E1F758E0F4
:101BF000C52ED12CCC0EDD1EC6016CE24DE225E0D7
:101C00000BE1EE24E3940E948713A1EEB2E0F6010B
:101C100087E001900D928150E1F74FE0C42ED12C66
:101C2000CC0EDD1EC6016EE24FE226E00CE132E092
:101C3000E32E0E948713A8EEB2E0F60187E0019040
:101C40000D928150E1F706E1C02ED12CCC0EDD1EA5
:101C5000C60160E341E327E00DE1B3E0EB2E0E9413
:101C60008713AFEEB2E0F60187E001900D9281504C
:101C7000E1F7ADE1CA2ED12CCC0EDD1EC60162E328
:101C800043E328E00EE1F4E0EF2E0E948713A6EF75
:101C9000B2E0F60187E001900D928150E1F7E4E2B5
:101CA000CE2ED12CCC0EDD1EC60164E345E329E027
:101CB0000FE175E0E72E0E948713ADEFB2E0F60169
:101CC00087E001900D928150E1F76BE2C62ED12C96
:101CD000CC0EDD1EC60166E147E12AE000E256E0D7
:101CE000E52E0E948713A4E0B3E0F60187E001909F
:101CF0000D928150E1F742E3C42ED12CCC0EDD1EB3
:101D0000C60168E149E12BE001E237E0E32E0E94E1
:101D10008713ABE0B3E0F60187E001900D928150AC
:101D2000E1F7E8960FB6F894DEBF0FBECDBFCF91B6
:101D3000DF910F91EF90DF90CF900895EF92FF9297
:101D40000F931F93DF93CF930F92CDB7DEB70E940F
:101D5000C20C0E9421157B018C0180917B04909123
:101D60007C04A0917D04B0917E04A8019701281BFA
:101D7000390B4A0B5B0B243131054105510554F0F9
:101D80000E949606E0927B04F0927C0400937D040E
:101D900010937E04609177027091780280917902AD
:101DA00090917A0220E030E040E050E00E94401B39
:101DB0008823E1F48AEC92E060E240E050E00E9487
:101DC000311284E1898382E0BE016F5F7F4F41E081
:101DD0000E94120980E090E0A0E8BFEB80937702B8
:101DE00090937802A0937902B0937A0260917B027B
:101DF00070917C0280917D0290917E0220E030E023
:101E000040E050E00E94401B8823E1F482ED92E024
:101E100060E240E050E00E94311285E1898382E077
:101E2000BE016F5F7F4F41E00E94120980E090E0A9
:101E3000A0E8BFEB80937B0290937C02A0937D028D
:101E4000B0937E020F90CF91DF911F910F91FF9081
:101E5000EF9008950F931F93DF93CF9300D000D09E
:101E6000CDB7DEB71092C90289EB96E040E052ECA4
:101E700061E070E00E947A1760E472E48FE090E025
:101E80000E94C90FCE01019662E00E94F81089817C
:101E90008093CA028B818093D20281E08093CB022F
:101EA0000E940D060E941D060E94A0080E94D50DEA
:101EB00000E010E0C80163E0880F991F6A95E1F720
:101EC000801B910B86529D4F0E94CA12882319F0E5
:101ED000802F0E94620D0F5F1F4F0830110551F7D0
:101EE0008DE061E00E94C41586EB92E00E94D20171
:101EF0000F900F900F900F90CF91DF911F910F9146
:101F00000895E9ECF0E080818F77808380818F7E77
:101F100080838081886080830895E9ECF0E080818F
:101F2000877F8083808180618083808180688083D7
:101F300010929F040895E9ECF0E080818F77808310
:101F400080818F7E80838081877F808308951F9228
:101F50000F920FB60F920BB60F9211248F939F938F
:101F6000EF93FF9380919F049091CE00EFE7F4E010
:101F7000E80FF11D90838F5F80939F04FF91EF9195
:101F80009F918F910F900BBE0F900FBE0F901F90DF
:101F90001895EF92FF920F931F937B018C01E8EC51
:101FA000F0E080818D7F8083C801B70122E030E0BE
:101FB00040E050E00E94AA1E205C3D4B404F5F4F26
:101FC000CA01B901A80197010E94AA1EC901DA013C
:101FD0000197A109B109292F3A2F4B2F552747FD0A
:101FE0005A950196A11DB11D2093CD00815080937B
:101FF000CC0010929F040E949B0F1F910F91FF90A5
:10200000EF900895FC018DEF808311820895DF9297
:10201000EF92FF920F931F93082FD62E142FF22EBC
:10202000E32E0E94810F8091C80085FFFCCF8FEFC7
:102030008093CE008091C80085FFFCCF8FEF809306
:10204000CE008091C80085FFFCCF0093CE004D2DBF
:102050004E5F8091C80085FFFCCF4093CE008091F9
:10206000C80085FFFCCF1093CE00410F400F8F2D8D
:102070009E2D9C01F90190E00AC020818091C8004A
:1020800085FFFCCF2093CE00420F9F5F31969D15B8
:10209000A0F38091C80085FFFCCF40954093CE000F
:1020A0000E948D0F1F910F91FF90EF90DF90089588
:1020B000AF92BF92CF92DF92FF920F931F93DF9365
:1020C000CF930F92CDB7DEB76C015B018A01198205
:1020D000FF2418C04F5F5F4F63E04A3E5607D1F0C0
:1020E000898120919F04DF01A80FB11D30E0A21764
:1020F000B30781F375C0E158FB4F80818F3F09F42E
:1021000073C0F39489818D3028F440E050E0EF2DC6
:10211000F0E0E6CF0E949B0F50E05F5F8981815025
:102120008983852F8F0D282F30E0F901E158FB4F6F
:1021300070817F3F91F3523008F050E0F901E1588F
:10214000FB4F61816E5F898186135E5FF901E15803
:10215000FB4F40E090E003C08191480F9F5F9617CE
:10216000D8F34F3F11F05C5F24C0552311F5F60101
:1021700070831182F901E158FB4F8281D5018C9364
:1021800011961C92653019F0663069F405C08381A0
:10219000F8018083118218C0948180E0238130E0AF
:1021A000822B932B0EC02D5F3F4FF801318320838C
:1021B0000BC08FEF9FEFD6018D939C93F501918318
:1021C0008083D8018D939C93852F0F90CF91DF91C1
:1021D0001F910F91FF90DF90CF90BF90AF90089527
:1021E0008981882309F487CF89818F5F89838ACF8A
:1021F0006F927F928F929F92AF92BF92CF92DF9217
:10220000EF92FF920F931F93DF93CF9300D000D0F4
:1022100000D0CDB7DEB76C01E62EFF2400E010E061
:1022200073E0672E712C6C0E7D1E65E0862E912C5E
:102230008C0E9D1E5E010894A11CB11C802F60E0D5
:1022400041E020E030E00E940710C501B301A40185
:102250000E94581089819A818017910769F4EF2DA7
:10226000F0E0EE0FFF1FEC0DFD1D11830083F394D2
:10227000FE1411F48E2D11C00F5F1F4F0F3F11057B
:10228000E9F68F2D0AC0E82FF0E0EE0FFF1FEC0DEE
:10229000FD1D318320838F5F02C02FEF3FEF8E152E
:1022A00090F326960FB6F894DEBF0FBECDBFCF9148
:1022B000DF911F910F91FF90EF90DF90CF90BF9033
:1022C000AF909F908F907F906F9008950F931F9382
:1022D000DF93CF9300D0CDB7DEB78C0169834A83FB
:1022E000FC01808162E042E09E012F5F3F4F0E942F
:1022F0000710A8014A5F5F4FC80102960C5F1F4F8D
:10230000B8010E9458100F900F90CF91DF911F914C
:102310000F910895FF920F931F93DF93CF9300D0F7
:10232000CDB7DEB78C01F62EE62FF0E0E133F105F4
:1023300040F4EE58FF4FEE0FFF1F0590F491E02D93
:1023400009944FEF0EC082E016C0F8018181882306
:1023500041F08FEF93E026813781821B930B9783A7
:102360008683842F0F900F90CF91DF911F910F9153
:10237000FF90089581E0F9828A83F801808162E00C
:1023800042E09E012F5F3F4F0E940710B8016C5F33
:102390007F4FA8014A5F5F4FC80102960E94581004
:1023A000482FF4E2FF16E9F6D0CFEF92FF920F9399
:1023B0001F93CF93DF93EC018B0164E246E00E9410
:1023C0006611E82ED801FF2460E070E08E819F81C5
:1023D000FB01E158FB4FE80FF91F518140E080817C
:1023E000282F30E0242B352B11963C932E93FF2081
:1023F000D1F090E084E0203038070CF091E0898142
:102400009827990F9150892F992787FD90953370C0
:10241000FC01E29FC001E39F900DF29F900D1124FB
:1024200011969C938E93F3946E5F7F4F1296F3E018
:10243000FF1661F68981882349F08FEF93E0F80158
:1024400020813181821B930B918380838E2DDF91BC
:10245000CF911F910F91FF90EF900895880F8150B9
:102460000895EF92FF920F931F93DF93CF93CDB711
:10247000DEB78C01262FEDB6FEB6862F90E0FC016C
:102480003397EE32F10540F4ED55FF4FEE0FFF1F8D
:102490000590F491E02D09948FEF33C062E03EC0C7
:1024A000D80111968C91882331F08FEF93E0FC01D5
:1024B000E41BF50BAF01862F90E00196ADB7BEB7D8
:1024C000A81BB90B0FB6F894BEBF0FBEADBFEDB7DA
:1024D000FEB7319611962C934183623009F45283F2
:1024E0006F5FD8018C9143E09F010E940710A80103
:1024F0004A5F5F4FC80102960C5F1F4FB8010E94F0
:1025000058100FB6F894FEBE0FBEEDBECF91DF910E
:102510001F910F91FF90EF90089561E02E3159F6D1
:10252000BFCFFC0120E030E01616170614F421E0BE
:1025300030E08181482F50E042275327542F442711
:10254000550F550F77FF03C0709561957F4F462B50
:10255000572BCF0160E20E94311208951F93CF9351
:10256000DF93EC01162F66E040E050E00E9431124C
:10257000112329F0CE0168E040E050E004C0CE0114
:1025800068E04FEF53E00E943112DF91CF911F912D
:1025900008950895FC0185810895FC0186810895C0
:1025A000FC018581833018F4813098F407C08430B1
:1025B00049F0843018F0853059F40BC0662321F4BB
:1025C000828103C0662329F083810E946F1603C0B5
:1025D00003C08FEF9FEF282F822F08951F93CF9373
:1025E000DF93EC0188810E946F16182F89810E9469
:1025F0006F16880F991F810F813029F18130B0F15A
:10260000823021F0833009F07EC073C08A8160E09F
:102610000E94C4158B8160E00E94C4158A8161E02C
:102620000E94E4158B8161E00E94E41581E08D83B6
:102630008A810E946F16182F8B810E946F16880F57
:10264000991F180F54C08A8161E00E94C4158B81C4
:1026500060E00E94C4158B8161E00E94E41582E075
:102660008D838B810E946F168E834DC08C810E945A
:10267000ED139C01EAE8F2E010E080819181A9016C
:10268000481B590BCA014996C39728F01F5F329621
:102690001D3099F72EC0193018F4153088F405C094
:1026A0001D30D0F01D3079F524C08A8160E00E9491
:1026B000C4158B8160E00E94C41583E08D8317C030
:1026C0008A8161E00E94C4158B8160E00E94C4157C
:1026D00084E08D8315500BC08A8161E00E94C4158F
:1026E0008B8161E00E94C41585E08D8319501E83A3
:1026F0000AC08A8160E00E94C4158B8160E00E945C
:10270000C4151D821E82DF91CF911F910895CF9233
:10271000DF92EF920F936C01862FF6016083418365
:1027200022830383E48260E00E94C415F601818164
:1027300060E00E94C415F601808161E00E94E4150A
:10274000F601818161E00E94E415C6010E94EE124B
:102750000F91EF90DF90CF9008950F931F93CF9339
:10276000DF93EC018D81833059F0833028F0843081
:1027700099F08530A9F415C08C810E94ED1313C027
:102780008A810E946F168C018B810E946F16880FC0
:10279000991F800F911F07C08B810E946F1603C085
:1027A00003C08FEF9FEF282F822FDF91CF911F91D2
:1027B0000F910895FC018581823031F0823058F00C
:1027C000833049F0863030F4828170E00E941D141D
:1027D00081E00895089580E00895382F37702091A2
:1027E0007F022295220F220F207C232B20937C0036
:1027F00020917B0086958695869590E081709070FB
:1028000033E0880F991F3A95E1F7277F282B209313
:102810007B0080917A00806480937A0080917A00B6
:1028200086FDFCCF2091780040917900942F80E0C4
:1028300030E0282B392BC90108951F93CF93DF93E4
:10284000182FEB0161E00E94C415E12FF0E0E25087
:10285000FD4F8491833051F4809180008068809393
:102860008000D0938900C09388009FC0843051F4C9
:1028700080918000806280938000D0938B00C09311
:102880008A0093C0813041F4209709F487C084B551
:10289000806884BDC7BD89C0823041F4209709F4A7
:1028A0007DC084B5806284BDC8BD7FC0863041F4E0
:1028B0008091B00080688093B000C093B30075C071
:1028C000873041F48091B00080628093B000C09363
:1028D000B4006BC0883051F4809190008068809380
:1028E0009000D0939900C09398005FC0893051F454
:1028F00080919000806280939000D0939B00C09361
:102900009A0053C08A3051F480919000886080937F
:102910009000D0939D00C0939C0047C08B3051F431
:102920008091A00080688093A000D093A900C093FC
:10293000A8003BC084918C3051F48091A00080624B
:102940008093A000D093AB00C093AA002EC08D301E
:1029500051F48091A00088608093A000D093AD00D6
:10296000C093AC0022C08E3051F480912001806869
:1029700080932001D0932901C093280116C08F3085
:1029800051F480912001806280932001D0932B012B
:10299000C0932A010AC0C038D1051CF4812F60E021
:1029A00002C0812F61E00E94E415DF91CF911F9159
:1029B00008951F920F920FB60F9211242F933F93F9
:1029C0008F939F93AF93BF938091A4049091A5049C
:1029D000A091A604B091A7043091A8040196A11D6E
:1029E000B11D232F2D5F2D3720F02D570196A11DEE
:1029F000B11D2093A8048093A4049093A504A093F0
:102A0000A604B093A7048091A0049091A104A09182
:102A1000A204B091A3040196A11DB11D8093A0044E
:102A20009093A104A093A204B093A304BF91AF918B
:102A30009F918F913F912F910F900FBE0F901F90FC
:102A400018958FB7F8942091A4043091A504409173
:102A5000A6045091A7048FBFB901CA010895EF924F
:102A6000FF920F931F937B018C018FB7F8944091D5
:102A7000A4045091A5046091A6047091A7048FBF8F
:102A80002FB7F8948091A4049091A504A091A60476
:102A9000B091A7042FBF841B950BA60BB70BE816AC
:102AA000F9060A071B0760F71F910F91FF90EF903F
:102AB0000895019739F0880F991F880F991F029781
:102AC0000197F1F70895789484B5826084BD84B548
:102AD000816084BD85B5826085BD85B5816085BD19
:102AE000EEE6F0E0808181608083E1E8F0E08081C3
:102AF00082608083808181608083E0E8F0E0808173
:102B000081608083E1EBF0E0808184608083E0EB92
:102B1000F0E0808181608083E1E9F0E08081826083
:102B20008083808181608083E1EAF0E0808182603F
:102B30008083808181608083E1E2F1E08081826036
:102B40008083808181608083E0E9F0E08081816022
:102B50008083E0EAF0E0808181608083E0E2F1E060
:102B6000808181608083EAE7F0E0808184608083F7
:102B700080818260808380818160808380818068A1
:102B800080831092C1000895282F30E0C901885435
:102B90009D4FFC0194912E583D4FF901849188235B
:102BA00091F0E82FF0E0EE0FFF1FEC5DFD4FA591D7
:102BB000B491662329F48C91909589238C93089580
:102BC0008C91892B8C930895482F50E0CA01825034
:102BD0009D4FFC012491CA0188549D4FFC019491A2
:102BE0004E585D4FFA013491332309F477C0222304
:102BF00009F462C0233021F4809180008F7705C0F2
:102C0000243031F4809180008F7D8093800054C007
:102C1000213019F484B58F7704C0223021F484B5B3
:102C20008F7D84BD49C0263021F48091B0008F771C
:102C300005C0273031F48091B0008F7D8093B000C3
:102C40003BC0283021F4809190008F7705C0293057
:102C500031F4809190008F7D809390002DC02A30B8
:102C600021F480919000877FF7CF2B3021F4809161
:102C7000A0008F770BC02C3021F48091A0008F7DB5
:102C800005C02D3031F48091A000877F8093A00093
:102C900013C02E3021F4809120018F770BC02F308C
:102CA00021F4809120018F7D05C0203129F480918D
:102CB0002001877F80932001E32FF0E0EE0FFF1FBC
:102CC000E25CFD4FA591B491662329F48C91909517
:102CD00089238C9308958C91892B8C930895682F68
:102CE00070E0CB0182509D4FFC012491CB018854B0
:102CF0009D4FFC0144916E587D4FFB0194919923A7
:102D000019F420E030E075C0222309F462C02330BA
:102D100021F4809180008F7705C0243031F48091B8
:102D200080008F7D8093800054C0213019F484B5D9
:102D30008F7704C0223021F484B58F7D84BD49C0D3
:102D4000263021F48091B0008F7705C0273031F410
:102D50008091B0008F7D8093B0003BC0283021F47B
:102D6000809190008F7705C0293031F480919000D8
:102D70008F7D809390002DC02A3021F480919000A7
:102D8000877FF7CF2B3021F48091A0008F770BC085
:102D90002C3021F48091A0008F7D05C02D3031F4BE
:102DA0008091A000877F8093A00013C02E3021F473
:102DB000809120018F770BC02F3021F4809120016A
:102DC0008F7D05C0203129F480912001877F809379
:102DD0002001892F90E0880F991F885A9D4FFC0190
:102DE000A591B4918C9120E030E0842311F021E092
:102DF00030E0C90108950F931F93CF93DF93482FBD
:102E0000FB018B0100581F4FD801CD91DC91CE0101
:102E1000019660E870E00E94751E9C01EE57FF4F1E
:102E200080819181E258F0402817390731F0CE0FA8
:102E3000DF1F4883F80131832083DF91CF911F91F9
:102E40000F9108951F920F920FB60F920BB60F922B
:102E500011242F933F934F935F936F937F938F939F
:102E60009F93AF93BF93EF93FF938091C60069EA5E
:102E700074E00E94FB16FF91EF91BF91AF919F917B
:102E80008F917F916F915F914F913F912F910F9013
:102E90000BBE0F900FBE0F901F9018951F920F92B0
:102EA0000FB60F920BB60F9211242F933F934F93AF
:102EB0005F936F937F938F939F93AF93BF93EF93A2
:102EC000FF938091360165E376E00E94FB16FF9147
:102ED000EF91BF91AF919F918F917F916F915F9192
:102EE0004F913F912F910F900BBE0F900FBE0F90FF
:102EF0001F9018955F926F927F928F929F92AF92E0
:102F0000BF92CF92DF92EF92FF920F931F93CF93D6
:102F1000DF93EC013A014B01413482E458078FE022
:102F2000680780E078070CF07FC060E874E88EE105
:102F300090E0A40193010E94AA1E2150304040401D
:102F40005040CA01B90122E030E040E050E00E9468
:102F5000AA1E59016A01A601950120953095409558
:102F6000509594E0220F331F441F551F9A95D1F7B7
:102F700060E074E284EF90E00E94AA1ECA01B901E9
:102F80002FEF30E040E050E00E94561EA401930174
:102F90000E94AA1EC90181509F4F181619061CF4E1
:102FA000522E5A9403C055245394521A60E079E08B
:102FB0008DE390E0A40193010E94AA1E21503040AD
:102FC00040405040CA01B90122E030E040E050E00A
:102FD0000E94AA1E209530954095509583E0220FBF
:102FE000331F441F551F8A95D1F760E074E284EFC8
:102FF00090E00E94AA1ECA01B9012FEF30E040E024
:1030000050E00E94561EA40193010E94AA1EC9010D
:1030100081509F4F181619061CF4822F815002C050
:1030200081E0821B851500F5E885F98581E090E057
:103030000A8802C0880F991F0A94E2F7808360E033
:1030400079E08DE390E0A40193010E94AA1E215033
:10305000304040405040CA01B90122E030E040E039
:1030600050E00E94AA1E04C0E885F98510829501EF
:10307000EC81FD813083EE81FF812083EA85FB8531
:10308000208141E050E0CA010E8402C0880F991FE0
:103090000A94E2F7282B2083EA85FB852081CA0168
:1030A0000F8402C0880F991F0A94E2F7282B20830F
:1030B000EA85FB858081088802C0440F551F0A9469
:1030C000E2F7842B8083DF91CF911F910F91FF90C6
:1030D000EF90DF90CF90BF90AF909F908F907F90B8
:1030E0006F905F900895DC011296ED91FC9113971B
:1030F000E058FF4F8191919180589F4F20813181FD
:10310000821B930B60E870E00E94751E0895CF93B8
:10311000DF93DC011296ED91FC911397EF01CE57EE
:10312000DF4F48815981E058FF4F80819181E058FD
:10313000F0408417950719F42FEF3FEF0CC0E40F10
:10314000F51F2081CA01019660E870E00E94751E9B
:103150009983888330E0C901DF91CF910895FC0104
:10316000A085B18521898C9190E0022E02C09595B1
:1031700087950A94E2F780FFF6CF0484F585E02D69
:103180006083089528EA32E03093BA062093B906A6
:1031900089EA94E09093BC068093BB0685EC90E0AE
:1031A0009093BE068093BD0684EC90E09093C00699
:1031B0008093BF0680EC90E09093C2068093C10696
:1031C00081EC90E09093C4068093C30686EC90E077
:1031D0009093C6068093C506E4E0E093C70673E0CB
:1031E0007093C80667E06093C90655E05093CA061D
:1031F00041E04093CB063093CD062093CC068DE280
:1032000095E09093CF068093CE068DEC90E090935E
:10321000D1068093D0068CEC90E09093D3068093F7
:10322000D20688EC90E09093D5068093D40689EC82
:1032300090E09093D7068093D6068EEC90E0909322
:10324000D9068093D806E093DA067093DB06609384
:10325000DC065093DD064093DE063093E0062093B3
:10326000DF0681EB95E09093E2068093E10685ED21
:1032700090E09093E4068093E30684ED90E09093D1
:10328000E6068093E50680ED90E09093E806809353
:10329000E70681ED90E09093EA068093E90686EDDB
:1032A00090E09093EC068093EB06E093ED0670932C
:1032B000EE066093EF065093F0064093F1063093CC
:1032C000F3062093F20685E396E09093F50680934B
:1032D000F40685E391E09093F7068093F60684E385
:1032E00091E09093F9068093F80680E391E0909343
:1032F000FB068093FA0681E391E09093FD068093AC
:10330000FC0686E391E09093FF068093FE06E0932F
:1033100000077093010760930207509303074093DF
:103320000407089570E0382F20E0622B732BCB0147
:1033300008950F931F93CF93DF938C01EB0109C086
:103340002196D801ED91FC910190F081E02DC8010A
:10335000099568816623A1F7DF91CF911F910F91A5
:103360000895EF92FF920F931F93CF93DF938C01F9
:103370007B01EA010CC0D7016D917D01D801ED916F
:10338000FC910190F081E02DC801099521972097CB
:1033900091F7DF91CF911F910F91FF90EF900895DA
:1033A0002F923F924F925F926F927F928F929F9255
:1033B000AF92BF92CF92DF92EF92FF920F931F9343
:1033C000DF93CF93CDB7DEB7A0970FB6F894DEBFEB
:1033D0000FBECDBF1C016A017B014115510561057E
:1033E000710549F440E350E060E070E020E030E037
:1033F0000E948B1A56C0882499245401422E5524C9
:103400006624772401E010E00C0F1D1F080D191D24
:10341000C701B601A30192010E94881EF8016083D2
:103420000894811C911CA11CB11CC701B601A30109
:1034300092010E94881EC901DA016C017D01C1144C
:10344000D104E104F104F1F681E0E82EF12CEC0E58
:10345000FD1EE80CF91C3E010894611C711CD5018D
:10346000C4010197A109B1096C01C818D90816C097
:10347000F601EE0DFF1D40814A3010F4405D01C0A1
:10348000495C552747FD5095652F752FC10120E0F8
:1034900030E00E948B1A0894E108F1086E147F0452
:1034A00039F7A0960FB6F894DEBF0FBECDBFCF910F
:1034B000DF911F910F91FF90EF90DF90CF90BF9021
:1034C000AF909F908F907F906F905F904F903F90C4
:1034D0002F900895DC012115310541F4ED91FC9107
:1034E0000190F081E02D642F099508950E94D01974
:1034F0000895EF92FF920F931F939A01E62EFF24F7
:1035000000E010E0B801A7010E946A1A1F910F9114
:10351000FF90EF900895EF92FF920F931F93CF9338
:10352000DF93EC017A018B012115310541F4E8812B
:10353000F9810190F081E02D642F09951BC02A309C
:103540003105B1F477FF10C04DE250E060E070E06B
:1035500020E030E00E948B1A10950095F094E094E2
:10356000E11CF11C011D111DCE01B801A7012AE0CB
:103570000E94D019DF91CF911F910F91FF90EF9092
:103580000895EF92FF920F931F937B019A010027FA
:10359000F7FC0095102FB801A7010E948B1A1F910C
:1035A0000F91FF90EF9008950E9463150E942A0FDB
:1035B0000E949E0EFDCF5058BB27AA270ED070C187
:1035C00061D130F066D120F031F49F3F11F41EF448
:1035D00056C10EF4E095E7FB4CC1E92F72D180F3A0
:1035E000BA17620773078407950718F071F49EF500
:1035F0008AC10EF4E0950B2EBA2FA02D0B01B90154
:1036000090010C01CA01A0011124FF27591B99F058
:10361000593F50F4503E68F11A16F040A22F232F64
:10362000342F4427585FF3CF469537952795A795B4
:10363000F0405395C9F77EF41F16BA0B620B730B5B
:10364000840BBAF09150A1F0FF0FBB1F661F771FCC
:10365000881FC2F70EC0BA0F621F731F841F48F481
:10366000879577956795B795F7959E3F08F0B3CF07
:103670009395880F08F09927EE0F979587950895F1
:10368000D4D008F481E008950CD00AC102D140F0F2
:10369000F9D030F021F45F3F19F0EBC0511134C183
:1036A000EEC00FD198F39923C9F35523B1F3951BBD
:1036B000550BBB27AA2762177307840738F09F5F53
:1036C0005F4F220F331F441FAA1FA9F333D00E2EC2
:1036D0003AF0E0E830D091505040E695001CCAF72F
:1036E00029D0FE2F27D0660F771F881FBB1F2617F4
:1036F00037074807AB07B0E809F0BB0B802DBF01C7
:10370000FF2793585F4F2AF09E3F510568F0B1C0E4
:10371000FBC05F3FECF3983EDCF3869577956795A9
:10372000B795F7959F5FC9F7880F911D9695879577
:1037300097F90895E1E0660F771F881FBB1F621796
:1037400073078407BA0720F0621B730B840BBA0B54
:10375000EE1F88F7E0950895BCD088F09F5790F051
:10376000B92F9927B751A0F0D1F0660F771F881FA6
:10377000991F1AF0BA95C9F712C0B13081F0C3D0C1
:10378000B1E00895C0C0672F782F8827B85F39F05F
:10379000B93FCCF3869577956795B395D9F73EF405
:1037A00090958095709561957F4F8F4F9F4F0895AD
:1037B000E89409C097FB3EF49095809570956195CB
:1037C0007F4F8F4F9F4F9923A9F0F92F96E9BB2781
:1037D0009395F695879577956795B795F111F8CFFD
:1037E000FAF4BB0F11F460FF1BC06F5F7F4F8F4F68
:1037F0009F4F16C0882311F096E911C0772321F05E
:103800009EE8872F762F05C0662371F096E8862FF5
:1038100070E060E02AF09A95660F771F881FDAF74C
:10382000880F9695879597F90895990F0008550F79
:10383000AA0BE0E8FEEF16161706E807F907C0F036
:1038400012161306E407F50798F0621B730B840B3E
:10385000950B39F40A2661F0232B242B252B21F418
:1038600008950A2609F4A140A6958FEF811D811DB8
:10387000089597F99F6780E870E060E008959FEFF2
:1038800080EC089500240A941616170618060906F7
:10389000089500240A9412161306140605060895C6
:1038A000092E0394000C11F4882352F0BB0F40F44E
:1038B000BF2B11F460FF04C06F5F7F4F8F4F9F4F8E
:1038C000089557FD9058440F551F59F05F3F71F010
:1038D0004795880F97FB991F61F09F3F79F0879577
:1038E0000895121613061406551FF2CF4695F1DF00
:1038F00008C0161617061806991FF1CF8695710590
:10390000610508940895E894BB2766277727CB01C3
:1039100097F908958ADF08F48FEF08950BD0C0CF90
:10392000B1DF28F0B6DF18F0952309F0A2CFA7CFBA
:103930001124EACFC6DFA0F3959FD1F3950F50E095
:10394000551F629FF001729FBB27F00DB11D639F51
:10395000AA27F00DB11DAA1F649F6627B00DA11DF7
:10396000661F829F2227B00DA11D621F739FB00D9D
:10397000A11D621F839FA00D611D221F749F33270D
:10398000A00D611D231F849F600D211D822F762FA6
:103990006A2F11249F5750408AF0E1F088234AF0A3
:1039A000EE0FFF1FBB1F661F771F881F91505040EF
:1039B000A9F79E3F510570F05CCFA6CF5F3FECF3B7
:1039C000983EDCF3869577956795B795F795E795DB
:1039D0009F5FC1F7FE2B880F911D9695879597F9EC
:1039E0000895FA01EE0FFF1F30962105310599F178
:1039F0006115710561F48038BFE39B0749F1689454
:103A00009038810561F08038BFEF9B0741F0992322
:103A100042F5FF3FE1053105210511F1E8940894D5
:103A2000E795D901AA2329F4AB2FBE2FF85FD0F375
:103A300010C0FF5F70F4A695E0F7F73950F019F069
:103A4000FF3A38F49F779F930CD00F9007FC905863
:103A500008953EF014CF60E070E080E89FE30895A1
:103A60004FE79F775F934F933F932F939ED02F9174
:103A70003F914F915F9152DF05C019F40EF0F9CEDE
:103A800042CFFDCE26DFC8F39638C0F707F80F9275
:103A9000E8942BE33AEA48EB5FE74EDF0F920F9290
:103AA0000F924DB75EB70F92C0D0E2EAF1E016D0A8
:103AB0004F915F91EF91FF91E595EE1FFF1F49F048
:103AC000FE57E0684427EE0F441FFA95E1F7419551
:103AD000550B32D00F9007FE26C00895DF93CF9389
:103AE0001F930F93FF92EF92DF927B018C016894FA
:103AF00005C0DA2EEF011EDFFE01E894A5912591A5
:103B0000359145915591AEF3EF0167DDFE019701C7
:103B1000A801DA9479F7DF90EF90FF900F911F9151
:103B2000CF91DF9108959B01AC0160E070E080E8E7
:103B30009FE3AACD9ECEACC0CCDEE8F39923D9F3A7
:103B4000940F511DBBF39150504094F059F08823CD
:103B500032F0660F771F881F91505040C1F79E3F8B
:103B6000510544F7880F911D9695879597F908950B
:103B70005F3FACF0983E9CF0BB27869577956795A4
:103B8000B79508F4B1609395C1F7BB0F58F711F4DE
:103B900060FFE8CF6F5F7F4F8F4F9F4FE3CFB4CE73
:103BA0000EF076C06CCE689464CE93DEC8F3992391
:103BB000D1F3C6F3DF93CF931F930F93FF92C92FD7
:103BC000DD2788232AF02197660F771F881FDAF7F1
:103BD00020E030E040E85FEB9FE3883920F0803E52
:103BE00030F021968F77E8DCEAECF1E003C0E4DC0A
:103BF000E7EFF1E073DF8B01BE01EC01FB2E6F57A5
:103C000071097595771F880B990BD4DD28E132E790
:103C100041E35FE38FDEAF2D9801AE01FF900F917E
:103C20001F91CF91DF91D9DC3BCEFA01DC01AA0FC5
:103C3000BB1F9B01AC01BF5728F422273327442721
:103C400050781FC0B75188F4AB2F002446953795A4
:103C50002795011CA395D2F3002069F0220F331F92
:103C6000441FB395DAF30DD0A6CC61307105A0E8FE
:103C70008A07B94630F49B01AC016627772788276D
:103C80009078309621F020833183428353830895C6
:103C90009F3F31F0915020F4879577956795B795C0
:103CA000880F911D9695879597F90895629FD00189
:103CB000739FF001829FE00DF11D649FE00DF11DE7
:103CC000929FF00D839FF00D749FF00D659FF00D96
:103CD0009927729FB00DE11DF91F639FB00DE11D83
:103CE000F91FBD01CF011124089597FB092E072666
:103CF0000AD077FD04D049D006D000201AF4709580
:103D000061957F4F0895F6F7909581959F4F08959F
:103D1000A1E21A2EAA1BBB1BFD010DC0AA1FBB1FCF
:103D2000EE1FFF1FA217B307E407F50720F0A21B41
:103D3000B30BE40BF50B661F771F881F991F1A94AE
:103D400069F760957095809590959B01AC01BD01D8
:103D5000CF01089597FB092E05260ED057FD04D0FC
:103D6000D7DF0AD0001C38F4509540953095219546
:103D70003F4F4F4F5F4F0895F6F7909580957095A0
:103D800061957F4F8F4F9F4F0895AA1BBB1B51E139
:103D900007C0AA1FBB1FA617B70710F0A61BB70BBB
:103DA000881F991F5A95A9F780959095BC01CD0160
:103DB0000895EE0FFF1F0590F491E02D09940F93E5
:103DC0001F93CF93DF93689F8001699F100D789FA9
:103DD000100D1124C8010E94FB1EEC01009729F070
:103DE00060E070E0A8010E940920CE01DF91CF9130
:103DF0001F910F910895CF93DF93BC0182309105FD
:103E000010F462E070E0A0910707B0910807ED019F
:103E1000E0E0F0E040E050E021C088819981861721
:103E2000970769F48A819B81309719F09383828385
:103E300004C09093080780930707FE0134C06817F9
:103E4000790738F44115510519F08417950708F4DE
:103E5000AC01FE018A819B819C01E9012097E9F672
:103E600041155105A9F1CA01861B970B049708F467
:103E7000BA01E0E0F0E02AC08D919C91119784177F
:103E80009507F9F46417750781F412968D919C914A
:103E90001397309719F09383828304C09093080797
:103EA00080930707FD0132964FC0CA01861B970B0E
:103EB000FD01E80FF91F6193719302978D939C9315
:103EC00043C0FD01828193819C01D9011097A1F625
:103ED0008091050790910607892B41F48091730228
:103EE00090917402909306078093050740917502A4
:103EF000509176024115510541F44DB75EB780915E
:103F0000710290917202481B590B20910507309164
:103F1000060724173507B0F4CA01821B930B8617D6
:103F2000970780F0AB014E5F5F4F8417950750F005
:103F3000420F531F5093060740930507F901619301
:103F4000719302C0E0E0F0E0CF01DF91CF910895DE
:103F5000CF93DF93009709F450C0EC0122971B82A6
:103F60001A82A0910707B0910807109709F140E065
:103F700050E0AC17BD0708F1BB83AA83FE01219175
:103F80003191E20FF31FAE17BF0779F48D919C9129
:103F90001197280F391F2E5F3F4F398328831296C0
:103FA0008D919C9113979B838A834115510571F4E0
:103FB000D0930807C093070720C012968D919C915B
:103FC0001397AD01009711F0DC01D3CFFA01D38331
:103FD000C28321913191E20FF31FCE17DF0769F4FD
:103FE00088819981280F391F2E5F3F4FFA01318355
:103FF00020838A819B8193838283DF91CF9108956F
:10400000FB01DC0102C001900D9241505040D8F7F5
:104010000895DC0101C06D9341505040E0F70895D0
:10402000FB01DC018D91019080190110D9F3990BEE
:104030000895FB01DC0101900D920020E1F7089545
:04404000F894FFCF22
:10404400646973740074656D70006C757A006772CE
:104054006973657300626F746F6E0063746F756368
:10406400680074696C74007669627261006D6167DE
:104074006E657400706F7465006C656400756E6BBA
:104084006E6F776E00627574696100746F72747517
:104094006761006D6F746F7265730073656E736F23
:1040A40072006C6261636B0061783132006C63642E
:1040B40000200009070000000080BF000080BF014D
:1040C400000000005E049919B11900008300B900D2
:1040D400FA004F01A20100025D02B1020603470388
:0E40E4007D03FF0300000000AF189919B11909
:00000001FF
